:020000040800F2
:100000000000022075330008D9230008DB23000814
:10001000DD230008DF230008E123000800000000C2
:10002000000000000000000000000000E3230008C2
:10003000E523000800000000E7230008E92300088A
:10004000C5330008C5330008C5330008C5330008B0
:10005000C5330008C5330008C5330008C5330008A0
:10006000C5330008C5330008C5330008C533000890
:10007000C5330008C5330008C5330008C533000880
:10008000C5330008C5330008C5330008C533000870
:10009000C5330008C5330008C5330008C533000860
:1000A000C5330008C5330008C5330008C533000850
:1000B000C5330008C5330008C5330008C533000840
:1000C000C5330008C5330008C5330008C533000830
:1000D000C5330008C5330008C5330008C533000820
:1000E000C5330008C5330008C5330008C533000810
:1000F000C5330008C5330008C5330008C533000800
:10010000C5330008C5330008C5330008C5330008EF
:10011000C5330008C5330008C5330008C5330008DF
:10012000C5330008C5330008C5330008C5330008CF
:10013000C5330008C5330008C5330008C5330008BF
:10014000C5330008C5330008C5330008C5330008AF
:10015000C5330008C5330008C5330008C53300089F
:10016000C5330008C5330008C5330008C53300088F
:10017000C5330008C5330008C5330008000000007F
:08018000C5330008C533000877
:1001C00010B5054C237833B9044B13B10448AFF391
:1001D00000800123237010BDC00900200000000032
:1001E0005893000808B5034B1BB103490348AFF30C
:1001F000008008BD00000000C409002058930008DA
:1002000053B94AB9002908BF00281CBF4FF0FF317D
:100210004FF0FF3000F074B9ADF1080C6DE904CE79
:1002200000F006F8DDF804E0DDE9022304B07047D1
:100230002DE9F047089E0D4604468846002B4DD117
:100240008A42944668D9B2FA82F252B101FA02F3B4
:10025000C2F1200120FA01F10CFA02FC41EA030884
:1002600094404FEA1C45210CB8FBF5FE1FFA8CF7B1
:1002700005FB1E8341EA03430EFB07F199420BD9AC
:100280001CEB03030EF1FF3080F01E81994240F217
:100290001B81AEF1020E63445B1AA4B2B3FBF5F00E
:1002A00005FB103344EA034400FB07F7A7420AD9D1
:1002B0001CEB040400F1FF3380F00881A74240F2F8
:1002C000058164440238E41B40EA0E4000211EB15F
:1002D000D4400023C6E90043BDE8F0878B4208D92B
:1002E000002E00F0EE800021C6E900050846BDE8BA
:1002F000F087B3FA83F100294AD1AB4202D382429C
:1003000000F2F980841A65EB030301209846002E61
:10031000E2D0C6E90048DFE702B9FFDEB2FA82F2B6
:10032000002A40F09180A1EB0C054FEA1C471FFA10
:100330008CFE0121B5FBF7F307FB1350250C45EAB2
:1003400000450EFB03F0A84208D91CEB050503F19C
:10035000FF3802D2A84200F2CB8043462D1AA4B245
:10036000B5FBF7F007FB105544EA05440EFB00FE11
:10037000A64508D91CEB040400F1FF3502D2A645BE
:1003800000F2BB802846A4EB0E0440EA03409EE73F
:10039000C1F120078B4022FA07FC4CEA030C20FA3B
:1003A00007F405FA01F31C43FD404FEA1C4900FA2B
:1003B00001F3B5FBF9F8200C1FFA8CFE09FB185568
:1003C00040EA054508FB0EF0A84202FA01F20BD9FB
:1003D0001CEB050508F1FF3A80F08880A84240F246
:1003E0008580A8F1020865442D1AA4B2B5FBF9F086
:1003F00009FB105544EA054500FB0EFEAE4508D941
:100400001CEB050500F1FF346CD2AE456AD9023809
:10041000654440EA0840A0FB0294A5EB0E05A54206
:10042000C846A64656D353D05EB1B3EB080265EB7F
:100430000E0505FA07F722FA01F3CD401F43C6E97E
:1004400000750021BDE8F087C2F1200320FA03F116
:100450000CFA02FC25FA03F395400D434FEA1C47C2
:100460001FFA8CFEB3FBF7F107FB11302B0C43EAAC
:10047000004301FB0EF0984204FA02F408D91CEB89
:10048000030301F1FF382FD298422DD9023963447A
:100490001B1AADB2B3FBF7F007FB103345EA034577
:1004A00000FB0EF3AB4208D91CEB050500F1FF3849
:1004B00016D2AB4214D902386544ED1A40EA014124
:1004C00038E73146304607E78646E5E61846FAE65D
:1004D0004B45A9D2B9EB020864EB0C0E0138A3E737
:1004E0004046EAE7204694E74146D1E7D0467BE71D
:1004F000023B654432E7084609E76444023842E7B4
:10050000704700BF00000000000000000000000075
:1005100000000000000000000000000000000000DB
:1005200000000000000000000000000000000000CB
:1005300000000000000000000000000000000000BB
:1005400090F800F06DE9024520F007016FF0000C13
:1005500010F0070491F820F040F049804FF00004BB
:100560006FF00700D1E9002391F840F000F1080096
:1005700082FA4CF2A4FA8CF283FA4CF3A2FA8CF3CE
:100580004BBBD1E9022382FA4CF200F10800A4FA35
:100590008CF283FA4CF3A2FA8CF3E3B9D1E9042389
:1005A00082FA4CF200F10800A4FA8CF283FA4CF3C0
:1005B000A2FA8CF37BB9D1E9062301F1200182FA7A
:1005C0004CF200F10800A4FA8CF283FA4CF3A2FA80
:1005D0008CF3002BC6D0002A04BF04301A4612BA8E
:1005E000B2FA82F2FDE8024500EBD2007047D1E991
:1005F000002304F00305C4F100004FEAC50514F020
:10060000040F91F840F00CFA05F562EA05021CBFF0
:1006100063EA050362464FF00004A9E7000000000A
:1006200001F0FF01102A2BDB10F0070F08D010F8A3
:10063000013B013A8B422DD010F0070F42B3F6D1A7
:10064000F0B441EA012141EA014122F007047FF0C0
:1006500000070023F0E80256083C85EA010586EA17
:10066000010685FA47F5A3FA87F586FA47F6A5FA53
:1006700087F68EB9EED1F0BC01F0FF0102F007025F
:1006800032B110F8013B013A83EA010313B1F8D10A
:100690000020704701387047002D06BF35460338EB
:1006A000073815F0010F07D1013015F4807F02BF24
:1006B000013015F4C03F0130F0BC0138704700BF75
:1006C000844641EA000313F003036DD1403A41D35D
:1006D00051F8043B40F8043B51F8043B40F8043B1C
:1006E00051F8043B40F8043B51F8043B40F8043B0C
:1006F00051F8043B40F8043B51F8043B40F8043BFC
:1007000051F8043B40F8043B51F8043B40F8043BEB
:1007100051F8043B40F8043B51F8043B40F8043BDB
:1007200051F8043B40F8043B51F8043B40F8043BCB
:1007300051F8043B40F8043B51F8043B40F8043BBB
:1007400051F8043B40F8043B51F8043B40F8043BAB
:10075000403ABDD2303211D351F8043B40F8043B4B
:1007600051F8043B40F8043B51F8043B40F8043B8B
:1007700051F8043B40F8043B103AEDD20C3205D35B
:1007800051F8043B40F8043B043AF9D2043208D053
:10079000D2071CBF11F8013B00F8013B01D30B88C5
:1007A00003806046704700BF082A13D38B078DD0A3
:1007B00010F003038AD0C3F10403D21ADB071CBF75
:1007C00011F8013B00F8013B80D331F8023B20F8DF
:1007D000023B7BE7043AD9D3013A11F8013B00F818
:1007E000013BF9D20B7803704B7843708B788370A0
:1007F0006046704781F0004102E000BF83F0004393
:1008000030B54FEA41044FEA430594EA050F08BFAB
:1008100090EA020F1FBF54EA000C55EA020C7FEA6F
:10082000645C7FEA655C00F0E2804FEA5454D4EBEC
:100830005555B8BF6D420CDD2C4480EA020281EAB6
:10084000030382EA000083EA010180EA020281EAEE
:100850000303362D88BF30BD11F0004F4FEA013140
:100860004FF4801C4CEA113102D0404261EB41014F
:1008700013F0004F4FEA03334CEA133302D05242D5
:1008800063EB430394EA050F00F0A780A4F1010491
:10089000D5F1200E0DDB02FA0EFC22FA05F28018CB
:1008A00041F1000103FA0EF2801843FA05F35941B1
:1008B0000EE0A5F120050EF1200E012A03FA0EFC30
:1008C00028BF4CF0020C43FA05F3C01851EBE3715A
:1008D00001F0004507D54FF0000EDCF1000C7EEB77
:1008E00000006EEB0101B1F5801F1BD3B1F5001FB5
:1008F0000CD349085FEA30004FEA3C0C04F10104D4
:100900004FEA445212F5800F80F09A80BCF1004FFC
:1009100008BF5FEA500C50F1000041EB045141EA7E
:10092000050130BD5FEA4C0C404141EB0101013C47
:1009300028BFB1F5801FE9D291F0000F04BF014636
:100940000020B1FA81F308BF2033A3F10B03B3F108
:1009500020020CDA0C3208DD02F1140CC2F10C0298
:1009600001FA0CF021FA02F10CE002F11402D8BFF6
:10097000C2F1200C01FA02F120FA0CFCDCBF41EAC2
:100980000C019040E41AA2BF01EB0451294330BD91
:100990006FEA04041F3C1CDA0C340EDC04F114046E
:1009A000C4F1200220FA04F001FA02F340EA030045
:1009B00021FA04F345EA030130BDC4F10C04C4F18B
:1009C000200220FA02F001FA04F340EA030029466B
:1009D00030BD21FA04F0294630BD94F0000F83F4B5
:1009E000801306BF81F480110134013D4EE77FEA98
:1009F000645C18BF7FEA655C29D094EA050F08BFE4
:100A000090EA020F05D054EA000C04BF19461046C4
:100A100030BD91EA030F1EBF0021002030BD5FEA08
:100A2000545C05D14000494128BF41F0004130BD30
:100A300014F580043CBF01F5801130BD01F0004584
:100A400045F0FE4141F470014FF0000030BD7FEAF7
:100A5000645C1ABF194610467FEA655C1CBF0B46F2
:100A6000024650EA013406BF52EA033591EA030F09
:100A700041F4002130BD00BF90F0000F04BF002101
:100A8000704730B54FF4806404F132044FF0000534
:100A90004FF0000150E700BF90F0000F04BF0021AD
:100AA000704730B54FF4806404F1320410F0004513
:100AB00048BF40424FF000013EE700BF42004FEA0E
:100AC000E2014FEA31014FEA02701FBF12F07F438B
:100AD00093F07F4F81F06051704732F07F4208BF42
:100AE000704793F07F4F04BF41F40021704730B549
:100AF0004FF4607401F0004521F000411CE700BF95
:100B000050EA010208BF704730B54FF000050AE017
:100B100050EA010208BF704730B511F0004502D518
:100B2000404261EB41014FF4806404F132045FEA1A
:100B3000915C3FF4D8AE4FF003025FEADC0C18BFC3
:100B400003325FEADC0C18BF033202EBDC02C2F1B5
:100B5000200300FA03FC20FA02F001FA03FE40EA47
:100B60000E0021FA02F11444BDE600BF70B54FF04B
:100B7000FF0C4CF4E06C1CEA11541DBF1CEA135529
:100B800094EA0C0F95EA0C0F00F0DEF82C4481EA91
:100B9000030621EA4C5123EA4C5350EA013518BFB1
:100BA00052EA033541F4801143F4801338D0A0FB9E
:100BB00002CE4FF00005E1FB02E506F00042E0FB4B
:100BC00003E54FF00006E1FB03569CF0000F18BF51
:100BD0004EF0010EA4F1FF04B6F5007F64F54074F9
:100BE00004D25FEA4E0E6D4146EB060642EAC6218C
:100BF00041EA55514FEAC52040EA5E504FEACE2EF9
:100C0000B4F1FD0C88BFBCF5E06F1ED8BEF1004FFB
:100C100008BF5FEA500E50F1000041EB045170BD77
:100C200006F0004646EA010140EA020081EA0301BB
:100C3000B4EB5C04C2BFD4EB0C0541EA045170BDB7
:100C400041F480114FF0000E013C00F3AB8014F131
:100C5000360FDEBF002001F0004170BDC4F100047A
:100C6000203C35DA0C341BDC04F11404C4F12005FB
:100C700000FA05F320FA04F001FA05F240EA020056
:100C800001F0004221F0004110EBD37021FA04F68C
:100C900042EB06015EEA430E08BF20EAD37070BD46
:100CA000C4F10C04C4F1200500FA04F320FA05F0A5
:100CB00001FA04F240EA020001F0004110EBD370A7
:100CC00041F100015EEA430E08BF20EAD37070BD17
:100CD000C4F1200500FA05F24EEA020E20FA04F3F0
:100CE00001FA05F243EA020321FA04F001F000419F
:100CF00021FA04F220EA020000EBD3705EEA430E10
:100D000008BF20EAD37070BD94F0000F0FD101F03E
:100D10000046400041EB010111F4801F08BF013C77
:100D2000F7D041EA060195F0000F18BF704703F0B5
:100D30000046520043EB030313F4801F08BF013D3C
:100D4000F7D043EA0603704794EA0C0F0CEA1355F8
:100D500018BF95EA0C0F0CD050EA410618BF52EAB2
:100D60004306D1D181EA030101F000414FF00000B8
:100D700070BD50EA410606BF1046194652EA4306C6
:100D800019D094EA0C0F02D150EA013613D195EA3A
:100D90000C0F05D152EA03361CBF104619460AD182
:100DA00081EA030101F0004141F0FE4141F470018C
:100DB0004FF0000070BD41F0FE4141F4780170BD7C
:100DC00070B54FF0FF0C4CF4E06C1CEA11541DBFE1
:100DD0001CEA135594EA0C0F95EA0C0F00F0A7F8E3
:100DE000A4EB050481EA030E52EA03354FEA013110
:100DF00000F088804FEA03334FF0805545EA131323
:100E000043EA12634FEA022245EA111545EA1065EA
:100E10004FEA00260EF000419D4208BF964244F181
:100E2000FD0404F5407402D25B084FEA3202B61AA0
:100E300065EB03055B084FEA32024FF480104FF474
:100E4000002CB6EB020E75EB030E22BFB61A7546E8
:100E500040EA0C005B084FEA3202B6EB020E75EB7B
:100E6000030E22BFB61A754640EA5C005B084FEAE3
:100E70003202B6EB020E75EB030E22BFB61A7546B0
:100E800040EA9C005B084FEA3202B6EB020E75EBBB
:100E9000030E22BFB61A754640EADC0055EA060E7C
:100EA00018D04FEA051545EA16754FEA06164FEABF
:100EB000C30343EA52734FEAC2025FEA1C1CC0D16B
:100EC00011F4801F0BD141EA00014FF000004FF0F8
:100ED000004CB6E711F4801F04BF01430020B4F1B9
:100EE000FD0C88BFBCF5E06F3FF6AFAEB5EB030C71
:100EF00004BFB6EB020C5FEA500C50F1000041EB6E
:100F0000045170BD0EF0004E4EEA113114EB5C043A
:100F1000C2BFD4EB0C0541EA045170BD41F480110D
:100F20004FF0000E013C90E645EA060E8DE60CEA15
:100F3000135594EA0C0F08BF95EA0C0F3FF43BAF32
:100F400094EA0C0F0AD150EA01347FF434AF95EAE9
:100F50000C0F7FF425AF104619462CE795EA0C0FCD
:100F600006D152EA03353FF4FDAE1046194622E79A
:100F700050EA410618BF52EA43067FF4C5AE50EA74
:100F800041047FF40DAF52EA43057FF4EBAE12E764
:100F90004FF0FF3C06E000BF4FF0010C02E000BF45
:100FA0004FF0010C4DF804CD4FEA410C7FEA6C5C28
:100FB0004FEA430C18BF7FEA6C5C1BD001B050EACB
:100FC000410C0CBF52EA430C91EA030F02BF90EAB6
:100FD000020F0020704710F1000F91EA030F58BF75
:100FE000994208BF90422CBFD8176FEAE37040F0D7
:100FF000010070474FEA410C7FEA6C5C02D150EA75
:10100000013C07D14FEA430C7FEA6C5CD6D152EA2F
:10101000033CD3D05DF8040B704700BF84461046F4
:1010200062468C461946634600E000BF01B5FFF7F3
:10103000B7FF002848BF10F1000F01BD4DF808EDC3
:10104000FFF7F4FF0CBF012000205DF808FB00BF94
:101050004DF808EDFFF7EAFF34BF012000205DF8EE
:1010600008FB00BF4DF808EDFFF7E0FF94BF01203B
:1010700000205DF808FB00BF4DF808EDFFF7CEFF3C
:1010800094BF012000205DF808FB00BF4DF808ED7B
:10109000FFF7C4FF34BF012000205DF808FB00BF4C
:1010A0004FEA410C7FEA6C5C02D150EA013C0AD164
:1010B0004FEA430C7FEA6C5C02D152EA033C02D156
:1010C0004FF0000070474FF0010070474FEA4102B7
:1010D00012F5001215D211D56FF47873B3EB62528A
:1010E00012D94FEAC12343F0004343EA505311F0B1
:1010F000004F23FA02F018BF404270474FF0000043
:10110000704750EA013005D111F0004008BF6FF080
:10111000004070474FF00000704700BF4FF0D843C9
:10112000A3F87E0070474FF0D843A3F880007047C3
:101130004FF0D843B3F8800080B2704710B50C462A
:10114000FFF7ECFF2046FFF7EEFF10BD034B1A89B7
:101150004FF0D843A3F87E20704700BFDC09002081
:101160000E4B5A8845F210339A4200D0704770B542
:1011700005460C46094E7089FFF7D0FF280AFFF795
:10118000D2FFE8B2FFF7CFFFB089FFF7C7FF200A11
:10119000FFF7C9FFE0B2FFF7C6FF70BDDC09002012
:1011A00038B505460A4B9C88DB8803FB04F4002114
:1011B0000846FFF7D5FFFFF7C9FF002304E04FF013
:1011C000D842A2F880500133A342F8D338BD00BF03
:1011D000DC0900202DE9F04107460E4614469846EA
:1011E000BDF818500BE04FF0D84EAEF880500CF11F
:1011F000010C1FFA8CFCA445F5D90136B6B2464560
:1012000007D831463846FFF7ABFFFFF79FFFBC46D4
:10121000F1E7BDE8F081000008B5FFF7A1FFFFF797
:1012200095FF034B1A884FF0D843A3F8802008BDE0
:10123000000000202DE9F04F83B08046A2EB000AA9
:101240008946A3EB010BBAF1000F0DDD01220092DC
:10125000BBF1000F14DD01230193DA451CDD564676
:1012600000252F462C461BE0BAF1000F05D0A0EB5D
:10127000020A4FF0FF320092EAE7CDF800A0E7E75C
:10128000BBF1000F05D0A1EB030B4FF0FF3301932F
:10129000E3E7CDF804B0E0E75E46E1E70134A4B24D
:1012A000731C9C4212DC1FFA89F11FFA88F0FFF7C9
:1012B000B3FF57445D44BE4202DABF1B009B984413
:1012C000AE42EBDAAD1B019B9944E7E703B0BDE802
:1012D000F08FF8B507460E4615461C460B46FFF73D
:1012E000A9FF23463A4631463846FFF7A3FF234677
:1012F0002A4621463846FFF79DFF23462A463146B7
:101300002846FFF797FFF8BD2DE9F04F85B08046DE
:101310000F4600925300C3F103030193002608E037
:10132000009AB31A9B000A33019919440191531E84
:101330000093009B9E4247DCB5B205EB080B1FFAF9
:101340008BFBBDF800403B1B9BB2029319465846ED
:10135000FFF762FF04EB080A1FFA8AFA7B1B9AB2B6
:10136000039211465046FFF757FF05EB07091FFA96
:1013700089F949465046FFF74FFF04EB070A1FFA69
:101380008AFA51465846FFF747FFA8EB0505ADB26C
:1013900051462846FFF740FFA8EB0404A4B2494693
:1013A0002046FFF739FF02992846FFF735FF0399DA
:1013B0002046FFF731FF0136019A002AB0DAB30068
:1013C00006331A440192B4E705B0BDE8F08F00007F
:1013D0002DE9F04F83B007468946904612F0070288
:1013E00018BF012202EBD8024FEA580111FB02F2AA
:1013F000D2B20192A3F1200B5FFA8BFB4C464FF067
:10140000000A4AE00BEB4B032E4A02EB830313F86E
:101410000A50002624E02C4B03EB0B1313F80A5060
:10142000F7E70BEBCB03294A02EB830313F80A50CF
:10143000EFE70BF12001264802F042F807E02146D1
:101440003846FFF7E9FE10E0224802F09BF803B0AF
:10145000BDE8F08F204802F095F8F8E70136F6B2C3
:10146000072E16D815F0800FE9D16D00EDB20134CA
:10147000A4B21A4BDB88A342E6D9A4EB0903434587
:10148000ECD10137BFB2154B9B88BB42E2D94C4629
:10149000E4E70AF1010A5FFA8AFA019B9A45D6D27B
:1014A000B8F10C0FAED0B8F1100FB4D0B8F1180FDE
:1014B000B7D0B8F1200FBCD1094B03EBCB1313F815
:1014C0000A50A6E7C493000838980008289E000830
:1014D00070930008889300089C930008DC090020A2
:1014E00084AB0008F8B504460F4616461D4608E0D2
:1014F000324639462046FFF76BFF04EB5604A4B290
:1015000001352B78002BF3D1F8BD000010B5013860
:10151000062805D8DFE800F01206080A0C0E1000B5
:1015200000210CE040210AE0C02108E0202106E073
:10153000602104E0A02102E0E02100E080211A4BBC
:101540005A8845F210339A422CD00020FFF7F6FD5E
:10155000154C6089FFF7E2FD0020FFF7E4FD002055
:10156000FFF7E1FDA0880138C0F30F20FFF7DBFD96
:10157000A0880138C0B2FFF7D6FDA089FFF7CEFDE5
:101580000020FFF7D0FD0020FFF7CDFDE0880138F7
:10159000C0F30F20FFF7C7FDE0880138C0B2FFF7A6
:1015A000C2FD10BD3620D1E7DC09002008B5114B83
:1015B000187078B94FF4A0729A804FF4F072DA8004
:1015C0000C4B5A8845F210339A420BD00020FFF79B
:1015D0009DFF08BD074B4FF4F0729A804FF4A07244
:1015E000DA80EDE7034B2C221A812A225A812B2222
:1015F0009A81EBE7DC09002010B500F02CF80146D9
:101600000D4C60800D4801F05BFF628845F210339D
:101610009A420DD00020FFF7C9FF01224FF400418C
:10162000074801F049F94FF6FF70FFF7B9FD10BD0B
:1016300000F032F8EEE700BFDC090020B4930008A8
:101640000004024082B00190019B5A1E0192002BBF
:10165000FAD102B0704710B5D420FFF75FFD4FF408
:10166000A040FFF7EFFFFFF763FD4FF4A040FFF747
:10167000E9FFFFF75DFD4FF4A040FFF7E3FFFFF741
:1016800057FD0402A4B24FF4A040FFF7DBFFFFF7C1
:101690004FFD204380B210BD08B5ED20FFF73EFDA1
:1016A0000120FFF740FDFE20FFF73DFDEE20FFF794
:1016B00035FDDE20FFF737FD2120FFF734FDF12057
:1016C000FFF72CFD0120FFF72EFDDF20FFF726FDA1
:1016D0001020FFF728FDC420FFF720FD8F20FFF723
:1016E00022FDC620FFF71AFD0020FFF71CFDE220B7
:1016F000FFF719FDE220FFF716FDE220FFF713FDCB
:10170000BF20FFF70BFDAA20FFF70DFDB020FFF76C
:1017100005FD0D20FFF707FDB120FFF7FFFC80203E
:10172000FFF701FD8B20FFF7FEFC9620FFF7FBFC87
:10173000B220FFF7F3FC0020FFF7F5FC0220FFF7D3
:10174000F2FC0320FFF7EFFCB320FFF7E7FC0020DB
:10175000FFF7E9FCB420FFF7E1FC8B20FFF7E3FC87
:10176000B520FFF7DBFC0220FFF7DDFC0320FFF7CD
:10177000DAFCB620FFF7D2FC0020FFF7D4FC0020F3
:10178000FFF7D1FC0020FFF7CEFC0020FFF7CBFCD9
:101790000020FFF7C8FC0020FFF7C5FCB720FFF7CB
:1017A000BDFC0020FFF7BFFCB820FFF7B7FC00200E
:1017B000FFF7B9FCC120FFF7B1FC2020FFF7B3FC15
:1017C0005420FFF7B0FCC220FFF7A8FC0A20FFF767
:1017D000AAFC0420FFF7A7FCC320FFF79FFC3C20D6
:1017E000FFF7A1FCC420FFF799FC6220FFF79BFCE8
:1017F000C520FFF793FC3220FFF795FC4420FFF74C
:1018000092FC6520FFF78FFC7620FFF78CFCC6204A
:10181000FFF784FC0020FFF786FC2020FFF783FC05
:101820001720FFF780FC0120FFF77DFCE020FFF789
:1018300075FC1620FFF777FC0020FFF774FC1C20D6
:10184000FFF771FC0020FFF76EFC2120FFF76BFC17
:101850000020FFF768FC3620FFF765FC0020FFF74B
:1018600062FC4620FFF75FFC0020FFF75CFC522083
:10187000FFF759FC0020FFF756FC6420FFF753FCEC
:101880000020FFF750FC7A20FFF74DFC0020FFF707
:101890004AFC8B20FFF747FC0020FFF744FC99200F
:1018A000FFF741FC0020FFF73EFCA820FFF73BFCC0
:1018B0000020FFF738FCB920FFF735FC0020FFF7C8
:1018C00032FCC420FFF72FFC0020FFF72CFCCA20BD
:1018D000FFF729FC0020FFF726FCD220FFF723FCAE
:1018E0000020FFF720FCD920FFF71DFC0020FFF7A8
:1018F0001AFCE020FFF717FC0020FFF714FCF32090
:10190000FFF711FC0020FFF70EFCE120FFF706FCBB
:101910001620FFF708FC0020FFF705FC1C20FFF74E
:1019200002FC0020FFF7FFFB2220FFF7FCFB00205A
:10193000FFF7F9FB3620FFF7F6FB0020FFF7F3FB7C
:101940004520FFF7F0FB0020FFF7EDFB5220FFF7EB
:10195000EAFB0020FFF7E7FB6420FFF7E4FB002031
:10196000FFF7E1FB7A20FFF7DEFB0020FFF7DBFB50
:101970008B20FFF7D8FB0020FFF7D5FB9920FFF75E
:10198000D2FB0020FFF7CFFBA820FFF7CCFB002005
:10199000FFF7C9FBB920FFF7C6FB0020FFF7C3FB29
:1019A000C420FFF7C0FB0020FFF7BDFBCA20FFF7F4
:1019B000BAFB0020FFF7B7FBD220FFF7B4FB0020F3
:1019C000FFF7B1FBD820FFF7AEFB0020FFF7ABFB22
:1019D000E020FFF7A8FB0020FFF7A5FBF320FFF7AF
:1019E000A2FB0020FFF79FFBE220FFF797FB0520FB
:1019F000FFF799FB0020FFF796FB0B20FFF793FB07
:101A00000020FFF790FB1B20FFF78DFB0020FFF766
:101A10008AFB3420FFF787FB0020FFF784FB44207C
:101A2000FFF781FB0020FFF77EFB4F20FFF77BFBDA
:101A30000020FFF778FB6120FFF775FB0020FFF720
:101A400072FB7920FFF76FFB0020FFF76CFB88200B
:101A5000FFF769FB0020FFF766FB9720FFF763FBAA
:101A60000020FFF760FBA620FFF75DFB0020FFF7DB
:101A70005AFBB720FFF757FB0020FFF754FBC220AB
:101A8000FFF751FB0020FFF74EFBC720FFF74BFB92
:101A90000020FFF748FBD120FFF745FB0020FFF7B0
:101AA00042FBD620FFF73FFB0020FFF73CFBDD2089
:101AB000FFF739FB0020FFF736FBF320FFF733FB7E
:101AC0000020FFF730FBE320FFF728FB0520FFF79E
:101AD0002AFB0020FFF727FB0A20FFF724FB00204A
:101AE000FFF721FB1C20FFF71EFB0020FFF71BFB6D
:101AF0003320FFF718FB0020FFF715FB4420FFF70A
:101B000012FB0020FFF70FFB5020FFF70CFB00201B
:101B1000FFF709FB6220FFF706FB0020FFF703FB3E
:101B20007820FFF700FB0020FFF7FDFA8820FFF781
:101B3000FAFA0020FFF7F7FA9720FFF7F4FA0020EF
:101B4000FFF7F1FAA620FFF7EEFA0020FFF7EBFA15
:101B5000B720FFF7E8FA0020FFF7E5FAC220FFF709
:101B6000E2FA0020FFF7DFFAC720FFF7DCFA0020D7
:101B7000FFF7D9FAD120FFF7D6FA0020FFF7D3FA02
:101B8000D520FFF7D0FA0020FFF7CDFADD20FFF7D0
:101B9000CAFA0020FFF7C7FAF320FFF7C4FA0020C3
:101BA000FFF7C1FAE420FFF7B9FA0120FFF7BBFA0B
:101BB0000020FFF7B8FA0120FFF7B5FA0020FFF781
:101BC000B2FA0220FFF7AFFA0020FFF7ACFA2A20A2
:101BD000FFF7A9FA0020FFF7A6FA3C20FFF7A3FAC7
:101BE0000020FFF7A0FA4B20FFF79DFA0020FFF737
:101BF0009AFA5D20FFF797FA0020FFF794FA742015
:101C0000FFF791FA0020FFF78EFA8420FFF78BFA96
:101C10000020FFF788FA9320FFF785FA0020FFF7EE
:101C200082FAA220FFF77FFA0020FFF77CFAB320A8
:101C3000FFF779FA0020FFF776FABE20FFF773FA74
:101C40000020FFF770FAC420FFF76DFA0020FFF7BD
:101C50006AFACD20FFF767FA0020FFF764FAD32075
:101C6000FFF761FA0020FFF75EFADD20FFF75BFA6D
:101C70000020FFF758FAF320FFF755FA0020FFF78E
:101C800052FAE520FFF74AFA0020FFF74CFA00204D
:101C9000FFF749FA0020FFF746FA0020FFF743FA62
:101CA0000220FFF740FA0020FFF73DFA2920FFF756
:101CB0003AFA0020FFF737FA3C20FFF734FA002009
:101CC000FFF731FA4B20FFF72EFA0020FFF72BFA2F
:101CD0005D20FFF728FA0020FFF725FA7420FFF7B0
:101CE00022FA0020FFF71FFA8420FFF71CFA0020D9
:101CF000FFF719FA9320FFF716FA0020FFF713FAFF
:101D0000A220FFF710FA0020FFF70DFAB320FFF72B
:101D10000AFA0020FFF707FABE20FFF704FA0020B6
:101D2000FFF701FAC420FFF7FEF90020FFF7FBF9E7
:101D3000CD20FFF7F8F90020FFF7F5F9D320FFF7E2
:101D4000F2F90020FFF7EFF9DC20FFF7ECF90020B3
:101D5000FFF7E9F9F320FFF7E6F90020FFF7E3F9D1
:101D6000E620FFF7DBF91120FFF7DDF90020FFF790
:101D7000DAF93420FFF7D7F90020FFF7D4F956201D
:101D8000FFF7D1F90020FFF7CEF97620FFF7CBF966
:101D90000020FFF7C8F97720FFF7C5F90020FFF70B
:101DA000C2F96620FFF7BFF90020FFF7BCF98820D1
:101DB000FFF7B9F90020FFF7B6F99920FFF7B3F95B
:101DC0000020FFF7B0F9BB20FFF7ADF90020FFF7C7
:101DD000AAF99920FFF7A7F90020FFF7A4F96620D8
:101DE000FFF7A1F90020FFF79EF95520FFF79BF9B7
:101DF0000020FFF798F95520FFF795F90020FFF72D
:101E000092F94520FFF78FF90020FFF78CF9432066
:101E1000FFF789F90020FFF786F94420FFF783F9DF
:101E20000020FFF780F9E720FFF778F93220FFF76D
:101E30007AF90020FFF777F95520FFF774F90020B1
:101E4000FFF771F97620FFF76EF90020FFF76BF9C5
:101E50006620FFF768F90020FFF765F96720FFF7B4
:101E600062F90020FFF75FF96720FFF75CF90020B7
:101E7000FFF759F98720FFF756F90020FFF753F9CC
:101E80009920FFF750F90020FFF74DF9BB20FFF72D
:101E90004AF90020FFF747F99920FFF744F900209D
:101EA000FFF741F97720FFF73EF90020FFF73BF9F4
:101EB0004420FFF738F90020FFF735F95620FFF7E7
:101EC00032F90020FFF72FF92320FFF72CF900202B
:101ED000FFF729F93320FFF726F90020FFF723F950
:101EE0004520FFF720F90020FFF71DF9E820FFF754
:101EF00015F90020FFF717F90020FFF714F99920D2
:101F0000FFF711F90020FFF70EF98720FFF70BF913
:101F10000020FFF708F98820FFF705F90020FFF7F8
:101F200002F97720FFF7FFF80020FFF7FCF86620A2
:101F3000FFF7F9F80020FFF7F6F88820FFF7F3F82D
:101F40000020FFF7F0F8AA20FFF7EDF80020FFF7D8
:101F5000EAF8BB20FFF7E7F80020FFF7E4F8992044
:101F6000FFF7E1F80020FFF7DEF86620FFF7DBF867
:101F70000020FFF7D8F85520FFF7D5F80020FFF72D
:101F8000D2F85520FFF7CFF80020FFF7CCF8442017
:101F9000FFF7C9F80020FFF7C6F84420FFF7C3F8A1
:101FA0000020FFF7C0F85520FFF7BDF80020FFF72D
:101FB000BAF80020FFF7B2F8AA20FFF7B4F83A20E9
:101FC000FFF7ACF85520FFF7AEF81120FFF7A6F8A1
:101FD000642000F00DFB2920FFF7A0F83520FFF763
:101FE0009DF80020FFF79FF85120FFF797F8FF209A
:101FF000FFF799F85320FFF791F82C20FFF793F89B
:102000005520FFF78BF88220FFF78DF82C20FFF783
:1020100085F808BD00B583B001904FF6FF7301222B
:1020200001A9034801F0BBF8019803B05DF804FB77
:10203000440A00202DE9F04186B000230193029369
:10204000039304930593224B1B6813B106B0BDE8BC
:10205000F0811F4B01221A60002600961D4B9A6BDF
:1020600042F001029A639B6B03F001030093009B13
:102070004FF48058CDF80480022702970325049579
:102080000C24059401A9144800F024FB4FF680733A
:102090000193029703960495059401A90F4800F057
:1020A00019FB4CF233730193029703960495059440
:1020B00001A90B4800F00EFBCDF8048002970396AF
:1020C0000495059401A9074800F004FBBEE700BF92
:1020D000EC090020003802400014024000100240C9
:1020E000000C02400018024010B58EB00023079388
:1020F000089309930A930B930C930D930093019308
:10210000029303930493059306931A484FF02042D9
:10211000026002F58272426006218160C360036141
:10212000102242618361C361036243624FF48054B1
:102130008462C3624FF480440463436383634364F3
:10214000012307930F23089309910A930B921121FE
:102150000C910193042402940393049205916A461E
:1021600007A900F0F5FE08B90EB010BD00F082F826
:10217000FAE700BFF009002008B5FFF75BFF08BDD4
:10218000F0B58DB000240794089409940A940B9438
:102190000094354B1A6B42F020021A631A6B02F05E
:1021A00020020092009A01941A6B42F080021A6396
:1021B0001A6B02F080020192019A02941A6B42F0AB
:1021C00010021A631A6B02F010020292029A039430
:1021D0001A6B42F002021A631A6B02F002020392B7
:1021E000039A04941A6B42F008021A631A6B02F005
:1021F00008020492049A05941A6B42F001021A63D1
:102200001A6B02F001020592059A06941A6B42F0CD
:1022100040021A631B6B03F040030693069B134FA7
:1022200022464FF40071384600F046FB104D22461E
:102230004FF40041284600F03FFB4FF40073079332
:102240000126089609940A9407A9384600F042FA34
:102250004FF400430793089609940A9407A9284667
:1022600000F038FA0DB0F0BD003802400014024012
:102270000004024072B6FEE700B595B0302200219E
:1022800008A801F0CBF80023039304930593069369
:1022900007930193204A116C41F080511164126C34
:1022A00002F080520192019A02931C4B1A6842F488
:1022B00080421A601B6803F480430293029B01234F
:1022C00008934FF48033099302220E924FF4800357
:1022D0000F9304231093A82111911292139308A82D
:1022E00000F0FAFA98B90F23039302230493002312
:1022F00005934FF4A05306934FF4805307930521A1
:1023000003A800F04FFD20B915B05DF804FBFFF7FE
:10231000B1FFFFF7AFFF00BF003802400070004080
:1023200000B583B000F038F9FFF7A6FFFFF728FFEC
:10233000FFF7DAFE00F0B6F8FFF75EF91F2300930F
:10234000C8231A460A210846FEF744FFFA2314223E
:102350004FF496710A20FEF76DFF4FF4AF73FA2227
:102360004FF496710A20FEF7B4FF1E224FF4B971A4
:102370003220FEF7C9FF084B182264213220FFF7F4
:10238000B1F84FF40071054800F09CFA4FF47A70F0
:1023900000F02EF9F5E700BF04DB0008001402404E
:1023A00082B0002100910B4B5A6C42F480425A6477
:1023B0005A6C02F480420092009A01911A6C42F029
:1023C00080521A641B6C03F080530193019B02B08E
:1023D000704700BF00380240FEE7FEE7FEE7FEE779
:1023E000FEE770477047704708B500F0EFF808BD8A
:1023F0000120704708B500F0E7FF162303604FF097
:10240000FF3008BD08B54FF0FF31FFF7F3FFFEE7DF
:1024100070B50C461646002506E0AFF30080214655
:1024200001F8010B01350C46B542F6DB304670BDB4
:1024300070B50C461646002504E014F8010BFFF7B2
:10244000E9FD0135B542F8DB304670BD08B50346FD
:102450000B4A126842B10A4A106803446A46934222
:1024600006D8074A136008BD054A06491160F2E71D
:1024700000F0AAFF0C2303604FF0FF30F3E700BF2A
:10248000400A0020D80A00204FF0FF3070474FF478
:1024900000534B60002070470120704700207047B8
:1024A0007047000008B50A480A4B03604FF4E13357
:1024B000436000238360C36003610C224261836137
:1024C000C36100F03DFE00B908BDFFF7D3FEFBE796
:1024D000440A00200010014000B589B00023039396
:1024E0000493059306930793026803F1804303F571
:1024F00088339A4202D009B05DF804FB00210191B3
:1025000003F594335A6C42F010025A645A6C02F08C
:1025100010020192019A02911A6B42F001021A63B1
:102520001B6B03F001030293029B4FF4C063039300
:1025300002230493032306930723079303A9024866
:1025400000F0C8F8D7E700BF0000024010B504460D
:102550000E4B18784FF47A73B3FBF0F30C4A106803
:10256000B0FBF3F000F0A2F868B90F2C01D90120FC
:102570000AE0002221464FF0FF3000F05FF8054BE3
:102580001C60002000E0012010BD00BF08000020FA
:10259000040000200C00002008B50B4B1A6842F420
:1025A00000721A601A6842F480621A601A6842F473
:1025B00080721A60032000F02FF80F20FFF7C6FF8B
:1025C000FFF7EEFE002008BD003C0240034A116800
:1025D000034B1B780B441360704700BF880A002030
:1025E00008000020014B1868704700BF880A0020CF
:1025F00038B50446FFF7F6FF0546B4F1FF3F02D0B9
:10260000044B1B781C44FFF7EDFF401BA042FAD39C
:1026100038BD00BF08000020074AD36823F4E063F8
:102620001B041B0C000200F4E060034343F0BF6393
:1026300043F40033D360704700ED00E000B5194B60
:10264000DB68C3F30223C3F1070CBCF1040F28BFFE
:102650004FF0040C03F1040EBEF1060F18D9033B32
:102660004FF0FF3E0EFA0CFC21EA0C0199400EFAE5
:1026700003F322EA0303194300280BDB0901C9B263
:1026800000F1604000F5614080F800135DF804FB44
:102690000023E5E700F00F000901C9B2024B19540D
:1026A000F4E700BF00ED00E014ED00E00138B0F108
:1026B000807F0BD24FF0E0235861054AF02182F869
:1026C00023100020986107221A617047012070478B
:1026D00000ED00E000230F2B00F2E48070B582B023
:1026E00060E085685E000324B44025EA0405CC68F8
:1026F000B4402C438460456825EA02054C68C4F365
:1027000000129A402A4342605AE0DC08083450F82C
:10271000246003F0070295000F22AA4026EA020E69
:102720000A69AA4042EA0E0240F824205CE007222F
:1027300000E0002202FA0EF22A4302345A4D45F814
:1027400024205A4A94686FEA0C0224EA0C054E6869
:1027500016F4801F01D04CEA0405544CA560E468CF
:1027600002EA04054E6816F4001F01D04CEA040585
:102770004E4CE560646802EA04054E6816F4003FBA
:1027800001D04CEA0405494C6560246822404D683C
:1027900015F4803F01D04CEA0402444C226001331E
:1027A0000F2B7DD801229A400C6804EA020C32EA11
:1027B0000404F4D14C6804F00304013C012C90D9CA
:1027C0004A6802F00302032A09D0C4685D000322AC
:1027D000AA4024EA02048A68AA402243C2604A68E6
:1027E00002F00302022A90D004684FEA430E03224B
:1027F00002FA0EF224EA02044A6802F0030202FA24
:102800000EF2224302604A6812F4403FC7D0002211
:102810000192274A546C44F480445464526C02F48C
:1028200080420192019A9C08A51C1F4A52F825502B
:1028300003F003024FEA820E0F2202FA0EF225EA9B
:1028400002051C4A90423FF474AF02F58062904248
:102850001AD002F58062904218D002F58062904250
:1028600016D002F58062904214D002F58062904248
:1028700012D002F58062904210D002F58062904240
:102880003FF455AF082255E7012253E7022251E7F2
:1028900003224FE704224DE705224BE7062249E7D2
:1028A00002B070BD704700BF00380140003C0140DD
:1028B00000380240000002400AB1816170470904FB
:1028C00081617047436901EA030221EA030141EA99
:1028D0000241816170470000002800F0E08170B57E
:1028E00082B00446036813F0010F3BD09F4B9B68F6
:1028F00003F00C03042B2CD09C4B9B6803F00C03BF
:10290000082B21D06368B3F5803F4FD0B3F5A02FDB
:1029100052D0964B1A6822F480321A601A6822F458
:1029200080221A606368002B50D0FFF75BFE0546DB
:102930008E4B1B6813F4003F14D1FFF753FE401B6E
:102940006428F5D90320B1E1884B5B6813F4800F4C
:10295000D8D0864B1B6813F4003F03D06368002B6C
:1029600000F09F81236813F0020F54D07F4B9B68C7
:1029700013F00C0F3ED07D4B9B6803F00C03082B2B
:1029800033D0E368002B68D0794B01221A60FFF73F
:1029900029FE0546754B1B6813F0020F54D1FFF753
:1029A00021FE401B0228F5D903207FE16F4A1368FE
:1029B00043F480331360B5E76C4B1A6842F480220D
:1029C0001A601A6842F480321A60ABE7FFF70AFE19
:1029D0000546664B1B6813F4003FC3D0FFF702FEA9
:1029E000401B6428F5D9032060E1604B5B6813F459
:1029F000800FC6D15D4B1B6813F0020F03D0E36854
:102A0000012B40F05081594A136823F0F8032169E3
:102A100043EAC1031360236813F0080F42D06369CF
:102A20006BB3534B0122C3F8802EFFF7DBFD054645
:102A30004E4B5B6F13F0020F34D1FFF7D3FD401BF9
:102A40000228F5D9032031E1484A136823F0F8033E
:102A5000216943EAC1031360DDE7454B00221A6098
:102A6000FFF7C0FD0546414B1B6813F0020FD2D0A3
:102A7000FFF7B8FD401B0228F5D9032016E13C4BB7
:102A80000022C3F8802EFFF7ADFD0546374B5B6F84
:102A900013F0020F06D0FFF7A5FD401B0228F5D961
:102AA000032003E1236813F0040F77D02F4B1B6C36
:102AB00013F0805F33D1002301932C4B1A6C42F04A
:102AC00080521A641B6C03F080530193019B012513
:102AD000284B1B6813F4807F23D0A368012B34D0CC
:102AE000052B38D0214B1A6F22F001021A671A6F9A
:102AF00022F004021A67A368002B3DD0FFF772FD95
:102B000006461A4B1B6F13F0020F46D1FFF76AFD02
:102B1000801B41F288339842F3D90320C6E0002598
:102B2000D6E7144A136843F480731360FFF75AFD25
:102B30000646104B1B6813F4807FCED1FFF752FD81
:102B4000801B0228F5D90320B0E0084A136F43F038
:102B500001031367CFE7054B1A6F42F004021A67AF
:102B60001A6F42F001021A67C5E700BF0038024041
:102B70000000474200700040FFF734FD0646524B0C
:102B80001B6F13F0020F08D0FFF72CFD801B41F2E2
:102B900088339842F3D9032088E0EDB9A369002B6C
:102BA00000F08380484A926802F00C02082A51D053
:102BB000022B17D0454B00221A66FFF713FD04467F
:102BC000414B1B6813F0007F42D0FFF70BFD001B49
:102BD0000228F5D9032069E03B4A136C23F08053A7
:102BE0001364DBE7394B00221A66FFF7FBFC05464E
:102BF000354B1B6813F0007F06D0FFF7F3FC401B3A
:102C00000228F5D9032051E0E369226A1343626A7E
:102C100043EA8213A26A5208013A43EA0243E26A93
:102C200043EA0263284A5360284B01221A66FFF7E1
:102C3000D9FC0446244B1B6813F0007F06D1FFF734
:102C4000D1FC001B0228F5D903202FE000202DE045
:102C500000202BE0012B2BD01B4B5B6803F4800181
:102C6000E269914226D103F03F02216A8A4223D1D0
:102C7000616A47F6C0721A40B2EB811F1ED103F49D
:102C80004031A26A5208013AB1EB024F18D103F069
:102C90007063E26AB3EB026F14D1002006E00120FA
:102CA0007047012002E0012000E0002002B070BD6A
:102CB0000120FBE70120F9E70120F7E70120F5E714
:102CC0000120F3E70120F1E700380240000047420D
:102CD00008B5314B9B6803F00C03042B57D0082B2D
:102CE00057D12D4B5A6802F03F025B6813F4800FF6
:102CF0002AD0294B5968C1F3881C4FEA4C11B1EB1B
:102D00000C006EEB0E0E4FEA8E1343EA90638101C6
:102D1000091A63EB0E03DB0043EA5173C90011EBA0
:102D20000C0C43F10003590200234FEA4C2041EA06
:102D3000DC51FDF765FA184B5B68C3F301430133BF
:102D40005B00B0FBF3F025E0134B5968C1F3881C1E
:102D50004FEA4C11B1EB0C006EEB0E0E4FEA8E13E6
:102D600043EA90638101091A63EB0E03DB0043EA37
:102D70005173C90011EB0C0C43F1000399020023BD
:102D80004FEA8C2041EA9C51FDF73AFAD3E7034819
:102D900000E0034808BD00BF0038024000127A007E
:102DA0000024F400002800F09B8070B50D46044616
:102DB0004F4B1B6803F007038B4208D2CBB24C4A3F
:102DC0001370136803F007038B4240F08B80236875
:102DD00013F0020F17D013F0040F04D0454A936884
:102DE00043F4E0539360236813F0080F04D0414A82
:102DF000936843F4604393603E4A936823F0F00382
:102E0000A1680B439360236813F0010F32D063680D
:102E1000012B21D09A1E012A25D9364A126812F0B8
:102E2000020F61D033498A6822F0030213438B609A
:102E3000FFF7D8FB06462F4B9B6803F00C03626834
:102E4000B3EB820F16D0FFF7CDFB801B41F2883326
:102E50009842F0D9032042E0264A126812F4003F5B
:102E6000E0D101203BE0234A126812F0007FD9D163
:102E7000012034E01E4B1B6803F00703AB4207D967
:102E8000EAB21B4B1A701B6803F00703AB422DD14B
:102E9000236813F0040F06D0164A936823F4E05316
:102EA000E1680B439360236813F0080F07D0114AC1
:102EB000936823F46043216943EAC1039360FFF7F9
:102EC00007FF0C4B9B68C3F303130B4AD35CD8403A
:102ED0000A4B18600A4B1868FFF738FB002070BDDA
:102EE000012070470120FAE70120F8E70120F6E70A
:102EF000003C02400038024014DB000804000020BF
:102F00000C000020014B1868704700BF040000202F
:102F100008B5FFF7F7FF044B9B68C3F38223034A0E
:102F2000D35CD84008BD00BF0038024024DB000855
:102F300008B5FFF7E7FF044B9B68C3F34233034A2E
:102F4000D35CD84008BD00BF0038024024DB000835
:102F500040B370B50E461546044690F84930E3B1CB
:102F6000214651F8080B00F087F9A2683146206825
:102F700000F0B6F9236BA2682946606800F0D8F922
:102F80002268A16852F8213043F0010342F8213051
:102F9000012384F84930002070BD80F84830FFF7E5
:102FA000EBF8DDE70120704738B504460268136985
:102FB00023F44053C1680B431361836802691343D0
:102FC00042691343C2691A430168CB6823F416436C
:102FD00023F00C031343CB600268536923F440735E
:102FE00081690B4353610368314A934206D002F56D
:102FF0008062934202D0FFF78BFF01E0FFF798FF5A
:10300000E369B3F5004F29D00021031849411B188B
:1030100041F10001C90041EA5371DB0018186368EF
:103020004FEA83024FEA937341F10001FDF7E8F89C
:10303000204DA5FB00325109642303FB11031B0142
:103040003233A5FB03235B0903F0F00202EB01120C
:1030500003F00F03216813448B6038BD002302186E
:1030600043EB0301121841F10001C90041EA52711A
:10307000D200101841F10001626892185B41FDF71F
:10308000BFF80C4DA5FB00325109642303FB11036B
:10309000DB003233A5FB03235B095A0002F4F8720C
:1030A00002EB011203F00703216813448B60D4E79D
:1030B000001001401F85EB512DE9F84305460F46EE
:1030C00016469946DDF820802C68246837EA040308
:1030D0000CBF4FF0010C4FF0000CB4452DD1B8F1EE
:1030E000FF3FF1D0B8F1000F05D0FFF77BFAA0EB5E
:1030F00009004045E8D92A6802F10C0353E8003F73
:1031000023F4D0730C3242E800310029F3D12A684D
:1031100002F1140353E8003F23F00103143242E8A4
:1031200000310029F3D1202385F83D3085F83E3069
:10313000002385F83C30032000E00020BDE8F88340
:1031400058B310B5044690F83D300BB3242384F8EF
:103150003D302268D36823F40053D3602046FFF744
:1031600023FF2268136923F4904313612268536993
:1031700023F02A0353612268D36843F40053D360D9
:1031800000202064202384F83D3084F83E3010BDB8
:1031900080F83C30FFF7A0F9D8E7012070472DE90F
:1031A000F04182B01E4690F83D30DBB2202B54D166
:1031B00004460D469046002953D0002A53D090F87B
:1031C0003C30012B51D0012380F83C3000230364B4
:1031D000212380F83D30FFF705FA0746A4F8248044
:1031E000A4F82680A368B3F5805F05D04FF00008EF
:1031F000002384F83C3012E0236913B14FF000083B
:10320000F6E7A8460025F3E738F8023B2268C3F347
:1032100008035360E28C92B2013A92B2E284E38CEA
:103220009BB273B100963B46002280212046FFF7F7
:1032300043FFE0B9002DE7D015F8012B23685A6051
:10324000E8E700963B46002240212046FFF734FF86
:1032500078B9202384F83D3000E0022002B0BDE8B8
:10326000F0810120FAE70120F8E70220F6E70320C9
:10327000F4E70320F2E7000010B40A6850F82230A7
:1032800023F0010340F822308B68082B24D000245F
:103290004A6822431343CA6813430A6913434A69BD
:1032A0001343CA6913430A6A13434A6A13438A6A77
:1032B0001343CA6A13430A6B13438A691343CA6BE5
:1032C0001343096850F82140044A22401A4340F849
:1032D0002120002010BC70474024D9E78000F0FF77
:1032E00000B5013250F8223003F0404C0B68D1F8A1
:1032F00004E043EA0E13D1F808E043EA0E23D1F8C4
:103300000CE043EA0E43D1F810E00EF1FF3E43EA31
:103310000E53D1F814E0AEF1020E43EA0E63896950
:103320000B434CEA030340F8223000205DF804FB15
:10333000B3F5804F05D06FF0704340F82230002085
:10334000704730B450F82230094C1C400B684D686F
:1033500043EA05138D6843EA05238D692B43C96849
:1033600043EA0143234340F82230002030BC704739
:103370000000F0CFDFF834D00D480E490E4A00238C
:1033800002E0D458C4500433C4188C42F9D30B4A19
:103390000B4C002301E013600432A242FBD3FFF781
:1033A0007FF800F017F8FEF7BBFF7047000002201F
:1033B00000000020C00900203CDF0008C0090020F8
:1033C000D40A0020FEE70000014B1868704700BFD8
:1033D0001000002070B50D4E0D4D761BB61006D0B6
:1033E000002455F8043B01349847A642F9D1094E10
:1033F000094D761B05F0B0FFB61006D0002455F835
:10340000043B01349847A642F9D170BD30DF000873
:1034100030DF000838DF000830DF0008830730B5F0
:1034200048D0541E002A3FD0CAB2034601E0013CF6
:103430003AD303F8012B9D07F9D1032C2DD9CDB236
:1034400045EA05250F2C45EA054536D9A4F11002B9
:1034500022F00F0C03F1200EE6444FEA121C03F198
:10346000100242E9045542E9025510327245F8D182
:103470000CF1010214F00C0F03EB021204F00F0C1C
:1034800013D0ACF1040323F003030433134442F8D4
:10349000045B9342FBD10CF003042CB1CAB21C4470
:1034A00003F8012B9C42FBD130BD64461346002C2F
:1034B000F4D1F9E703461446BFE71A46A446E0E70D
:1034C0000FB400B5074983B004AB086853F8042B68
:1034D0008168019300F05EF803B05DF804EB04B07E
:1034E000704700BF1000002070B5054688B0084640
:1034F0000C46FDF725F8224EAA6B059001214318D2
:10350000CDE9066104A8022104940393AC680190FC
:10351000029122B3636E13F0010FB4F90C309AB22A
:1035200001D1980525D5910406D4626E43F4005369
:1035300022F40052A3816266284601AA214603F0C4
:1035400003F9636E002814BF4FF0FF350A25DA0730
:1035500002D4A3899B0506D5284608B070BD28462D
:1035600002F0F4FED6E7A06D03F090FA284608B00A
:1035700070BDA06D03F088FAB4F90C309AB2D2E7AE
:10358000C0930008024B01461868FFF7ADBF00BFAB
:10359000100000202DE9F04FD5B01C460791914650
:1035A0000546099003F068FA0268179210460E94D7
:1035B000FCF7C6FF16901DB1AB6B002B00F02A8202
:1035C000079A536EDD0740F13881B2F90C2091B2B1
:1035D0008F0409D4079B42F400529A8191B21A4693
:1035E0005B6E23F4005353660E0740F1CB80079BBC
:1035F0001B69002B00F0C68001F01A030A2B00F0B3
:10360000CF8000242BAB4D46CDE92944CDE91944A8
:10361000CDE91B44129428939846189400230B94E8
:103620000024CDE914342B78002B00F09D81AA46AC
:1036300004E01AF8013F002B00F0C780252BF8D1D9
:10364000BAEB050640F0C5809AF80030002B00F078
:103650008B8100234FF0FF329AF801608DF88330A0
:103660000A930AF1010A08921F462B244FF0200901
:103670000AF1010AA6F120035A2B00F2ED80DFE8DF
:1036800013F0EB02EB00EB00E602EB00EB00EB00CB
:103690006A00EB00EB005C028002EB0067028A022A
:1036A000EB0085025B005B005B005B005B005B0086
:1036B0005B005B005B00EB00EB00EB00EB00EB0062
:1036C000EB00EB007A01EB00F801D2017A017A01FC
:1036D0007A01EB00EB00EB00EB00E102EB00EB000A
:1036E0002D02EB00EB00EB000202EB00A402EB006A
:1036F000EB008307EB00EB00EB00EB00EB00EB00D3
:10370000EB00EB007A01EB00F801D4017A017A01B9
:103710007A01C702D401CD01EB00D402EB006C02A8
:103720002F02B502CD01EB0002027E008007EB0004
:10373000EB006107EB007E00A6F1300300221AF8CF
:10374000016B02EB820203EB4202A6F13003092B6C
:10375000F5D90A928EE7DDF824B0584603F08CF9CB
:1037600043681B931846FCF7EBFE1C900646584630
:1037700003F082F983681993002E40F0CD869AF801
:10378000006075E7079D0998294601F0ADFC002807
:1037900041F01C83A98901F01A030A2B7FF431AF91
:1037A000079AB2F90E30002BFFF62BAF536ED807F5
:1037B00002D4890541F13B810799099823464A467D
:1037C00055B0BDE8F04F01F04FBCBAEB050600F074
:1037D000CB802A9B33442A93299B0133072BC8E9CA
:1037E0000056299305DC08F108080B9B33440B9322
:1037F0002AE70799099828AA04F086FB80B90DF1F9
:10380000AC08F2E70799099828AA04F07DFB002884
:1038100000F09B800D9B1BB10998194602F08EFEAB
:10382000079A536ED90740F1EA8093895B0601F14C
:10383000D9820B9855B0BDE8F08F079BB3F90C20E7
:10384000900591B23FF5C4AE1D46986D03F01CF98A
:10385000B5F90C2091B2BBE6002E00F08580002265
:103860008DF8EC608DF883200123CDE90C320693AE
:1038700008920F92139210923BAD17F0020302D000
:1038800006990231069117F0840B07D10A99069820
:10389000A1EB0009B9F1000F00F370832A9C8AB1F3
:1038A000299A0DF1830101320134C8F80010072A6A
:1038B0004FF001012A942992C8F8041000F3B6834E
:1038C00008F1080883B1299B21AA01330234C8F802
:1038D0000020072B4FF002022A942993C8F80420F5
:1038E00000F3B28308F10808BBF1800F00F0698291
:1038F000089B0C9AA3EB020BBBF1000F00F3AA820A
:10390000FB0500F100820C9BC8F804301C44299B85
:10391000C8F800500133072B2A94299300F322831F
:1039200008F10808780705D50A9B069A9D1A002D0C
:1039300000F39683DDE90A2306998A42ACBF9B18FF
:103940005B180B93002C7FF45DAF002329930D9B34
:103950001BB10D99099802F0F1FD0DF1AC08554627
:103960002B78002B7FF463AE2A9B002B41F0D38190
:103970000023299354E70E9B073323F00702F2E854
:103980000234CDE91434DDE9143424F000440E92FD
:10399000994618462146B54B4FF0FF32FDF780FBA4
:1039A000002840F0EF84B14B484621464FF0FF32EB
:1039B000FDF758FB002840F0E584DDE91401002202
:1039C0000023FDF745FB002840F067879DF8832022
:1039D000A74DA84B27F080070321472EC8BF1D46DF
:1039E00000230D9306910C9108930F93139310935A
:1039F000002A3FF442AF069B013306933DE7079B45
:103A00009B899A053FF512AF079CA06D03F03EF825
:103A1000A3890BE7099802F099FCD1E59AF80060B8
:103A200047F0200724E647F01007BA060E9B40F146
:103A30003B84073323F007031A465B6852F8084BB0
:103A40000E929946002BC0F24C84089B013300F083
:103A5000D88254EA090327F0800B40F0D382089BF8
:103A6000002B40F0D4825F46002308930C9354ADA2
:103A70001DE10E9B002253F8041B8DF883208DF866
:103A8000EC100E93F0E60E9C089B54F8045B4FF08C
:103A900000098DF88390002D00F093855A1C00F0EA
:103AA00051861A4649462846FCF7BAFD0D90002873
:103AB00001F00E810D9BCDF820905B1B0C930E94B2
:103AC00023EAE3739DF883200693CDF83490CDF874
:103AD0003C90CDF84C90CDF8409089E747F0100726
:103AE00017F0200900F0D2830E9B073323F0070361
:103AF000D3F8049053F8084B0E9327F4806B0023FF
:103B000000228DF88320089A511C00F0B88054EAF6
:103B100009012BF0800740F0B180002A40F0F685C3
:103B2000002BA1D11BF001030C9300F0148430236F
:103B30008DF84F310DF24F15B9E00E9B53F8042B61
:103B40000A92002A80F2DA830A9A0E9352420A926B
:103B50009AF8006047F004078AE5BD0600F1D184B9
:103B6000FC0600F1D885780600F1A586B90540F17C
:103B7000D2850E9B0B9953F8042B0E93117055466A
:103B8000EEE69AF800608DF8834071E59AF80060DF
:103B900047F080076CE5524612F8016B2A2E01F0BF
:103BA0003F82A6F13003092B924698BF002201F212
:103BB000BC801AF8016B02EB820203EB4202A6F111
:103BC0003003092BF5D9089254E547F0100B1BF090
:103BD000200900F076830E9B073323F00703D3F808
:103BE000049053F8084B0E93012389E70E9B53F87A
:103BF000044B0E93302378268DF884301E4B189397
:103C000047F0020B8DF885604FF00009022377E73B
:103C10009AF80060682E03BF9AF8016047F40077B5
:103C20000AF1010A47F0400722E59AF800606C2E7D
:103C300003BF9AF8016047F020070AF1010A47F034
:103C4000100715E59AF8006047F0080710E59AF8A4
:103C5000006047F001070BE59DF88330002B7FF4EF
:103C60008EAD9AF800608DF8839001E5FFFFEF7F3D
:103C700030DB000834DB000840DB0008BB46012BCA
:103C800000F0C081022B54AD20D1189A04F00F032C
:103C90002409D35C05F8013D44EA09744FEA191977
:103CA00054EA0903F2D154AB5B1B5F460C930899AD
:103CB0000C989DF8832081424FF00003B8BF014665
:103CC0000D9306910F931393109391E604F007035D
:103CD000E40844EA49744FEAD909303354EA090147
:103CE0002A4605F8013DF1D11BF0010FDBD0302B46
:103CF000D9D03023023A05F8013C54AB9B1A5F46F9
:103D00000C931546D3E7652E40F3E680DDE91401F8
:103D100000220023FDF792F9002800F0DC81299BA6
:103D2000BF4AC8F80020013301340122072B2A942E
:103D30002993C8F8042000F3CC8408F10808229BDA
:103D4000129A934280F2D682169B179A1C44C8E9B5
:103D50000023299B2A940133072B299300F3248401
:103D600008F10808129B5D1E002D7FF7DBAD102DBA
:103D7000299BDFF8B09240F3BD8449462246B946FC
:103D8000DDF824B0079C10260F4605E008F108086E
:103D9000103D102D40F3AA8401331032072BC8E9DF
:103DA0000076CDE92932F1DD28AA2146584604F0F3
:103DB000ABF800287FF42EADDDE929320DF1AC0817
:103DC000E6E70A9B069AA3EB020BBBF1000F7FF715
:103DD0008FADBBF1100F299ADFF848922CDD1D96AC
:103DE00021464E46079CDDF82490102306E0ABF1F7
:103DF000100BBBF1100F08F108081ADD0132103169
:103E0000072AC8E90063CDE92921F0DD28AA214667
:103E100048460DF1AC0804F077F800287FF4FAACBE
:103E2000ABF1100BBBF1100FDDE929214FF01003AE
:103E3000E4DCB1461D9E0C4601325C44072ACDE904
:103E40002924C8F80090C8F804B000F3A08308F152
:103E500008084DE5BBF1100F299ADFF8C8912DDD58
:103E600041462046A8464C46079DDDF82490102385
:103E700006E0ABF1100BBBF1100F01F1080119DDE9
:103E800001321030072AC1E90043CDE92920F0DDD5
:103E900028AA2946484604F037F800287FF4BAAC2F
:103EA000ABF1100BBBF1100FDDE929202BA94FF06E
:103EB0001003E5DC4546A1468846044601325C44D1
:103EC000072ACDE92924C8F80090C8F804B000F307
:103ED000D08108F1080813E5129B012B40F3808183
:103EE000299EC8F80050013601340123072E2A9478
:103EF0002996C8F8043000F37C8308F10808169B63
:103F0000179A01361C44072EC8E90023CDE929641D
:103F100000F37C8308F10808DDE914010022002386
:103F2000FDF78CF8002840F07881129B0136013BA8
:103F300001351C44072EC8F800502996C8F80430F3
:103F40002A9400F35D8108F108081A9BC8F8043030
:103F500001361C44072E24ABCDE92964C8F8003093
:103F60007FF7DEAC0799099828AA03F0CDFF002857
:103F70007FF450AC2A9C0DF1AC08D3E4B9F1100FDA
:103F8000DDE929212BDDCDE91D3B1F96DDF824B0AD
:103F90004E461024A946079D04E0103E102E08F15D
:103FA000080817DD0132204B1031072AC8E9003418
:103FB000CDE92921F1DD28AA294658460DF1AC08A2
:103FC00003F0A2FF00287FF425AC103E102EDDE99F
:103FD0002921E7DCDDE91D3B4D46B1461F9EC8F8AF
:103FE0000490013209EB0104072A0F49C8F80010B8
:103FF000CDE9292400F351839DF8832008F10808B6
:104000004DE4BB460A2C79F1000380F00C83303478
:1040100001238DF84F415F460C930DF24F1546E694
:1040200070DB000884DB000874DB0008079909983E
:104030001D9328AA03F068FF00287FF4EBAB2A9CAD
:104040001D9B0DF1AC083DE40799099828AA03F0DF
:104050005BFF00287FF4DEAB2A9C0DF1AC0843E443
:10406000102D299B21DD099FDDF81C90102604E00E
:10407000103D102D08F1080817DD0133BB4A10343C
:10408000072BC8E90026CDE92934F1DD28AA4946E5
:1040900038460DF1AC0803F037FF00287FF4BAABC7
:1040A000103D102DDDE92934E7DC0133AF4AC8F8B3
:1040B00004502C44072BCDE92934C8F800207FF7A1
:1040C00039AC0799099828AA03F01EFF00287FF44D
:1040D000A1AB2A9C2EE42299002940F31481DDF83B
:1040E0004090129B9945A8BF9946B9F1000F0BDD8E
:1040F000299B01334C44072BC8E900592A94299382
:1041000000F39A8508F10808109EB9F1000FA8BFC6
:10411000A6EB0906002E00F34683DDF840B07905D2
:10412000AB4400F1CE84229B129A934202DBFA0741
:1041300040F1B883169A17991444C8E90012299AD5
:104140002A940132072A299200F3838508F108088E
:10415000129AAE18A6EB0B06D51AAE42A8BF2E4691
:10416000002E0DDD299BC8F800B001333444072B25
:10417000C8F804602A94299300F3F18508F108082F
:10418000002EA8BFAD1B002D7FF7CCAB102D299BB7
:10419000DFF8DC9140F3AE8249462246B946DDF8AD
:1041A00024B0079C10260F4605E008F10808103DD2
:1041B000102D40F39B8201331032072BC8E90076A3
:1041C000CDE92932F1DD28AA2146584603F09CFEAC
:1041D00000287FF41FABDDE929320DF1AC08E6E7DA
:1041E000FE073FF57DAE299EC8F800500136013428
:1041F0000123072E2A942996C8F804307FF7A3AE2E
:104200000799099828AA03F07FFE00287FF402ABE3
:10421000DDE929640DF1AC0897E6129B5D1E002DC7
:104220007FF793AE102DDFF8489140F37F8222464E
:104230000897099C079F4FF0100B05E008F108084C
:10424000103D102D40F3708201361032072EC8E960
:10425000009BCDE92962F1DD28AA3946204603F00A
:1042600053FE00287FF4D6AADDE929620DF1AC08DF
:10427000E6E70799099828AA03F046FE00287FF48C
:10428000C9AA2A9C0DF1AC08FFF73ABB17F010033E
:1042900072D117F0400200F0BD820E9A52F8044B22
:1042A0000E929946A4B228E453F8044B0E93FB06F1
:1042B00056D47D0651D544F3C0394B4624B2FFF79E
:1042C000C1BB1BF0100340F036811BF0400200F030
:1042D00092820E9A52F8044B0E929946A4B2012390
:1042E0000EE42D2364428DF8833069EB4909BB4607
:1042F000012308E4F8077FF515AB25E59AF800607F
:104300000E93FFF7B5B9299B1A4AC8F8002001336C
:1043100001340122072B2A942993C8F8042000F3C2
:10432000708408F10808002940F01E82129A07F0F4
:10433000010313433FF4F6AA169B1799E218C8E944
:104340000013299B2A920133072B299300F36183E1
:1043500008F1080819E254ADA9E4B80500F1B482E7
:104360004FEAE4794B46FFF76DBB00BF74DB0008F2
:1043700084DB000870DB00080E9B53F8044B0E939F
:10438000FFF7BBBBDDE9140102460B46FCF788FED4
:10439000002840F0A085612E00F05085412E00F0ED
:1043A0009982089B013326F02003069300F08F8545
:1043B000472B00F07985DDE9141247F480730F93E1
:1043C0001346002BC0F2ED850C9300231D938B4602
:1043D0000D93069B462B00F04A84452B00F04F8539
:1043E0000899019126A9049123A9039122A9029178
:1043F00002210C9B099800915A4600F081FF069B10
:10440000472B054640F01C8617F0010FB9460F9F59
:1044100040F0D984269B5B1B1293069B472B00F030
:104420001883069B462B00F05F84229B1093109B01
:10443000069A013B412A229300F0AA85F2B200219C
:10444000002BB8BF109B8DF89020BABFC3F10103B9
:104450002D222B22092B8DF8912040F363850DF13D
:104460009F04BD4F2246104687FB0321DA17C2EB9B
:10447000A10202EB8201A3EB4101303100F8011CE3
:1044800019466329134600F1FF32ECDC3033D9B210
:10449000831E9C4202F8011C40F2CE8513460DF1AA
:1044A000920201E013F8011B02F8011B9C42F9D1B2
:1044B0000DF1A1030DF192021B1A134424AA9B1AB9
:1044C0001A93129B1A9A012B1A440C9240F372858C
:1044D0000C9B169A13440C930C9A002329F48067C2
:1044E00022EAE27247F480770F93069213931093B7
:1044F0001D9B002B40F0DE829DF883200893FFF780
:1045000077BA0E9B0B9853F8041B0E93C217C1E9A0
:1045100000025546FFF724BA199B002B3FF42FA940
:10452000199B1B78002B3FF42AA99AF8006047F4E6
:104530008067FFF79DB80E9B53F8044B0E93012341
:10454000FFF7DEBA854B189317F0200949D00E9B70
:10455000073323F00703D3F8049053F8084B0E9366
:10456000F80709D554EA090306D030238DF8856091
:1045700047F002078DF8843027F4806B0223FFF7A1
:10458000BFBABB46FFF723BB754B1893DCE707990F
:10459000099828AA03F0B8FC00287FF43BA92A9CBC
:1045A0000DF1AC08FFF7A4B90799099828AA03F000
:1045B000ABFC00287FF42EA92A9C0DF1AC08FFF774
:1045C000D1BB062B294628BF062308950D952A4600
:1045D0000693644D0E940C930F9113911091FFF775
:1045E00007BA17F0100369D00E9B53F8044B0E93D3
:1045F000B6E70799099828AA03F086FC00287FF4FB
:1046000009A9DDE929640DF1AC0878E40799099856
:1046100028AA03F079FC00287FF4FCA8DDE92964CE
:104620000DF1AC0878E40BF480630022CDE90CA80E
:104630000696DDF8648054AF16469A460CE00023D7
:10464000204649460A22FBF7DBFD0A2C79F10003DC
:104650001BD3044689462F4620460A22002349469A
:10466000FBF7CEFD30327D1E013607F8012CBAF182
:10467000000FE4D098F800309E42E0D1FF2EDED04B
:104680000A2C79F1000380F0F480CDF86480129652
:10469000DDE90CA8069EFFF706BB079909981D9354
:1046A00028AA03F031FC00287FF4B4A89DF88320E9
:1046B0002A9C1D9B0DF1AC08FFF7F1B817F04002E2
:1046C00000F0B6800E9A52F8044B0E929946A4B2AE
:1046D00046E70799099828AA03F016FC00287FF4FA
:1046E00099A82A9C0DF1AC08FFF729BB14463A465D
:1046F0004F46914601332C44072BC8F80090C8F868
:104700000450CDE929347FF70BA92BE4012BBB46DC
:104710007FF4B8AA7BE40E9B0B9953F8042B554603
:1047200011600E93FFF71CB9089F144601362C4404
:10473000072ECDE92964C8F80090C8F804507FF727
:1047400002AC5DE52846CDF820900E94FBF7F8FE0C
:1047500003460C90FFF7B4B96766666640DB000855
:1047600054DB000868DB0008169B1798E218C8E9BC
:104770000003299B2A920133072B299300F34981D7
:1047800008F108080029C0F2FA821299C8F800500E
:1047900001338C18072BCDE92934C8F804107FF7B2
:1047A000BFA8FFF7DFBB102E299BDFF8C09252DDB8
:1047B000484642462146A846B946099C079D4FF007
:1047C000100B074603E00832103E102E3DDD01338A
:1047D0001031072BC2E9007BCDE92931F3DD28AA8E
:1047E0002946204603F090FB00287FF413A8DDE95A
:1047F00029312BAAE8E70E9B1BF4007914BF53F86C
:10480000044B53F8044B0E931CBF9146E4B20123B2
:10481000FFF776B90E9B17F4007914BF53F8044BD9
:1048200053F8044B0E931CBF9146E4B2FFF765B9F1
:104830000E9B17F4007914BF53F8044B53F8044B44
:104840000E931CBF9146E4B28AE6454690463A462E
:104850000C464F46914601333444072BCDE92934A9
:10486000C8F80090C8F8046000F3E68008F1080872
:1048700053E41C9B1B99ED1A1A46284603F0D6FAFE
:1048800098F801300BB108F10108204649460A2288
:1048900000230026FBF7B4FCDBE62D228DF88320F5
:1048A000FFF796B8129AAE18A6EB0B06D51AAE42D1
:1048B000A8BF2E4664E40E9B0B9953F8042B0E936D
:1048C00011805546FFF74CB844F3C0194B4664B20B
:1048D000FFF7B8B830238DF8843058238DF8853031
:1048E000089B632B47F0020400F39B8200230D9387
:1048F0003BADDDE9141247F481730F931346002B8F
:104900002746C0F220820C9326F020030693002352
:104910008B461D93612E00F0ED82412E7FF459AD40
:1049200022AA0C99584603F0F1F900224FF07F5368
:10493000FCF71CF902460B46CDE9102300220023A8
:10494000FCF77CFB08B101232293494B0C93089B95
:10495000CDE912A6CDE91E78DDF830A0DDE91067BB
:1049600003F1FF39AB46109506E00022002309F160
:10497000FF39FCF763FBE8B93E4B0022304639466D
:10498000FCF7F4F80F460646FCF7A0FB0446FCF7DC
:1049900083F80B46024639463046FBF72FFF1AF8DC
:1049A0000430B9F1FF3FD8464D460BF8013B0646AF
:1049B0000F46DAD1304639462F4BDDF848A0139E1A
:1049C000CDF848800022A946DDF87C80109D1E9F0E
:1049D000CDE91001FCF75AFB002840F03482DDE9F4
:1049E0001001254B0022FCF729FB10B1E10700F173
:1049F0002A824B46002B06DB01335B4430220BF846
:104A0000012B5B45FBD1ABEB0503B94612930F9F1E
:104A100003E50799099828AA03F076FA00287EF49E
:104A2000F9AEDDE9293222990DF1AC08AAE6906DC4
:104A300002F02CF8FEF7C0BE0799099828AA03F0E7
:104A400063FA00287EF4E6AE2A9C0DF1AC08FFF76D
:104A500064BB229B1093DA1C02DB089A93420DDDA3
:104A6000023E26F020030693E1E400BF84DB000849
:104A700054DB0008000030400000E03F109B129A19
:104A80009342C0F2568119F0010F00F08782169A06
:104A900013440C9319F4806F03D0109B002B00F388
:104AA00050820C9B23EAE3730693672600230F933F
:104AB00013931DE52D2200238DF883200893FEF724
:104AC0009ABF129BCDF830A04246DDF84C8010977B
:104AD000EB1808935E46199FDDF87090DDF824A06E
:104AE000DDF81CB00F9B13952146B8F1000F2ED0B6
:104AF000002B6BD1013F08F1FF381B9BC2E9003945
:104B0000299B01334944072B2A91299362DC0832FF
:104B1000089B38789B1B8342A8BF0346002B1C468A
:104B20000ADD2998013019440728C2E900632A9157
:104B300029905ADC38780832002CACBF051B05469A
:104B4000002D15DC06440F9BB8F1000FD0D1002BCF
:104B50003CD1DDE91235EB189E421997B346DDF8DA
:104B600030A0109F90460C4628BF9B46FFF7DBBA4B
:104B7000102D29981DDD102404E0103D102D02F1A8
:104B8000080216DD0130AC4B10310728C2E90034B1
:104B9000CDE92901F1DD28AA5946504603F0B4F9C0
:104BA00000287EF437AE103D102DDDE929012BAA37
:104BB000E8DC0130A04B556029440728CDE92901E4
:104BC00013602CDC387808320644BCE70F9B013BAD
:104BD0000F9392E728AA5946504603F095F900280A
:104BE0007EF418AE2A992BAA92E728AA5946504675
:104BF00003F08AF900287EF40DAE38782A992BAAA2
:104C00009AE70799099828AA03F07EF900287EF40C
:104C100001AE22992A9C0DF1AC08FFF784BB28AAAB
:104C20005946504603F070F900287EF4F3AD387809
:104C30002A992BAA064486E70799099828AA03F01F
:104C400063F900287EF4E6AD2A9C0DF1AC08FFF76D
:104C50005BBA0799099828AA03F056F900287EF450
:104C6000D9AD229B2A9C0DF1AC08FFF771BA0899C7
:104C7000019126A9049123A9039122A9029103215C
:104C80000C9B099800915A4600F03AFB0378302BB0
:104C9000054600F09581229B089AB94613440F9F60
:104CA000EC180C99584600220023FCF7C7F910B104
:104CB0002346FFF7B0BB269BA342BFF4ACAB302129
:104CC0005A1C26921970269B9C42F9D8FFF7A3BB69
:104CD000089B9DF883200E9406930C9308900F90E8
:104CE00013901090FEF784BE229A1092002A40F38F
:104CF0008181089909F001030B4340F05581109B15
:104D00000C93662619F4806F40F01C810C9B23EAFB
:104D1000E3730693CAE60799099828AA03F0F4F802
:104D200000283EF425AEFEF77BBD00230893FEF776
:104D3000A1BC129B169A9A18109B0C92002B40F360
:104D40004D816726DEE726F020030693DDE9143463
:104D50009B4604F100430C932D231D93DAE507993C
:104D6000099828AA03F0D0F800287EF453AD229DBC
:104D7000129B2A9C5D1B0DF1AC08FFF701BA4E4255
:104D80001031DFF8B49034DA4146DDF824B0A8469B
:104D90001024079D03E00831103E102E27DD01335B
:104DA0001032072BC1E90094CDE92932F3DD28AA9E
:104DB0002946584603F0A8F800287EF42BADDDE91B
:104DC00029322BA9E8E7089BEC186AE7079B5B6E82
:104DD000DD0707D4079B9B899C0503D4079B986D2F
:104DE00001F054FE4FF0FF330B93FEF722BD454612
:104DF000884601333244072BCDE92932C8F80090A8
:104E0000C8F804607FF7A4AA0799099828AA03F0B4
:104E10007BF800287EF4FEACDDE929320DF1AC0808
:104E2000B3E40998591C01F0A3FE0546002800F0E0
:104E30000D810D905DE500BF84DB000830238DF807
:104E4000843078234AE5129B26930C9B1BF8012C97
:104E5000D97B8A425B4609D1302003F8010C269B9E
:104E60005A1E269213F8012C9142F6D0392A0BBF14
:104E70000C9A0132927AD2B203F8012CC3E5089958
:104E80000C9B09984C1C26A9049123A9039122A9E3
:104E9000029102215A460194009100F031FA054630
:104EA000B9462C440F9FFCE6089B002B08BF01234A
:104EB000089347F480730F93159B002BC0F2AE80CC
:104EC000DDF850B01D900C930D90FFF789BA0623C2
:104ED0000893FFF770BA159B604D002BB4BF2D22CD
:104EE0009DF883205E4BB8BF8DF8832027F08007A4
:104EF000FEF772BD22AA0C99584602F007FF002265
:104F00004FF07F53FBF732FE02460B46CDE91023EC
:104F100000220023FCF792F808B101232293514BA1
:104F20000C9314E5002962D130228DF892200DF106
:104F30009302303302F8013B24ABD31A1A93FFF7E4
:104F4000C0BA672619990B78FF2B7BD00024109AE2
:104F5000204603E001300131FF2B08D0934206DAEE
:104F6000D21A4B78002BF5D10B780134F4E7199164
:104F7000109213900F940F9A139B1C9913440C9A40
:104F800001FB03230C9323EAE3730693FFF7B0BA04
:104F900006F10F02D2B20121FFF752BA109B0C9317
:104FA00078E500230D93D1E6169BD31819440C9194
:104FB0006626A7E619F0010F3FF48EAAFFF788BA1C
:104FC0000C99584600220023FCF738F800287FF49B
:104FD00062AE089BC3F1010322935DE6C3F10103B6
:104FE0001A4422EAE2730C92069367265EE50DF1FD
:104FF00092029EE7089A09F0010959EA020304D1D6
:105000000123069366260C9350E5169B01331A4440
:1050100022EAE2730C920693662647E50D9095E628
:105020000E9B9AF80160924653F8042B0E9342EAC5
:10503000E2720892FEF71CBB02231A93FFF741BAF3
:10504000089C2DE700230F93139394E7079A938905
:1050500043F040039381FEF7E3BB00BF38DB000859
:105060003CDB000840DB0008F0B51F468B89ADF241
:105070006C4D23F00203ADF80C304B6E1993CB89C5
:10508000ADF80E30CB6907934B6A09931AAB0093C6
:1050900004934FF48063154606460293059316A8C1
:1050A00000230C46069301F0EBFC2A463B4669467A
:1050B0003046FEF76FFA051E07DB6946304601F001
:1050C00011F9002818BF4FF0FF35BDF80C305B0612
:1050D00003D5A38943F04003A381169801F0D2FCC5
:1050E00028460DF26C4DF0BD38B5334B1B680546B4
:1050F0000C460BB19A6B12B3B4F90C3018079AB284
:1051000025D5216900292DD012F0010007D00020FB
:10511000A06060694042A06139B1002038BD9507A8
:1051200058BF6069A0600029F7D1120658BF084631
:10513000F4D543F04003A3814FF0FF3038BD18464B
:1051400001F004F9B4F90C3018079AB2D9D4D10699
:105150002AD5520714D4216943F00803A3819AB2D7
:105160000029D1D102F42070B0F5007FCCD02146C7
:10517000284601F08DFCB4F90C3021699AB2C3E7DE
:10518000216B51B104F14002914204D0284601F054
:10519000D5F9B4F90C300022226321690022C4E958
:1051A000001223F02403D7E7092243F040032A60CA
:1051B0004FF0FF30A38138BD10000020024B13B127
:1051C000024800F005B87047000000007164000854
:1051D000002301461A46184603F0C6BD2DE9F04FDC
:1051E00003690C69A34283B0C0F28680013C01F1DF
:1051F0001405A30000F11408009355F8243058F862
:10520000242001338A469A4208EB8401814605EB4B
:1052100084070191B2FBF3F638D30023AE46404633
:105220009B465EF8041B02681FFA81FC06FB0C33E8
:10523000090C4FEA134C06FB01CC99B2ABEB010110
:105240001FFA8CF311FA82F1C3EB124202EB2142F6
:1052500089B241EA0241774540F8041B4FEA1C43FA
:105260004FEA224BDDD2009B58F8033073B9019B03
:10527000043B984504D307E0984504F1FF3403D27A
:1052800053F80429002AF7D0C9F81040514648467F
:1052900002F028FA00282BDB01364046002355F89F
:1052A000041BD0F800C08AB29A1A0B0C12FA8CF2C6
:1052B000C3EB1C4303EB224392B242EA0342AF42E8
:1052C00040F8042B4FEA2343E9D258F8242008EB96
:1052D00084036AB9043B984504D307E0984504F178
:1052E000FF3403D253F80429002AF7D0C9F810403C
:1052F000304603B0BDE8F08F002003B0BDE8F08F6A
:105300002DE9F04F016C99B090469946CDE904899A
:10531000259D044641B1426C4A60012393408B6055
:1053200001F084FF00232364B9F1000AB4BF012314
:1053300000232B60764BBCBF2AF0004ACDF814A0A6
:1053400033EA0A0300F0AA80DDE904231046194677
:1053500000220023CDE90A01FBF770FE074670B179
:10536000249A01231360269B002B00F0E4826948F5
:105370001860431E0393039819B0BDE8F08F16AB75
:10538000019317AB00932046DDE90A2302F070FA7F
:105390005FEA1A56054640F09780DDE916763E44EE
:1053A00006F23240202840F3B583C0F140000AFAEB
:1053B00000FA06F2124028FA00F04AEA0000FBF771
:1053C0005BFB0123013EA1F1F8710F93524B0022C8
:1053D000FBF714FA48A3D3E90023FBF7C7FB48A364
:1053E000D3E90023FBF70CFA804630468946FBF7E9
:1053F00053FB45A3D3E90023FBF7B8FB02460B465A
:1054000040464946FBF7FCF980468946FBF75EFEBD
:1054100000228346002340464946FBF719FE002838
:1054200040F07C82BBF1160F00F26B823B4B03EB2A
:10543000CB03D3E90023DDE90A01FBF709FE0028CD
:1054400072D00023BE1B0E93731E0BF1FF3B06931D
:1054500000F15E8200230993BBF1000F6BDA099B18
:10546000CDF81CB0A3EB0B030993CBF100030D9314
:10547000229B092B4FF0000B66D8052B40F3488385
:10548000043B22930026229B023B032B00F26886FA
:10549000DFE813F05C04590450043304249A42F208
:1054A0000F73CAF3130A13605AEA08031AD1269B32
:1054B000002B00F064861A4B03930833269A039856
:1054C000136019B0BDE8F08FDDE90A12C2F31303CF
:1054D000084643F07F510F97A6F2FF36169F41F41E
:1054E000401173E7269B002B40F0EA830D4B03939A
:1054F00041E700BFAFF3008061436F63A787D23FEE
:10550000B3C8608B288AC63FFB799F501344D33FB2
:105510000000F07F71DB00080000F83FE0DC0008CD
:1055200098DB000894DB0008BE1B731E069300F195
:1055300085840E900990069B5B44CDE9063B0023D1
:105540000D93229B092B98D90023CDE92233012604
:105550004FF0FF330C960893089B1293002161646F
:10556000204601F03DFE0390002800F00186039BD9
:105570002364089B0E2B00F21381002E00F0108193
:105580000799002940F35C84AE4B01F00F0203EB56
:10559000C2034FEA2118C905D3E9006740F114841A
:1055A000A94BDDE90A01D3E90823FBF709FCCDE9A2
:1055B000100108F00F084FF0030AB8F1000F13D0E4
:1055C000DFF8849218F0010F09D030463946D9E946
:1055D0000023FBF7CBFA0AF1010A06460F465FEA01
:1055E000680809F10809EDD1DDE9100132463B46B2
:1055F000FBF7E6FB804689460E9B43B1934B0022A6
:1056000040464946FBF724FD002840F030855046CF
:10561000FBF742FA42464B46FBF7A8FA8C4B0022B6
:10562000FBF7EEF8A1F15073CDE910011193089B3F
:10563000002B00F09780079B1493089B13930C9BFF
:10564000002B00F0A584139A7E4B8249039E03EB46
:10565000C20353E902230020FBF7B2FBDDE910236C
:10566000FBF7CCF8CDE9100149464046FBF72EFD8B
:105670000746FBF711FA02460B4640464946FBF740
:10568000BDF83037DDE9102306F8017B80468946F6
:10569000FBF7DEFC002840F02985CDF854B0002748
:1056A000DDE910AB1095139D13942AE00137AF424A
:1056B00080F22C85684B504659460022FBF756FA7B
:1056C000654B002282468B4640464946FBF74EFA20
:1056D00089468046FBF7FAFC0446FBF7DDF90246F3
:1056E0000B4640464946FBF789F8303406F8014B33
:1056F00052465B4680468946FBF7AAFC002840F0EC
:10570000F38442464B4651490020FBF777F8524656
:105710005B46FBF79DFC0028C8D0DDE91343109DD4
:10572000039A079302E0964200F0C884B24616F846
:10573000013D392BF7D00133DBB23370079B0133C6
:105740000793C8E15046FBF7A7F942464B46FBF7E3
:105750000DFA3F4B0022FBF753F8A1F15073CDE94E
:10576000100111933D4B404649460022FBF746F895
:10577000DDE910894B46424606460F46FBF786FC9C
:105780008146002840F0AA84DDE91001024601F1BB
:10579000004330463946FBF75BFC002840F0458368
:1057A000179B002BC0F28C80079A0E2A00F388808A
:1057B000244B03EBC203D3E900AB239B002B1BDA82
:1057C000089B002B18DC40F02E83244B002250460F
:1057D0005946FBF7CBF902460B46DDE90A01FBF718
:1057E00041FCDDF820904E46002800F0C782239B44
:1057F000DDF80C80DF43C9E2DDE90A7852465B46FA
:1058000038464146FBF7DCFAFBF760FC814609901D
:10581000FBF742F952465B46FBF7A8F9039E0B469D
:10582000024641463846FAF7E9FF09F1300306F827
:10583000013B089B012B00F05C8306940127049533
:105840001C462AE0E0DC0008B8DC00080000F03F5D
:1058500000001C400000E03F000024400000144015
:1058600052465B4640464946FBF7AAFAFBF72EFC38
:105870000546FBF711F952465B46FBF777F901370E
:105880000B46024649464046FAF7B8FF05F1300399
:10589000A74206F8013B00F02983AC4B0022FBF73E
:1058A00065F90022002380468946FBF7C7FB0028E4
:1058B000D6D0049D069C079B01330793B2460AE1AC
:1058C0000C9A002A3DD0229A012A40F39C82089B20
:1058D00003F1FF380D9B4345C0F26D82A3EB08082E
:1058E000089B002BC0F23C83069A1A440692099A40
:1058F00017461A4409920121204601F03FFD064651
:1059000023E00123BE1B0E93731E06937FF5A2AD09
:10591000C6F101030993002306939DE55846FBF762
:10592000BBF842464B46FBF789FB00287FF47AAD73
:105930000BF1FF3B76E5864B0393039819B0BDE866
:10594000F08FDDF83480099F0C9E002F0CDD069946
:1059500000290B4608DD099AB942A8BF3B46D21A76
:10596000FF1ACB1A099206930D9BDBB10C9B002BFF
:1059700000F05D82B8F1000F0FDD3146424620464F
:1059800001F0D8FD2A4601460646204601F024FDD6
:1059900029460546204601F049FC0D9BB3EB080261
:1059A00040F0D8820121204601F0E8FCBBF1000F55
:1059B000814600F3B480229B012B40F386814FF097
:1059C000000A0120BBF1000F40F0B580069A104498
:1059D00010F01F0000F09380C0F12003042B40F36F
:1059E000D283099BC0F11C0003440244099307447D
:1059F0000692099B002B05DD29461A46204601F038
:105A0000F9FD0546069B002B05DD49461A46204652
:105A100001F0F0FD81460E9B002B40F03681089B83
:105A2000002B40F31D810C9B002B40F0A080079BB6
:105A300001330793DDF80C80DDF820A0012707E093
:105A4000294600230A22204601F0FAFB01370546C9
:105A500049462846FFF7C2FB574500F1300308F8D6
:105A6000013BEDDB089A002AC8BF9346039AD8BFD2
:105A70004FF0010B9344002729460122204604934E
:105A800001F0B8FD4946054601F02CFE002840F320
:105A9000A8811BF8013C039A0BF1FF3B04E05A4537
:105AA00000F0AA811BF8013D392B0BF1010AF6D059
:105AB00001338BF800304946204601F0B7FB56B160
:105AC0002FB1B74203D03946204601F0AFFB314633
:105AD000204601F0ABFB2946204601F0A7FB00233E
:105AE0008AF80030249B079A1A60269B002B3FF40B
:105AF00042AC0398C3F800A019B0BDE8F08F1C2099
:105B0000099B03440993069B03440744069370E7EB
