:020000040800F2
:100000000000022005430008F9180008FB1800084A
:10001000FD180008FF180008011900080000000082
:1000200000000000000000000000000003190008AC
:100030000519000800000000071900080919000848
:100040005543000855430008554300085543000830
:100050005543000855430008554300085543000820
:100060005543000855430008554300085543000810
:100070005543000855430008554300085543000800
:1000800055430008554300085543000855430008F0
:1000900055430008554300085543000855430008E0
:1000A00055430008554300085543000855430008D0
:1000B00055430008554300085543000855430008C0
:1000C00055430008554300085543000855430008B0
:1000D000554300081119000855430008554300080E
:1000E0005543000855430008554300085543000890
:1000F0005543000855430008554300085543000880
:10010000554300085543000855430008554300086F
:10011000554300085543000855430008554300085F
:10012000554300085543000855430008554300084F
:10013000554300085543000855430008554300083F
:10014000554300085543000855430008554300082F
:10015000554300085543000855430008554300081F
:10016000554300085543000855430008554300080F
:10017000554300085543000855430008000000009F
:08018000554300085543000837
:1001C00010B5054C237833B9044B13B10448AFF391
:1001D00000800123237010BDD00900200000000022
:1001E000E8A2000808B5034B1BB103490348AFF36D
:1001F000008008BD00000000D4090020E8A200082B
:1002000053B94AB9002908BF00281CBF4FF0FF317D
:100210004FF0FF3000F074B9ADF1080C6DE904CE79
:1002200000F006F8DDF804E0DDE9022304B07047D1
:100230002DE9F047089E0D4604468846002B4DD117
:100240008A42944668D9B2FA82F252B101FA02F3B4
:10025000C2F1200120FA01F10CFA02FC41EA030884
:1002600094404FEA1C45210CB8FBF5FE1FFA8CF7B1
:1002700005FB1E8341EA03430EFB07F199420BD9AC
:100280001CEB03030EF1FF3080F01E81994240F217
:100290001B81AEF1020E63445B1AA4B2B3FBF5F00E
:1002A00005FB103344EA034400FB07F7A7420AD9D1
:1002B0001CEB040400F1FF3380F00881A74240F2F8
:1002C000058164440238E41B40EA0E4000211EB15F
:1002D000D4400023C6E90043BDE8F0878B4208D92B
:1002E000002E00F0EE800021C6E900050846BDE8BA
:1002F000F087B3FA83F100294AD1AB4202D382429C
:1003000000F2F980841A65EB030301209846002E61
:10031000E2D0C6E90048DFE702B9FFDEB2FA82F2B6
:10032000002A40F09180A1EB0C054FEA1C471FFA10
:100330008CFE0121B5FBF7F307FB1350250C45EAB2
:1003400000450EFB03F0A84208D91CEB050503F19C
:10035000FF3802D2A84200F2CB8043462D1AA4B245
:10036000B5FBF7F007FB105544EA05440EFB00FE11
:10037000A64508D91CEB040400F1FF3502D2A645BE
:1003800000F2BB802846A4EB0E0440EA03409EE73F
:10039000C1F120078B4022FA07FC4CEA030C20FA3B
:1003A00007F405FA01F31C43FD404FEA1C4900FA2B
:1003B00001F3B5FBF9F8200C1FFA8CFE09FB185568
:1003C00040EA054508FB0EF0A84202FA01F20BD9FB
:1003D0001CEB050508F1FF3A80F08880A84240F246
:1003E0008580A8F1020865442D1AA4B2B5FBF9F086
:1003F00009FB105544EA054500FB0EFEAE4508D941
:100400001CEB050500F1FF346CD2AE456AD9023809
:10041000654440EA0840A0FB0294A5EB0E05A54206
:10042000C846A64656D353D05EB1B3EB080265EB7F
:100430000E0505FA07F722FA01F3CD401F43C6E97E
:1004400000750021BDE8F087C2F1200320FA03F116
:100450000CFA02FC25FA03F395400D434FEA1C47C2
:100460001FFA8CFEB3FBF7F107FB11302B0C43EAAC
:10047000004301FB0EF0984204FA02F408D91CEB89
:10048000030301F1FF382FD298422DD9023963447A
:100490001B1AADB2B3FBF7F007FB103345EA034577
:1004A00000FB0EF3AB4208D91CEB050500F1FF3849
:1004B00016D2AB4214D902386544ED1A40EA014124
:1004C00038E73146304607E78646E5E61846FAE65D
:1004D0004B45A9D2B9EB020864EB0C0E0138A3E737
:1004E0004046EAE7204694E74146D1E7D0467BE71D
:1004F000023B654432E7084609E76444023842E7B4
:10050000704700BF00000000000000000000000075
:1005100000000000000000000000000000000000DB
:1005200000000000000000000000000000000000CB
:1005300000000000000000000000000000000000BB
:1005400090F800F06DE9024520F007016FF0000C13
:1005500010F0070491F820F040F049804FF00004BB
:100560006FF00700D1E9002391F840F000F1080096
:1005700082FA4CF2A4FA8CF283FA4CF3A2FA8CF3CE
:100580004BBBD1E9022382FA4CF200F10800A4FA35
:100590008CF283FA4CF3A2FA8CF3E3B9D1E9042389
:1005A00082FA4CF200F10800A4FA8CF283FA4CF3C0
:1005B000A2FA8CF37BB9D1E9062301F1200182FA7A
:1005C0004CF200F10800A4FA8CF283FA4CF3A2FA80
:1005D0008CF3002BC6D0002A04BF04301A4612BA8E
:1005E000B2FA82F2FDE8024500EBD2007047D1E991
:1005F000002304F00305C4F100004FEAC50514F020
:10060000040F91F840F00CFA05F562EA05021CBFF0
:1006100063EA050362464FF00004A9E7000000000A
:1006200001F0FF01102A2BDB10F0070F08D010F8A3
:10063000013B013A8B422DD010F0070F42B3F6D1A7
:10064000F0B441EA012141EA014122F007047FF0C0
:1006500000070023F0E80256083C85EA010586EA17
:10066000010685FA47F5A3FA87F586FA47F6A5FA53
:1006700087F68EB9EED1F0BC01F0FF0102F007025F
:1006800032B110F8013B013A83EA010313B1F8D10A
:100690000020704701387047002D06BF35460338EB
:1006A000073815F0010F07D1013015F4807F02BF24
:1006B000013015F4C03F0130F0BC0138704700BF75
:1006C000844641EA000313F003036DD1403A41D35D
:1006D00051F8043B40F8043B51F8043B40F8043B1C
:1006E00051F8043B40F8043B51F8043B40F8043B0C
:1006F00051F8043B40F8043B51F8043B40F8043BFC
:1007000051F8043B40F8043B51F8043B40F8043BEB
:1007100051F8043B40F8043B51F8043B40F8043BDB
:1007200051F8043B40F8043B51F8043B40F8043BCB
:1007300051F8043B40F8043B51F8043B40F8043BBB
:1007400051F8043B40F8043B51F8043B40F8043BAB
:10075000403ABDD2303211D351F8043B40F8043B4B
:1007600051F8043B40F8043B51F8043B40F8043B8B
:1007700051F8043B40F8043B103AEDD20C3205D35B
:1007800051F8043B40F8043B043AF9D2043208D053
:10079000D2071CBF11F8013B00F8013B01D30B88C5
:1007A00003806046704700BF082A13D38B078DD0A3
:1007B00010F003038AD0C3F10403D21ADB071CBF75
:1007C00011F8013B00F8013B80D331F8023B20F8DF
:1007D000023B7BE7043AD9D3013A11F8013B00F818
:1007E000013BF9D20B7803704B7843708B788370A0
:1007F0006046704781F0004102E000BF83F0004393
:1008000030B54FEA41044FEA430594EA050F08BFAB
:1008100090EA020F1FBF54EA000C55EA020C7FEA6F
:10082000645C7FEA655C00F0E2804FEA5454D4EBEC
:100830005555B8BF6D420CDD2C4480EA020281EAB6
:10084000030382EA000083EA010180EA020281EAEE
:100850000303362D88BF30BD11F0004F4FEA013140
:100860004FF4801C4CEA113102D0404261EB41014F
:1008700013F0004F4FEA03334CEA133302D05242D5
:1008800063EB430394EA050F00F0A780A4F1010491
:10089000D5F1200E0DDB02FA0EFC22FA05F28018CB
:1008A00041F1000103FA0EF2801843FA05F35941B1
:1008B0000EE0A5F120050EF1200E012A03FA0EFC30
:1008C00028BF4CF0020C43FA05F3C01851EBE3715A
:1008D00001F0004507D54FF0000EDCF1000C7EEB77
:1008E00000006EEB0101B1F5801F1BD3B1F5001FB5
:1008F0000CD349085FEA30004FEA3C0C04F10104D4
:100900004FEA445212F5800F80F09A80BCF1004FFC
:1009100008BF5FEA500C50F1000041EB045141EA7E
:10092000050130BD5FEA4C0C404141EB0101013C47
:1009300028BFB1F5801FE9D291F0000F04BF014636
:100940000020B1FA81F308BF2033A3F10B03B3F108
:1009500020020CDA0C3208DD02F1140CC2F10C0298
:1009600001FA0CF021FA02F10CE002F11402D8BFF6
:10097000C2F1200C01FA02F120FA0CFCDCBF41EAC2
:100980000C019040E41AA2BF01EB0451294330BD91
:100990006FEA04041F3C1CDA0C340EDC04F114046E
:1009A000C4F1200220FA04F001FA02F340EA030045
:1009B00021FA04F345EA030130BDC4F10C04C4F18B
:1009C000200220FA02F001FA04F340EA030029466B
:1009D00030BD21FA04F0294630BD94F0000F83F4B5
:1009E000801306BF81F480110134013D4EE77FEA98
:1009F000645C18BF7FEA655C29D094EA050F08BFE4
:100A000090EA020F05D054EA000C04BF19461046C4
:100A100030BD91EA030F1EBF0021002030BD5FEA08
:100A2000545C05D14000494128BF41F0004130BD30
:100A300014F580043CBF01F5801130BD01F0004584
:100A400045F0FE4141F470014FF0000030BD7FEAF7
:100A5000645C1ABF194610467FEA655C1CBF0B46F2
:100A6000024650EA013406BF52EA033591EA030F09
:100A700041F4002130BD00BF90F0000F04BF002101
:100A8000704730B54FF4806404F132044FF0000534
:100A90004FF0000150E700BF90F0000F04BF0021AD
:100AA000704730B54FF4806404F1320410F0004513
:100AB00048BF40424FF000013EE700BF42004FEA0E
:100AC000E2014FEA31014FEA02701FBF12F07F438B
:100AD00093F07F4F81F06051704732F07F4208BF42
:100AE000704793F07F4F04BF41F40021704730B549
:100AF0004FF4607401F0004521F000411CE700BF95
:100B000050EA010208BF704730B54FF000050AE017
:100B100050EA010208BF704730B511F0004502D518
:100B2000404261EB41014FF4806404F132045FEA1A
:100B3000915C3FF4D8AE4FF003025FEADC0C18BFC3
:100B400003325FEADC0C18BF033202EBDC02C2F1B5
:100B5000200300FA03FC20FA02F001FA03FE40EA47
:100B60000E0021FA02F11444BDE600BF70B54FF04B
:100B7000FF0C4CF4E06C1CEA11541DBF1CEA135529
:100B800094EA0C0F95EA0C0F00F0DEF82C4481EA91
:100B9000030621EA4C5123EA4C5350EA013518BFB1
:100BA00052EA033541F4801143F4801338D0A0FB9E
:100BB00002CE4FF00005E1FB02E506F00042E0FB4B
:100BC00003E54FF00006E1FB03569CF0000F18BF51
:100BD0004EF0010EA4F1FF04B6F5007F64F54074F9
:100BE00004D25FEA4E0E6D4146EB060642EAC6218C
:100BF00041EA55514FEAC52040EA5E504FEACE2EF9
:100C0000B4F1FD0C88BFBCF5E06F1ED8BEF1004FFB
:100C100008BF5FEA500E50F1000041EB045170BD77
:100C200006F0004646EA010140EA020081EA0301BB
:100C3000B4EB5C04C2BFD4EB0C0541EA045170BDB7
:100C400041F480114FF0000E013C00F3AB8014F131
:100C5000360FDEBF002001F0004170BDC4F100047A
:100C6000203C35DA0C341BDC04F11404C4F12005FB
:100C700000FA05F320FA04F001FA05F240EA020056
:100C800001F0004221F0004110EBD37021FA04F68C
:100C900042EB06015EEA430E08BF20EAD37070BD46
:100CA000C4F10C04C4F1200500FA04F320FA05F0A5
:100CB00001FA04F240EA020001F0004110EBD370A7
:100CC00041F100015EEA430E08BF20EAD37070BD17
:100CD000C4F1200500FA05F24EEA020E20FA04F3F0
:100CE00001FA05F243EA020321FA04F001F000419F
:100CF00021FA04F220EA020000EBD3705EEA430E10
:100D000008BF20EAD37070BD94F0000F0FD101F03E
:100D10000046400041EB010111F4801F08BF013C77
:100D2000F7D041EA060195F0000F18BF704703F0B5
:100D30000046520043EB030313F4801F08BF013D3C
:100D4000F7D043EA0603704794EA0C0F0CEA1355F8
:100D500018BF95EA0C0F0CD050EA410618BF52EAB2
:100D60004306D1D181EA030101F000414FF00000B8
:100D700070BD50EA410606BF1046194652EA4306C6
:100D800019D094EA0C0F02D150EA013613D195EA3A
:100D90000C0F05D152EA03361CBF104619460AD182
:100DA00081EA030101F0004141F0FE4141F470018C
:100DB0004FF0000070BD41F0FE4141F4780170BD7C
:100DC00070B54FF0FF0C4CF4E06C1CEA11541DBFE1
:100DD0001CEA135594EA0C0F95EA0C0F00F0A7F8E3
:100DE000A4EB050481EA030E52EA03354FEA013110
:100DF00000F088804FEA03334FF0805545EA131323
:100E000043EA12634FEA022245EA111545EA1065EA
:100E10004FEA00260EF000419D4208BF964244F181
:100E2000FD0404F5407402D25B084FEA3202B61AA0
:100E300065EB03055B084FEA32024FF480104FF474
:100E4000002CB6EB020E75EB030E22BFB61A7546E8
:100E500040EA0C005B084FEA3202B6EB020E75EB7B
:100E6000030E22BFB61A754640EA5C005B084FEAE3
:100E70003202B6EB020E75EB030E22BFB61A7546B0
:100E800040EA9C005B084FEA3202B6EB020E75EBBB
:100E9000030E22BFB61A754640EADC0055EA060E7C
:100EA00018D04FEA051545EA16754FEA06164FEABF
:100EB000C30343EA52734FEAC2025FEA1C1CC0D16B
:100EC00011F4801F0BD141EA00014FF000004FF0F8
:100ED000004CB6E711F4801F04BF01430020B4F1B9
:100EE000FD0C88BFBCF5E06F3FF6AFAEB5EB030C71
:100EF00004BFB6EB020C5FEA500C50F1000041EB6E
:100F0000045170BD0EF0004E4EEA113114EB5C043A
:100F1000C2BFD4EB0C0541EA045170BD41F480110D
:100F20004FF0000E013C90E645EA060E8DE60CEA15
:100F3000135594EA0C0F08BF95EA0C0F3FF43BAF32
:100F400094EA0C0F0AD150EA01347FF434AF95EAE9
:100F50000C0F7FF425AF104619462CE795EA0C0FCD
:100F600006D152EA03353FF4FDAE1046194622E79A
:100F700050EA410618BF52EA43067FF4C5AE50EA74
:100F800041047FF40DAF52EA43057FF4EBAE12E764
:100F90004FF0FF3C06E000BF4FF0010C02E000BF45
:100FA0004FF0010C4DF804CD4FEA410C7FEA6C5C28
:100FB0004FEA430C18BF7FEA6C5C1BD001B050EACB
:100FC000410C0CBF52EA430C91EA030F02BF90EAB6
:100FD000020F0020704710F1000F91EA030F58BF75
:100FE000994208BF90422CBFD8176FEAE37040F0D7
:100FF000010070474FEA410C7FEA6C5C02D150EA75
:10100000013C07D14FEA430C7FEA6C5CD6D152EA2F
:10101000033CD3D05DF8040B704700BF84461046F4
:1010200062468C461946634600E000BF01B5FFF7F3
:10103000B7FF002848BF10F1000F01BD4DF808EDC3
:10104000FFF7F4FF0CBF012000205DF808FB00BF94
:101050004DF808EDFFF7EAFF34BF012000205DF8EE
:1010600008FB00BF4DF808EDFFF7E0FF94BF01203B
:1010700000205DF808FB00BF4DF808EDFFF7CEFF3C
:1010800094BF012000205DF808FB00BF4DF808ED7B
:10109000FFF7C4FF34BF012000205DF808FB00BF4C
:1010A0004FEA410C7FEA6C5C02D150EA013C0AD164
:1010B0004FEA430C7FEA6C5C02D152EA033C02D156
:1010C0004FF0000070474FF0010070474FEA4102B7
:1010D00012F5001215D211D56FF47873B3EB62528A
:1010E00012D94FEAC12343F0004343EA505311F0B1
:1010F000004F23FA02F018BF404270474FF0000043
:10110000704750EA013005D111F0004008BF6FF080
:10111000004070474FF00000704700BF08B50A4616
:101120004FF47A730146024801F05FFB08BD00BF2F
:10113000F049002008B50A464FF47A730146024888
:1011400001F04BFD08BD00BFF049002000B583B0A1
:101150008DF8070001210DF10700FFF7DFFF03B055
:101160005DF804FB00B583B000224FF480411148C4
:1011700000F0ACFE0520FFF7E9FF28B901210DF1D1
:101180000700FFF7D7FF48B101224FF4804109481B
:1011900000F09CFE002003B05DF804FB01224FF438
:1011A000804100F1804000F5013000F08FFE9DF895
:1011B0000700F0E70004024008B5FFF7D3FF10F086
:1011C000010FFAD108BD000030B583B00C461546BA
:1011D000C0F307438DF80430C0F307238DF80530C2
:1011E0008DF80600FFF7E8FF00224FF48041134816
:1011F00000F06CFE0320FFF7A9FF20B9032101A82E
:10120000FFF78CFF48B101224FF480410B4800F0FA
:101210005DFE0124204603B030BDA9B22046FFF791
:1012200089FF04460028EED101224FF4804100F1ED
:10123000804000F5013000F049FEEBE70004024079
:1012400000B583B0002201924FF48041154800F0B0
:101250003DFE9F20FFF77AFF20B9032101A8FFF789
:1012600069FF50B101224FF480410E4800F02EFE7C
:101270004FF0807003B05DF804FB01224FF4804111
:1012800000F1804000F5013000F020FE019B1804C1
:1012900000F47F0003F47F421043C3F30743184375
:1012A000E8E700BF0004024010B500224FF480417F
:1012B0000D4800F00BFE0620FFF748FF40B1012269
:1012C0004FF48041084800F001FE0124204610BD83
:1012D000044601224FF4804100F1804000F50130C6
:1012E00000F0F4FDF2E700BF0004024010B582B048
:1012F000C0F307438DF80430C0F307238DF80530A1
:101300008DF80600FFF7D0FF18B10124204602B087
:1013100010BDFFF751FF00224FF48041104800F04C
:10132000D5FD2020FFF712FF28B9032101A8FFF700
:10133000F5FE044638B101224FF48041084800F020
:10134000C5FD0124E2E701224FF4804100F1804015
:1013500000F5013000F0BAFDFFF72EFFD6E700BF21
:101360000004024030B583B00D461446C0F3074375
:101370008DF80430C0F307238DF805308DF8060092
:10138000FFF792FF18B10124204603B030BDFFF7EC
:1013900013FF00224FF48041134800F097FD022014
:1013A000FFF7D4FE20B9032101A8FFF7B7FE38B13B
:1013B00001224FF480410C4800F088FD0124E3E74E
:1013C00021462846FFF7AAFE04460028F0D1012254
:1013D0004FF4804100F1804000F5013000F076FDCF
:1013E000FFF7EAFED0E700BF000402402DE9F04716
:1013F00004468946C2F30F26D5B25FFA80F8B8F1E9
:10140000000F64D04FEA122AC8F58077BFB2002ED1
:1014100048D0BD4221D93A46FFF7A4FF3C444F448F
:101420004FF0000A0DE04FF4807239462046FFF776
:1014300099FF04F5807407F580770AF1010A1FFA15
:101440008AFAB245EFD3A8F580722A4492B239469F
:101450002046FFF787FF002065E03A46FFF782FF4E
:101460003C44B94400270BE04FF4807249462046C3
:10147000FFF778FF04F5807409F580790137BFB272
:101480001FFA8AF3013B9F42EEDBA8F580722A44E3
:1014900092B202F5807292B249462046FFF762FF8F
:1014A000002040E0BD420DD93A46FFF75BFFA8F5AA
:1014B00080722A4492B209EB07013819FFF752FFF4
:1014C000002030E02A46FFF74DFF00202BE046B316
:1014D00075B922E04FF4807249462046FFF742FF7B
:1014E00004F5807409F5807908F101081FFA88F87D
:1014F000B045EFD32A4649462046FFF733FF002088
:1015000011E04FF4807249462046FFF72BFF04F5A7
:10151000807409F580790135ADB2B542F1D3002070
:1015200001E015B90120BDE8F0872A46FFF71AFF50
:101530000020F8E708B500224FF48041074800F08A
:10154000C5FCAB20FFF702FE00B908BD01224FF435
:101550008041024800F0BAFCF7E700BF00040240F7
:1015600000B583B001904FF6FF73012201A9034833
:1015700001F04DFD019803B05DF804FB4C4A0020DA
:101580000268084B9A4200D0704710B5064C2146BD
:10159000064802F05DFF01222146054801F089FF5F
:1015A00010BD00BF00100140EC09002000A300089E
:1015B0004C4A0020F0B58BB00024059406940794A3
:1015C000089409940194264B1A6B42F020021A6386
:1015D0001A6B02F020020192019A02941A6B42F0F7
:1015E00080021A631A6B02F080020292029A03943C
:1015F0001A6B42F002021A631A6B02F002020392A3
:10160000039A04941A6B42F001021A631B6B03F0F5
:1016100001030493049B134F22464FF48061384624
:1016200000F054FC104D01224FF48041284600F098
:101630004DFC4FF4806305930126069607940894A9
:1016400005A9384600F050FB4FF4804305930696F9
:101650000794089405A9284600F046FB0BB0F0BD9E
:1016600000380240001402400004024072B6FEE757
:1016700000B595B03022002108A802F097FE0023A3
:10168000039304930593069307930193204A116CE7
:1016900041F080511164126C02F080520192019A63
:1016A00002931C4B1A6842F480421A601B6803F4D0
:1016B00080430293029B012308934FF480330993E4
:1016C00002220E924FF480030F9304231093A8215B
:1016D00011911292139308A800F008FC98B90F23F7
:1016E000039302230493002305934FF4A05306931E
:1016F0004FF480530793052103A800F05DFE20B945
:1017000015B05DF804FBFFF7B1FFFFF7AFFF00BFB7
:10171000003802400070004000B583B000F0DAF9F4
:10172000FFF7A6FFFFF746FF00F072F800F052F94E
:1017300001F0DCFE2B4802F0EDFE00222A492B4886
:1017400002F044FA2A4B18700D280FD000283CD024
:101750000146284802F07CFE4FF48061264800F0E4
:10176000BBFB4FF47A7000F0E1F9F5E7234802F093
:10177000D1FE4FF480430093214B4FF4805200215F
:10178000194802F051FA1A4B187088B91D4802F036
:10179000C1FE164D01220021284602F017FA144C12
:1017A000207001221049284602F010FA20700FE044
:1017B000154802F0AFFE4FF480610F4800F08CFB3B
:1017C0004FF47A7000F0B2F9F5E7104802F0A2FE8B
:1017D0004FF48061084800F07FFB4FF47A7000F00E
:1017E000A5F9F5E704A30008CC5A0020944A00208C
:1017F000D05A002088A300080014024030A300083B
:10180000F009002064A3000878A3000898A300084A
:1018100008B50D480D4B03604FF4827343600023FD
:101820008360C360036143614FF400728261C361EE
:101830000362436283620A23C36200F077FF00B948
:1018400008BDFFF713FFFBE7F0490020003001401F
:1018500000B589B00023039304930593069307937F
:101860000268154B9A4202D009B05DF804FB0021D2
:10187000019103F584335A6C42F480525A645A6CD5
:1018800002F480520192019A02911A6B42F0020214
:101890001A631B6B03F002030293029B382303932A
:1018A00002230493032306930523079303A9034804
:1018B00000F01AFAD8E700BF0030014000040240EF
:1018C00082B0002100910B4B5A6C42F480425A6462
:1018D0005A6C02F480420092009A01911A6C42F014
:1018E00080521A641B6C03F080530193019B02B079
:1018F000704700BF00380240FEE7FEE7FEE7FEE764
:10190000FEE770477047704708B500F0FDF808BD66
:1019100008B5024801F070FC08BD00BF4C4A002029
:101920000120704708B502F017FD162303604FF041
:10193000FF3008BD08B54FF0FF31FFF7F3FFFEE7BA
:1019400070B50C461646002506E0AFF30080214630
:1019500001F8010B01350C46B542F6DB304670BD8F
:1019600070B50C461646002504E014F8010BFFF78D
:10197000F7FD0135B542F8DB304670BD08B50346CA
:101980000B4A126842B10A4A106803446A469342FD
:1019900006D8074A136008BD054A06491160F2E7F8
:1019A00002F0DAFC0C2303604FF0FF30F3E700BFD6
:1019B000484A0020585B00204FF0FF3070474FF43A
:1019C00000534B6000207047012070470020704793
:1019D0007047000008B50A480A4B03604FF4E13332
:1019E000436000238360C36003610C224261836112
:1019F000C36101F0DDFA00B908BDFFF737FEFBE770
:101A00004C4A00200010014010B588B00023039319
:101A10000493059306930793026803F1804303F54B
:101A200088339A4201D008B010BD0024019403F518
:101A300094335A6C42F010025A645A6C02F010024D
:101A40000192019A02941A6B42F001021A631B6B15
:101A500003F001030293029B4FF4C063039302233C
:101A60000493032306930723079303A9054800F073
:101A70003BF922462146252000F07EF8252000F083
:101A8000B3F8D0E70000024010B504460E4B1878BA
:101A90004FF47A73B3FBF0F30C4A1068B0FBF3F029
:101AA00000F0B0F868B90F2C01D901200AE000223B
:101AB00021464FF0FF3000F05FF8054B1C6000201E
:101AC00000E0012010BD00BF040000200000002045
:101AD0000800002008B50B4B1A6842F400721A6027
:101AE0001A6842F480621A601A6842F480721A60BE
:101AF000032000F02FF80F20FFF7C6FFFFF7E0FEEE
:101B0000002008BD003C0240034A1168034B1B78CB
:101B10000B441360704700BF904A0020040000206F
:101B2000014B1868704700BF904A002038B5044642
:101B3000FFF7F6FF0546B4F1FF3F02D0044B1B78D8
:101B40001C44FFF7EDFF401BA042FAD338BD00BF95
:101B500004000020074AD36823F4E0631B041B0C35
:101B6000000200F4E060034343F0BF6343F400333A
:101B7000D360704700ED00E000B5194BDB68C3F39C
:101B80000223C3F1070CBCF1040F28BF4FF0040C73
:101B900003F1040EBEF1060F18D9033B4FF0FF3ED0
:101BA0000EFA0CFC21EA0C0199400EFA03F322EA2A
:101BB0000303194300280BDB0901C9B200F160409F
:101BC00000F5614080F800135DF804FB0023E5E7B1
:101BD00000F00F000901C9B2024B1954F4E700BF2D
:101BE00000ED00E014ED00E0002807DB00F01F022C
:101BF000400901239340024A42F82030704700BF59
:101C000000E100E00138B0F1807F0BD24FF0E0231B
:101C10005861054AF02182F82310002098610722BC
:101C20001A6170470120704700ED00E070B504466E
:101C3000866DFFF775FF94F83530DBB2022B06D0C6
:101C400080236365002384F83430012070BD05468D
:101C50002268136823F0160313602268536923F087
:101C600080035361236CE3B12268136823F00803F7
:101C700013602268136823F00103136023681B6854
:101C800013F0010F11D0FFF74BFF431B052BF5D9C4
:101C900020236365032084F83500002384F8343062
:101CA000D4E7A36C002BDFD1E3E7E26D3F23934041
:101CB000B360012384F83530002084F83400C5E790
:101CC00090F83530DBB2022B03D08023436501202E
:101CD0007047052380F835300268136823F001034C
:101CE000136000207047000000230F2B00F2E480F7
:101CF00070B582B060E085685E000324B44025EAD8
:101D00000405CC68B4402C438460456825EA02058C
:101D10004C68C4F300129A402A4342605AE0DC083F
:101D2000083450F8246003F0070295000F22AA40FF
:101D300026EA020E0A69AA4042EA0E0240F824206E
:101D40005CE0072200E0002202FA0EF22A4302348D
:101D50005A4D45F824205A4A94686FEA0C0224EA46
:101D60000C054E6816F4801F01D04CEA0405544C53
:101D7000A560E46802EA04054E6816F4001F01D06D
:101D80004CEA04054E4CE560646802EA04054E68BE
:101D900016F4003F01D04CEA0405494C6560246804
:101DA00022404D6815F4803F01D04CEA0402444CB7
:101DB000226001330F2B7DD801229A400C6804EA7F
:101DC000020C32EA0404F4D14C6804F00304013C30
:101DD000012C90D94A6802F00302032A09D0C46892
:101DE0005D000322AA4024EA02048A68AA40224332
:101DF000C2604A6802F00302022A90D004684FEAE7
:101E0000430E032202FA0EF224EA02044A6802F0A8
:101E1000030202FA0EF2224302604A6812F4403FC3
:101E2000C7D000220192274A546C44F48044546481
:101E3000526C02F480420192019A9C08A51C1F4A30
:101E400052F8255003F003024FEA820E0F2202FAE5
:101E50000EF225EA02051C4A90423FF474AF02F5E7
:101E6000806290421AD002F58062904218D002F54A
:101E70008062904216D002F58062904214D002F542
:101E80008062904212D002F58062904210D002F53A
:101E9000806290423FF455AF082255E7012253E794
:101EA000022251E703224FE704224DE705224BE7C8
:101EB000062249E702B070BD704700BF00380140FC
:101EC000003C014000380240000002400AB181613C
:101ED0007047090481617047436901EA030221EAFE
:101EE000030141EA0241816170470000002800F0CF
:101EF000E08170B582B00446036813F0010F3BD057
:101F00009F4B9B6803F00C03042B2CD09C4B9B68CD
:101F100003F00C03082B21D06368B3F5803F4FD04A
:101F2000B3F5A02F52D0964B1A6822F480321A6073
:101F30001A6822F480221A606368002B50D0FFF7E1
:101F4000EFFD05468E4B1B6813F4003F14D1FFF7DD
:101F5000E7FD401B6428F5D90320B1E1884B5B689D
:101F600013F4800FD8D0864B1B6813F4003F03D0C6
:101F70006368002B00F09F81236813F0020F54D098
:101F80007F4B9B6813F00C0F3ED07D4B9B6803F09A
:101F90000C03082B33D0E368002B68D0794B012267
:101FA0001A60FFF7BDFD0546754B1B6813F0020F65
:101FB00054D1FFF7B5FD401B0228F5D903207FE17E
:101FC0006F4A136843F480331360B5E76C4B1A68AB
:101FD00042F480221A601A6842F480321A60ABE739
:101FE000FFF79EFD0546664B1B6813F4003FC3D008
:101FF000FFF796FD401B6428F5D9032060E1604B94
:102000005B6813F4800FC6D15D4B1B6813F0020FA1
:1020100003D0E368012B40F05081594A136823F044
:10202000F803216943EAC1031360236813F0080F22
:1020300042D063696BB3534B0122C3F8802EFFF784
:102040006FFD05464E4B5B6F13F0020F34D1FFF767
:1020500067FD401B0228F5D9032031E1484A136887
:1020600023F0F803216943EAC1031360DDE7454B20
:1020700000221A60FFF754FD0546414B1B6813F020
:10208000020FD2D0FFF74CFD401B0228F5D90320E8
:1020900016E13C4B0022C3F8802EFFF741FD0546B8
:1020A000374B5B6F13F0020F06D0FFF739FD401B73
:1020B0000228F5D9032003E1236813F0040F77D039
:1020C0002F4B1B6C13F0805F33D1002301932C4BFB
:1020D0001A6C42F080521A641B6C03F08053019317
:1020E000019B0125284B1B6813F4807F23D0A36834
:1020F000012B34D0052B38D0214B1A6F22F001026E
:102100001A671A6F22F004021A67A368002B3DD0E9
:10211000FFF706FD06461A4B1B6F13F0020F46D160
:10212000FFF7FEFC801B41F288339842F3D903206D
:10213000C6E00025D6E7144A136843F480731360A1
:10214000FFF7EEFC0646104B1B6813F4807FCED1E0
:10215000FFF7E6FC801B0228F5D90320B0E0084A0F
:10216000136F43F001031367CFE7054B1A6F42F07B
:1021700004021A671A6F42F001021A67C5E700BF2E
:10218000003802400000474200700040FFF7C8FCE2
:102190000646524B1B6F13F0020F08D0FFF7C0FC2E
:1021A000801B41F288339842F3D9032088E0EDB9CF
:1021B000A369002B00F08380484A926802F00C0269
:1021C000082A51D0022B17D0454B00221A66FFF780
:1021D000A7FC0446414B1B6813F0007F42D0FFF779
:1021E0009FFC001B0228F5D9032069E03B4A136CD1
:1021F00023F080531364DBE7394B00221A66FFF7A4
:102200008FFC0546354B1B6813F0007F06D0FFF7A7
:1022100087FC401B0228F5D9032051E0E369226ABC
:102220001343626A43EA8213A26A5208013A43EAFC
:102230000243E26A43EA0263284A5360284B0122C0
:102240001A66FFF76DFC0446244B1B6813F0007FF1
:1022500006D1FFF765FC001B0228F5D903202FE00B
:1022600000202DE000202BE0012B2BD01B4B5B68C6
:1022700003F48001E269914226D103F03F02216A12
:102280008A4223D1616A47F6C0721A40B2EB811FBD
:102290001ED103F44031A26A5208013AB1EB024F59
:1022A00018D103F07063E26AB3EB026F14D100201F
:1022B00006E001207047012002E0012000E000203C
:1022C00002B070BD0120FBE70120F9E70120F7E72C
:1022D0000120F5E70120F3E70120F1E70038024093
:1022E0000000474208B5314B9B6803F00C03042BF8
:1022F00057D0082B57D12D4B5A6802F03F025B682C
:1023000013F4800F2AD0294B5968C1F3881C4FEA77
:102310004C11B1EB0C006EEB0E0E4FEA8E1343EA3C
:1023200090638101091A63EB0E03DB0043EA5173EA
:10233000C90011EB0C0C43F10003590200234FEAD2
:102340004C2041EADC51FDF75BFF184B5B68C3F39F
:10235000014301335B00B0FBF3F025E0134B5968F8
:10236000C1F3881C4FEA4C11B1EB0C006EEB0E0E62
:102370004FEA8E1343EA90638101091A63EB0E035F
:10238000DB0043EA5173C90011EB0C0C43F100036D
:10239000990200234FEA8C2041EA9C51FDF730FF5F
:1023A000D3E7034800E0034808BD00BF00380240FF
:1023B00000127A000024F400002800F09B8070B521
:1023C0000D4604464F4B1B6803F007038B4208D2AF
:1023D000CBB24C4A1370136803F007038B4240F0F2
:1023E0008B80236813F0020F17D013F0040F04D072
:1023F000454A936843F4E0539360236813F0080F51
:1024000004D0414A936843F4604393603E4A936822
:1024100023F0F003A1680B439360236813F0010FCE
:1024200032D06368012B21D09A1E012A25D9364A61
:10243000126812F0020F61D033498A6822F0030259
:1024400013438B60FFF76CFB06462F4B9B6803F032
:102450000C036268B3EB820F16D0FFF761FB801BA1
:1024600041F288339842F0D9032042E0264A1268AC
:1024700012F4003FE0D101203BE0234A126812F041
:10248000007FD9D1012034E01E4B1B6803F0070305
:10249000AB4207D9EAB21B4B1A701B6803F0070363
:1024A000AB422DD1236813F0040F06D0164A93686F
:1024B00023F4E053E1680B439360236813F0080FA3
:1024C00007D0114A936823F46043216943EAC103AA
:1024D0009360FFF707FF0C4B9B68C3F303130B4A92
:1024E000D35CD8400A4B18600A4B1868FFF7CCFA47
:1024F000002070BD012070470120FAE70120F8E7B5
:102500000120F6E7003C024000380240B0A300087A
:102510000000002008000020014B1868704700BF31
:102520000000002008B5FFF7F7FF044B9B68C3F3DA
:102530008223034AD35CD84008BD00BF0038024064
:10254000C0A3000808B5FFF7E7FF044B9B68C3F37F
:102550004233034AD35CD84008BD00BF0038024074
:10256000C0A300082DE9F04782B00546884617460B
:102570001E46FFF7D5FA0A9B1B1A03EB0609FFF765
:10258000CFFA82462B4B1B68C3F3CB3309FB03F313
:1025900001932B689C6838EA04030CBF4FF0010CD0
:1025A0004FF0000CBC4540D0B6F1FF3FF1D0FFF733
:1025B000B7FAA0EB0A0048450AD2B9F1000F07D0DC
:1025C000019A02B14A46019B013B01939146E0E723
:1025D0002A68536823F0E00353606B68B3F5827F89
:1025E0000BD0AB6AB3F5005F14D0012385F85130EE
:1025F000002385F85030032018E0AB68B3F5004F96
:1026000002D0B3F5806FECD12A68136823F0400341
:102610001360E6E72A68136823F4005313602A68FE
:10262000136843F400531360DFE7002002B0BDE8F5
:10263000F08700BF0000002010B584B00446164BA0
:102640001868164BA3FB0030400D4FF47A7303FB60
:1026500000F003906368B3F5827F0BD0039BBBB19E
:10266000039B013B039323689B6813F0800FF5D114
:1026700000200EE000920B46002280212046FFF74A
:1026800071FF30B1636D43F020036365032000E008
:10269000002004B010BD00BF00000020819F5E1626
:1026A00010B582B004460B464168B1F5827F14D064
:1026B0006168B1F5827F2AD1A168B1F5806F19D028
:1026C0000092002280212046FFF74CFF30B3636D5B
:1026D00043F020036365032020E08168B1F5004FDB
:1026E00002D0B1F5806FE3D12068016821F040018C
:1026F0000160DDE70092002201212046FFF732FF52
:1027000060B1636D43F020036365032006E000922F
:10271000002201212046FFF725FF08B902B010BDB5
:10272000636D43F0200363650320F7E700285AD068
:1027300010B50446436A33B94368B3F5827F05D0C8
:102740000023C36102E00023036143610023A3620D
:1027500094F85130002B40D0022384F85130226885
:10276000136823F040031360636803F48273A26864
:1027700002F404421343E26802F400621343226944
:1027800002F002021343626902F001021343A269DC
:1027900002F400721343E26902F038021343226A22
:1027A00002F080021343A26A02F40052216813432C
:1027B0000B60638B03F00403626A02F0100221686D
:1027C00013434B602268D36923F40063D361002074
:1027D0006065012384F8513010BD84F850302046E4
:1027E000FFF736F8B8E7012070472DE9F04383B0D2
:1027F0001D4690F85030012B00F0D18004468846E9
:102800009146012380F85030FFF78AF9074694F883
:102810005160F6B2012E40F0AF80B8F1000F00F029
:10282000AC80B9F1000F00F0A880032384F8513088
:1028300000236365C4F83080A4F83490A4F836907F
:10284000A363A387E38763642364A368B3F5004F9E
:102850001ED023681A6812F0400F03D11A6842F0A4
:1028600040021A60E368B3F5006F1CD0636813B1CF
:10287000B9F1010F52D1226B236812781A73236BBE
:1028800001332363E38E9BB2013B9BB2E38645E0B9
:102890002268136823F0400313602268136843F42E
:1028A00080431360D5E7636813B1B9F1010F16D106
:1028B000226B23681288DA60236B02332363E38E72
:1028C0009BB2013B9BB2E38609E0FFF729F9C01BED
:1028D000A84202D3B5F1FF3F59D1002D59D0E38E64
:1028E0009BB2002B33D023689A6812F0020FECD011
:1028F000226B1288DA60236B02332363E38E9BB270
:10290000013B9BB2E386EAE7FFF70AF9C01BA84246
:1029100002D3B5F1FF3F3ED1002D3ED0E38E9BB2F6
:10292000ABB123689A6812F0020FEDD0226B1278D7
:102930001A73236B01332363B4F836C01FFA8CFC7F
:102940000CF1FF3C1FFA8CFCA4F836C0E6E73A46CF
:1029500029462046FFF770FE08B120236365A3686F
:1029600033B901932368DA6801929B680193019B54
:10297000636D13B9002600E00226012384F851306C
:10298000002384F85030304603B0BDE8F0830326BE
:10299000F3E70326F1E70326EFE70326EDE7022638
:1029A000F1E72DE9F04383B01F460A9D90F85030BF
:1029B000012B00F01081044688469146012380F8DF
:1029C0005030FFF7ADF8064694F85130DBB262683C
:1029D000012B0AD0B2F5827F40F0E380A268002A82
:1029E00040F0E980042B40F0E880B8F1000F00F0DF
:1029F000E680B9F1000F00F0E480002F00F0E380E2
:102A000094F85130DBB2042B02D0052384F8513006
:102A100000236365C4F83890E787A787C4F830803F
:102A2000E786A7862364636423681A6812F0400F60
:102A300003D11A6842F040021A60E368B3F5006FF0
:102A400011D063680BB1012F0BD1226B2368127870
:102A50001A73236B01332363E38E9BB2013B9BB25A
:102A6000E38601276BE063680BB1012F0BD1226B6A
:102A700023681288DA60236B02332363E38E9BB2F0
:102A8000013B9BB2E38601271CE023689A6812F0A1
:102A9000010F0ED0E28F92B25AB1DA68A36B1A809E
:102AA000A36B0233A363E38F9BB2013B9BB2E3872B
:102AB0000127FFF735F8801BA84203D3B5F1FF3F8C
:102AC00040F08380E38E9BB21BB9E38F9BB2002B57
:102AD00053D023689A6812F0020FD6D0E28E92B2D9
:102AE000002AD2D0002FD0D0226B1288DA60236B5C
:102AF00002332363E38E9BB2013B9BB2E386002744
:102B0000C3E723689A6812F0010F0ED0E28F92B2E9
:102B10005AB1DA68A36B1A70A36B0133A363E38F16
:102B20009BB2013B9BB2E3870127FEF7F9FF831BB2
:102B3000AB4202D3B5F1FF3F49D1002D49D0E38E1E
:102B40009BB213B9E38F9BB2BBB123689A6812F0B2
:102B5000020FD6D0E28E92B2002AD2D0002FD0D06F
:102B6000226B12781A73236B01332363E38E9BB2BB
:102B7000013B9BB2E3860027C3E732462946204645
:102B8000FFF75AFD48B9A36863B901932368DA686F
:102B900001929B680193019B04E02023636501205F
:102BA00000E00220012384F85130002384F85030E3
:102BB00003B0BDE8F0830220F4E70220F2E7012031
:102BC000F0E70120EEE70120ECE70320EAE703202D
:102BD000E8E70320E6E70220EAE72DE9F04383B0C7
:102BE0000446884691461D464068B0F5827F38D03D
:102BF00094F85030012B00F0AE80012384F850305F
:102C0000FEF78EFF074694F85160F6B2012E40F0B1
:102C10008F80B8F1000F00F08C80B9F1000F00F048
:102C20008880042384F8513000236365C4F8388019
:102C3000A4F83C90A4F83E902363A386E386236423
:102C40006364A368B3F5004F19D023681A6812F0C3
:102C5000400F03D11A6842F040021A60E3681BB3C8
:102C600041E0A368002BC3D1042384F851300095C0
:102C700013460A462046FFF794FE06465FE02268A8
:102C8000136823F0400313602268136823F4804321
:102C90001360DAE7FEF744FFC01BA84202D3B5F188
:102CA000FF3F50D1002D50D0E38F9BB2002B33D08B
:102CB00023689A6812F0010FECD0A26B1B7B137093
:102CC000A36B0133A363E38F9BB2013B9BB2E3870A
:102CD000EAE7FEF725FFC01BA84202D3B5F1FF3F8C
:102CE00035D1002D35D0E38F9BB2ABB123689A6804
:102CF00012F0010FEDD0DA68A36B1A80A36B0233D8
:102D0000A363B4F83EC01FFA8CFC0CF1FF3C1FFA21
:102D10008CFCA4F83EC0E6E73A4629462046FFF779
:102D2000BFFC08B120236365636D13B9002600E082
:102D30000226012384F85130002384F850303046B5
:102D400003B0BDE8F0830326F3E70326F1E703268B
:102D5000EFE70326EDE70226F1E7026802F10C0334
:102D600053E8003F23F490730C3242E8003100290D
:102D7000F3D1026802F1140353E8003F23F001038A
:102D8000143242E800310029F3D1036B012B05D046
:102D9000202380F83E30002303637047026802F16D
:102DA0000C0353E8003F23F010030C3242E80031DB
:102DB0000029F3D1ECE790F83D30DBB2212B01D0B4
:102DC000022070478368B3F5805F17D0036A5A1CEE
:102DD00002621A7803685A60C38C9BB2013B9BB2B3
:102DE000C3844BB90268D36823F08003D3600268C0
:102DF000D36843F04003D360002070470369002B81
:102E0000E4D1036A1B880268C3F308035360036AB2
:102E100002330362E0E7000038B504460268136934
:102E200023F44053C1680B43136183680269134361
:102E300042691343C2691A430168CB6823F41643FD
:102E400023F00C031343CB600268536923F44073EF
:102E500081690B4353610368314A934206D002F5FE
:102E60008062934202D0FFF75DFB01E0FFF76AFB4F
:102E7000E369B3F5004F29D00021031849411B181D
:102E800041F10001C90041EA5371DB001818636881
:102E90004FEA83024FEA937341F10001FDF7B0F965
:102EA000204DA5FB00325109642303FB11031B01D4
:102EB0003233A5FB03235B0903F0F00202EB01129E
:102EC00003F00F03216813448B6038BD0023021800
:102ED00043EB0301121841F10001C90041EA5271AC
:102EE000D200101841F10001626892185B41FDF7B1
:102EF00087F90C4DA5FB00325109642303FB110334
:102F0000DB003233A5FB03235B095A0002F4F8729D
:102F100002EB011203F00703216813448B60D4E72E
:102F2000001001401F85EB512DE9F84305460F467F
:102F300016469946DDF820802C68246837EA040399
:102F40000CBF4FF0010C4FF0000CB4452DD1B8F17F
:102F5000FF3FF1D0B8F1000F05D0FEF7E1FDA0EB87
:102F600009004045E8D92A6802F10C0353E8003F04
:102F700023F4D0730C3242E800310029F3D12A68DF
:102F800002F1140353E8003F23F00103143242E836
:102F900000310029F3D1202385F83D3085F83E30FB
:102FA000002385F83C30032000E00020BDE8F883D2
:102FB00058B310B5044690F83D300BB3242384F881
:102FC0003D302268D36823F40053D3602046FFF7D6
:102FD00023FF2268136923F4904313612268536925
:102FE00023F02A0353612268D36843F40053D3606B
:102FF00000202064202384F83D3084F83E3010BD4A
:1030000080F83C30FEF700FDD8E7012070472DE93D
:10301000F04182B01E4690F83D30DBB2202B54D1F7
:1030200004460D469046002953D0002A53D090F80C
:103030003C30012B51D0012380F83C300023036445
:10304000212380F83D30FEF76BFD0746A4F824806D
:10305000A4F82680A368B3F5805F05D04FF0000880
:10306000002384F83C3012E0236913B14FF00008CC
:10307000F6E7A8460025F3E738F8023B2268C3F3D9
:1030800008035360E28C92B2013A92B2E284E38C7C
:103090009BB273B100963B46002280212046FFF789
:1030A00043FFE0B9002DE7D015F8012B23685A60E3
:1030B000E8E700963B46002240212046FFF734FF18
:1030C00078B9202384F83D3000E0022002B0BDE84A
:1030D000F0810120FAE70120F8E70220F6E703205B
:1030E000F4E70320F2E7704708B50168CA6822F0E8
:1030F0004002CA60202280F83D20FFF7F4FF002044
:1031000008BD704708B5806B0023C385C384FFF7F3
:10311000F8FF08BD704790F83E30DBB2222B67D134
:103120008368B3F5805F4DD0826AB3F5805F04D0C9
:10313000002B54D10369002B51D103685B681370D5
:10314000836A01338362C38D9BB2013B9BB2C3850B
:10315000002B4FD100B583B00268D36823F0200361
:10316000D3600268D36823F48073D3600268536924
:1031700023F001035361202380F83E30036B012BC1
:1031800033D100230363026802F10C0353E8003FCC
:1031900023F010030C3242E800310029F3D1036818
:1031A0001A6812F0100F06D0002201921A680192DC
:1031B0005B680193019B818DFFF7ACFF002003B09A
:1031C0005DF804FB0269002AAED1826A03685B687D
:1031D000C3F308031380836A02338362B3E703688F
:1031E0005B6803F07F031370AAE7FEF7C9F9E5E710
:1031F000022070470020704730B583B00446026853
:103200001368D068516913F00F0505D113F0200F32
:1032100002D010F0200F19D12DB111F0010119D1F8
:1032200010F4907F16D1216B01297DD013F0800F0F
:1032300003D010F0800F40F0158113F0400F03D041
:1032400010F0400F40F0128103B030BD2046FFF770
:1032500062FFF9E713F0010F06D010F4807F03D06E
:10326000226C42F00102226413F0040F04D019B161
:10327000226C42F00202226413F0020F04D019B152
:10328000226C42F00402226413F0080F07D010F001
:10329000200F00D119B1226C42F008022264226C86
:1032A000002AD1D013F0200F02D010F0200F29D126
:1032B00023685B6903F04003226C12F0080F00D111
:1032C00063B32046FFF749FD23685B6913F0400FA5
:1032D00020D0226802F1140353E8003F23F040039A
:1032E000143242E800310029F3D1A36B73B1614A73
:1032F0001A65A06BFEF7E4FC0028A5D0A06B036D57
:103300009847A1E72046FFF706FFD1E72046FFF7E1
:10331000F8FE99E72046FFF7F4FE95E72046FFF711
:10332000F0FE002323648FE713F0100F3FF47EAF0D
:1033300010F0100F3FF47AAF00230193136801934C
:1033400053680193019B536913F0400F50D0A26B57
:1033500013685B689BB2002B3FF476AFA18D994256
:103360007FF672AFE385D369B3F5807F37D02268EB
:1033700002F10C0353E8003F23F480730C3242E85F
:1033800000310029F3D1226802F1140353E8003F11
:1033900023F00103143242E800310029F3D12268FE
:1033A00002F1140353E8003F23F04003143242E8D3
:1033B00000310029F3D1202384F83E300023236319
:1033C000226802F10C0353E8003F23F010030C3293
:1033D00042E800310029F3D1A06BFEF727FCA18D54
:1033E000E38D9BB2C91A89B22046FFF793FE2BE703
:1033F000A18DE38D9BB2C91A89B2E38D9BB2002BDC
:103400003FF422AF00293FF41FAF226802F10C0302
:1034100053E8003F23F490730C3242E80030002858
:10342000F3D1226802F1140353E8003F23F00103B3
:10343000143242E800300028F3D1202384F83E30D3
:1034400000232363226802F10C0353E8003F23F0BA
:1034500010030C3242E800300028F3D12046FFF779
:1034600059FEF1E62046FFF7A6FCEDE62046FFF701
:103470003BFEE9E60531000881628285C2850023B2
:103480000364222280F83E2080F83C30036923B197
:103490000268D36843F48073D3600268536943F0D1
:1034A000010353610268D36843F02003D360002016
:1034B000704708B590F83E30DBB2202B0DD171B1CA
:1034C0007AB190F83C30012B0DD0012380F83C30CC
:1034D00000230363FFF7D0FF00E0022008BD0120B6
:1034E000FCE70120FAE70220F8E7000008B50349ED
:1034F000034800F001FF034B187008BDCC5A0020B0
:1035000010000020D05A0020002070470346C0B1B0
:10351000012818D1042918D8DFE801F003050A0FA3
:103520000300184670474FF4206313600846704745
:103530004FF48051118018467047012111601846E0
:103540007047012070470420704704207047000036
:1035500008B50E4B01221A70A0B190420FD14FF462
:10356000FA731A46013B9BB2002AFAD1FDF7E2FF3B
:1035700040B9012000F04CF8044B187002E0034BF6
:1035800001221A70014B187808BD00BF0C00002002
:1035900008B50C4B01221A7088B190420CD1FDF78E
:1035A0004FFE28B1074A137803F0FE03137006E0BC
:1035B000044B01221A7002E0024B01221A70014BE7
:1035C000187808BD0C00002050B108B596460128B7
:1035D00007D11A030EF5C000FDF7F6FD002001E04B
:1035E0007047042008BD80B170B50D461E46012805
:1035F0000CD102F5C0042046FDF778FE32032946BF
:103600002046FDF7F3FE002001E07047042070BD66
:1036100008B5044B03EB8002526852680344187BE0
:10362000904708BD005B002008B5084B1B5C53B9F0
:10363000064B01221A5403EB8002526812681844A8
:10364000007B904708BD0020FCE700BF005B002026
:1036500038B5044C04EB80056D68AD680444207BEC
:10366000A84738BD005B002038B5044C04EB80054A
:103670006D68ED680444207BA84738BD005B0020DE
:1036800010B5044B03EB8004646824690344187B81
:10369000A04710BD005B00204278007840EA02207D
:1036A0007047C278837843EA0222437843EA0223D0
:1036B000007840EA032070470170090A41707047A2
:1036C0000170C1F307234370C1F307438370090EF0
:1036D000C1707047944632B10A78013102700130EE
:1036E000BCF1010CF8D1704701700130013AFBD1F7
:1036F00070470000002302E010BC70470133012B2B
:1037000011D81A0108498A588242F7D110B41A0117
:1037100000248C500133012BEED81A0102498A583B
:103720008242F7D1F3E77047DC5A00200146006877
:1037300038B1024613781F2B06D93A2B04D0013238
:10374000F8E74FF0FF3070473A2B01D00020704768
:10375000034613F8010B303809280CD89A4202D0DE
:103760004FF0FF307047012802D94FF0FF3070470B
:1037700001320A6070474FF0FF3070472DE9F04189
:10378000C57815B92846BDE8F0810446476B00F1BD
:10379000380801233A4641464078FFF765FF054661
:1037A000A0B90023E370A36AFB1A226A9342E9D20C
:1037B000A67808E0236A1F4401233A464146607810
:1037C000FFF752FF013E012EF4D8DBE70125D9E7D0
:1037D00070B5436B8B4202D10026304670BD044663
:1037E0000D46FFF7CBFF06460028F6D101232A46F7
:1037F00004F138016078FFF72BFF10B101264FF07C
:10380000FF356563E9E7000038B504460023C3705F
:103810004FF0FF334363FFF7DBFF30BB054604F295
:103820003620FFF739FF4AF6552398421FD194F806
:103830003830E92B07D0A36B03F0FF130D4A9342F6
:1038400001D0022514E004F16E00FFF72AFF20F0FA
:103850007F40094B98420BD004F18A00FFF721FF0B
:10386000064B984204D0022502E0042500E003251F
:10387000284638BDEB009000464154004641543381
:103880002DE9F04F87B00D46164600230B60FFF779
:103890004DFF071EC0F26681BF4B53F82740002C36
:1038A00000F065812C6006F0FE06237873B1607825
:1038B000FFF7AEFE10F0010508D1002E00F0538195
:1038C00010F0040F00F04F810A254CE10023237013
:1038D000F8B26070FFF7A8FE10F0010F40F04981C8
:1038E0001EB110F0040F40F0468104F10C020221D9
:1038F0006078FFF7C5FE0546002840F03E81A289AA
:10390000A2F500739BB2B3F5606F00F23881531ECD
:103910001A4201D0012526E100212046FFF774FF5D
:10392000022800F0C1800026042800F02A81012826
:1039300000F2298104F14300FFF7AEFEB4F80C80D9
:10394000404540F0228104F14E00FFF7A5FE0746F6
:1039500020B904F15C00FFF7A4FE0746276294F843
:103960004820A270531EDBB2012B00F2108107FB2E
:1039700002F3009394F84590A4F80A90B9F1000F6F
:1039800000F0078109F1FF3319EA030F40F00C81C1
:1039900004F14900FFF780FE824620814FEA581B60
:1039A000B0FBFBF30BFB13039BB2002B40F0FE803C
:1039B00004F14B00FFF770FE019020B904F15800AC
:1039C000FFF76FFE019004F14600FFF765FE014628
:1039D000002800F0ED80009BC318BAFBFBFB5B44A2
:1039E000019A9A42C0F0E680D21AB2FBF9F04A4539
:1039F000C0F0E2804FF6F57290426DD94FF0030BA4
:103A000040F6F572904201D84FF0010B00F1020927
:103A1000C4F81C9066628A19A26233442363BBF126
:103A2000030F5CD0BAF1000F00F0CC80009B1A4469
:103A3000E262BBF1020F63D009EB490209F0010316
:103A400003EB52034344013BB3FBF8F8B84500F2E3
:103A5000BB804FF0FF33A361636180232371BBF10F
:103A6000030F50D084F800B04C4A138801339BB246
:103A70001380E3802046FFF73DFE74E0002006AB94
:103A800003EB860343F8100C0136032E0ED804F125
:103A90003800330103F5DF7318440379002BEDD0B0
:103AA0000830FFF7FEFDEAE70026EEE700270AE010
:103AB00031462046FFF7A8FE01287FF635AF0137D3
:103AC000032F3FF631AF06AB03EB870353F8106CBF
:103AD000002EEDD10320F2E74FF0020B90E704F146
:103AE0006200FFF7D9FD002868D1BAF1000F67D155
:103AF00004F16400FFF7D5FDE0624FEA8903A1E716
:103B00004FEA49039EE704F16800FFF7C5FD01286D
:103B1000A8D1711C2046FFF75BFE0028A2D100232C
:103B2000237104F23620FFF7B7FD4AF65523984279
:103B300098D104F13800FFF7B4FD194B984291D1A8
:103B400004F50770FFF7ADFD164B98428AD104F5D6
:103B50000870FFF7A6FDA06104F50970FFF7A1FD4D
:103B600060617FE70B25284607B0BDE8F08F0C2584
:103B7000F9E70325F7E70A25F5E70125F3E701252E
:103B8000F1E70125EFE70D25EDE70D25EBE70D2525
:103B9000E9E70D25E7E700BFD45A0020FC5A0020D2
:103BA00052526141727241610D25DCE70D25DAE761
:103BB0000D25D8E70D25D6E70D25D4E70D25D2E74D
:103BC0000D25D0E70D25CEE70D25CCE770B584B0E7
:103BD000019000911646039103A8FFF7A7FD041E6C
:103BE0001CDB104B53F8245025B12846FFF782FD0B
:103BF00000232B70019B0BB100221A70019B094A14
:103C000042F8243063B1012E02D0002004B070BD10
:103C1000002201A96846FFF733FEF7E70B20F5E71E
:103C20000020F3E7D45A00202DE9F04F8FB009901F
:103C3000894615461E4609A8FFF778FD0028C0F200
:103C4000F182A34B53F820300BB100221A70C4B29A
:103C50002046FFF7E9FC10F0010F40F0E58210F07C
:103C6000040F40F0E3820CAA03212046FFF708FD71
:103C700038B90C9B2BB1B3F5004F02D85A1E134232
:103C800001D001230C930DF1360202212046FFF7EB
:103C9000F7FC002840F0CE82BDF83670A7F500731F
:103CA0009BB2B3F5606F00F2C7827B1E1F4240F0EB
:103CB000C58215B1AF4200F2C382B5F1807F00F238
:103CC000C1826B1E13EA050BCDF804B040F0BC8234
:103CD000B5FBF7F5189BB3FBF7F808FB07F7002FC8
:103CE00000F0B4820BAA01212046FFF7C9FC00288E
:103CF00040F0AE8219F00803029301D14FF03F0B60
:103D00000B9A5A45C0F0A682A2EB0B020B927F2AB7
:103D100040F2A282802D00F2A18219F0020106D0A9
:103D200009F00703022B5FD019F0010F63D019F0DF
:103D3000010F00F095824FF0020A0394CDF8108035
:103D40000597BAF1030F61D0002D00F08780A946D6
:103D5000B2FBF9F340F6F570834240F290800233F3
:103D60005B00BDF836000344013BB3FBF0F34FF4B6
:103D7000804CBCFBF0FC4FF0010E0EEB0B0803EB8C
:103D8000080060440C9F3C18013C7F4227403F1ACA
:103D9000BAF1030F7BD03B4400EB0910A0EB0B0002
:103DA0008242C0F06D82A2EB0E00C01AA0EB0C00A4
:103DB000B0FBF9F0BAF1030F6CD0BAF1020F40F08A
:103DC0008F804FF6F574A04273D91DB94FEA4903AD
:103DD000402B17D9C1B9002D40F056824FEA490552
:103DE000802DAED90E2022E24FF0030A0394CDF8C5
:103DF00010800597A5E74FF0030A0394CDF81080D3
:103E000005979EE71D469CE74FF0030AB5B1A9460A
:103E1000B2FBF9F0831CBDF8364004EB8303013B91
:103E2000B3FBF4F3A0F57F40F6382A4CA04200F231
:103E30002582DDF804C04FF0200E9EE7540C284682
:103E40004FF0010902E001304FEA4909224B33F8F3
:103E50001030002BDCD0A342F5D9D9E7140B28464B
:103E60004FF0010902E001304FEA49091B4B33F8DA
:103E70001030002B3FF46CAFA342F4D968E703EB9A
:103E8000430301335B0803334FF0010A69E7BE4483
:103E9000B84481E74FF6F574A0428ED8002D40F06B
:103EA000F1814FEA5905B9F1010F3FF64AAF0E20F3
:103EB000BDE140F6F574A04212D8002D40F0E68135
:103EC0004FEA4905802D7FF63CAF0E20AFE100BFE1
:103ED000D45A0020FFFFFE0F0CA40008FCA300082A
:103EE000CDF81CC0CDF820E006934546039CDDF8D4
:103EF0001080059F0490BAF1010F04D140F6F573CC
:103F0000984200F2C581BDF8362000213046FFF707
:103F1000EBFB0B22D3493046FFF7DCFBBDF8361034
:103F200006F10B00FFF7C8FB86F80D90BDF82010D6
:103F300006F10E00FFF7C0FB0123337406F11100F8
:103F4000BAF1030F00F083804FF40071FFF7B4FB68
:103F50000B99B1F5803F7CD289B206F11300FFF7CF
:103F6000ABFBF82373753F2106F11800FFF7A4FBA4
:103F7000FF2106F11A00FFF79FFB594606F11C00CE
:103F8000FFF79EFBBAF1030F68D0FFF7BDFA0146B9
:103F900006F12700FFF794FBBDF8181006F1160094
:103FA000FFF78AFB802386F82430292386F8263001
:103FB0001322AD4906F12B00FFF78CFB06F5FF73CA
:103FC00003934AF655211846FFF776FB01235A461C
:103FD00031462046FFF748FB002840F05B81BAF1EC
:103FE000030F63D03A4600213046FFF77DFBCDF842
:103FF0001090A946019B002B00F08D804D46DDF806
:104000001090BAF1030F00F0BF80079FA9463D460C
:10401000474528BF45462B464A4631462046FFF7CE
:1040200023FB002840F03A81A9447F1BEFD1BAF16D
:10403000030F00F0AF800B9BB3F5803F80F0EF8063
:10404000BAF1020F00F0A3804FF00108A4E00021B4
:104050007CE706F12000FFF733FB82E7FFF754FA15
:10406000014606F14300FFF72BFB069906F12400F9
:10407000FFF726FB022106F12C00FFF721FB0121AF
:1040800006F13000FFF718FB062106F13200FFF7BA
:1040900013FB802386F84030292386F84230132210
:1040A000724906F14700FFF715FB87E701230BF183
:1040B000060231462046FFF7D7FABDF83620002128
:1040C0003046FFF711FB6A493046FFF7F9FA6949B4
:1040D00006F5F270FFF7F4FA049B591E06F5F4702A
:1040E000FFF7EEFA022106F5F670FFF7E9FA4AF655
:1040F00055210398FFF7E0FA01230BF1070231463F
:104100002046FFF7B1FA01230BEB030231462046AC
:10411000FFF7AAFA66E7BAF1030F22D0BAF1010F4E
:1041200030D06FF007013046FFF7CAFA069F3D46D0
:10413000474528BF45462B464A4631462046FFF7AD
:1041400093FA002840F0A880BDF8362000213046C0
:10415000FFF7CAFAA9447F1BE9D1019B0133019300
:1041600048E76FF007013046FFF7AAFA4FF0FF313A
:10417000301DFFF7A5FA6FF0704106F10800FFF758
:104180009FFAD3E73C49CEE74F46A9463FE74FF0B9
:10419000040801E04FF00C08029BC3BBBDF83620B9
:1041A00000213046FFF7A0FA4AF655210398FFF7A1
:1041B00083FA002586F8BE51012786F8BF7186F87C
:1041C000C07186F8C15186F8C2810B9B5B4443F6EF
:1041D000C162B3FBF2F3FE2286F8C3219A0842F0D3
:1041E0003F0286F8C42186F8C531594606F5E370CA
:1041F000FFF766FA0B9906F5E570FFF761FA3B46A3
:104200002A4631462046FFF72FFA002848D10022DF
:1042100011462046FFF734FA48B1012007E04FF07D
:104220000608B9E70B2002E0032000E00A200FB0E7
:10423000BDE8F08F0120FAE70120F8E70120F6E75A
:104240001320F4E71320F2E71320F0E70E20EEE747
:104250000120ECE70E20EAE70E20E8E71320E6E76E
:104260001320E4E7C8A30008E8A30008D4A30008CB
:104270005252614172724161F8FFFF000E20D6E791
:104280000E20D4E70E20D2E70E20D0E70E20CEE796
:104290000E20CCE70120CAE70120C8E70120C6E7CD
:1042A0000120C4E7134B9B7BDBB2012B01D901201A
:1042B000704710B404460F4B93F80EC05FFA8CFCA5
:1042C000002003F80C0093F80EC003EB8C0CCCF824
:1042D00004409C7B1C4422739A7B541CE4B29C7364
:1042E00030320A703A234B702F238B70C87010BC89
:1042F000704700BF005B002008B50022FFF7D2FF27
:1043000008BD0000DFF834D00D480E490E4A0023E6
:1043100002E0D458C4500433C4188C42F9D30B4A79
:104320000B4C002301E013600432A242FBD3FDF7E3
:104330004FFB00F017F8FDF7EFF97047000002207F
:1043400000000020D009002034A80008D009002077
:10435000585B0020FEE70000014B1868704700BF63
:104360002400002070B50D4E0D4D761BB61006D002
:10437000002455F8043B01349847A642F9D1094E70
:10438000094D761B05F0B0FFB61006D0002455F895
:10439000043B01349847A642F9D170BD28A8000813
:1043A00028A8000830A8000828A80008830730B50E
:1043B00048D0541E002A3FD0CAB2034601E0013C57
:1043C0003AD303F8012B9D07F9D1032C2DD9CDB297
:1043D00045EA05250F2C45EA054536D9A4F110021A
:1043E00022F00F0C03F1200EE6444FEA121C03F1F9
:1043F000100242E9045542E9025510327245F8D1E3
:104400000CF1010214F00C0F03EB021204F00F0C7C
:1044100013D0ACF1040323F003030433134442F834
:10442000045B9342FBD10CF003042CB1CAB21C44D0
:1044300003F8012B9C42FBD130BD64461346002C8F
:10444000F4D1F9E703461446BFE71A46A446E0E76D
:104450000FB400B5074983B004AB086853F8042BC8
:104460008168019300F05EF803B05DF804EB04B0DE
:10447000704700BF2400002070B5054688B008468C
:104480000C46FCF75DF8224EAA6B059001214318FB
:10449000CDE9066104A8022104940393AC6801905D
:1044A000029122B3636E13F0010FB4F90C309AB28B
:1044B00001D1980525D5910406D4626E43F40053CA
:1044C00022F40052A3816266284601AA214603F025
:1044D00003F9636E002814BF4FF0FF350A25DA0791
:1044E00002D4A3899B0506D5284608B070BD28468E
:1044F00002F0F4FED6E7A06D03F090FA284608B06B
:1045000070BDA06D03F088FAB4F90C309AB2D2E70E
:1045100020A40008024B01461868FFF7ADBF00BF9A
:10452000240000202DE9F04FD5B01C46079191469C
:104530000546099003F068FA0268179210460E9437
:10454000FBF7FEFF16901DB1AB6B002B00F02A822B
:10455000079A536EDD0740F13881B2F90C2091B211
:104560008F0409D4079B42F400529A8191B21A46F3
:104570005B6E23F4005353660E0740F1CB80079B1C
:104580001B69002B00F0C68001F01A030A2B00F013
:10459000CF8000242BAB4D46CDE92944CDE9194409
:1045A000CDE91B44129428939846189400230B9449
:1045B0000024CDE914342B78002B00F09D81AA460D
:1045C00004E01AF8013F002B00F0C780252BF8D13A
:1045D000BAEB050640F0C5809AF80030002B00F0D9
:1045E0008B8100234FF0FF329AF801608DF8833001
:1045F0000A930AF1010A08921F462B244FF0200962
:104600000AF1010AA6F120035A2B00F2ED80DFE83F
:1046100013F0EB02EB00EB00E602EB00EB00EB002B
:104620006A00EB00EB005C028002EB0067028A028A
:10463000EB0085025B005B005B005B005B005B00E6
:104640005B005B005B00EB00EB00EB00EB00EB00C2
:10465000EB00EB007A01EB00F801D2017A017A015C
:104660007A01EB00EB00EB00EB00E102EB00EB006A
:104670002D02EB00EB00EB000202EB00A402EB00CA
:10468000EB008307EB00EB00EB00EB00EB00EB0033
:10469000EB00EB007A01EB00F801D4017A017A011A
:1046A0007A01C702D401CD01EB00D402EB006C0209
:1046B0002F02B502CD01EB0002027E008007EB0065
:1046C000EB006107EB007E00A6F1300300221AF830
:1046D000016B02EB820203EB4202A6F13003092BCD
:1046E000F5D90A928EE7DDF824B0584603F08CF92C
:1046F00043681B931846FBF723FF1C900646584659
:1047000003F082F983681993002E40F0CD869AF861
:10471000006075E7079D0998294601F0ADFC002867
:1047200041F01C83A98901F01A030A2B7FF431AFF1
:10473000079AB2F90E30002BFFF62BAF536ED80755
:1047400002D4890541F13B810799099823464A46DD
:1047500055B0BDE8F04F01F04FBCBAEB050600F0D4
:10476000CB802A9B33442A93299B0133072BC8E92A
:104770000056299305DC08F108080B9B33440B9382
:104780002AE70799099828AA04F086FB80B90DF159
:10479000AC08F2E70799099828AA04F07DFB0028E5
:1047A00000F09B800D9B1BB10998194602F08EFE0C
:1047B000079A536ED90740F1EA8093895B0601F1AD
:1047C000D9820B9855B0BDE8F08F079BB3F90C2048
:1047D000900591B23FF5C4AE1D46986D03F01CF9EB
:1047E000B5F90C2091B2BBE6002E00F085800022C6
:1047F0008DF8EC608DF883200123CDE90C3206930F
:1048000008920F92139210923BAD17F0020302D060
:1048100006990231069117F0840B07D10A99069880
:10482000A1EB0009B9F1000F00F370832A9C8AB153
:10483000299A0DF1830101320134C8F80010072ACA
:104840004FF001012A942992C8F8041000F3B683AE
:1048500008F1080883B1299B21AA01330234C8F862
:104860000020072B4FF002022A942993C8F8042055
:1048700000F3B28308F10808BBF1800F00F06982F1
:10488000089B0C9AA3EB020BBBF1000F00F3AA826A
:10489000FB0500F100820C9BC8F804301C44299BE6
:1048A000C8F800500133072B2A94299300F3228380
:1048B00008F10808780705D50A9B069A9D1A002D6D
:1048C00000F39683DDE90A2306998A42ACBF9B1860
:1048D0005B180B93002C7FF45DAF002329930D9B95
:1048E0001BB10D99099802F0F1FD0DF1AC08554688
:1048F0002B78002B7FF463AE2A9B002B41F0D381F1
:104900000023299354E70E9B073323F00702F2E8B4
:104910000234CDE91434DDE9143424F000440E925D
:10492000994618462146B54B4FF0FF32FCF7B8FBCD
:10493000002840F0EF84B14B484621464FF0FF324B
:10494000FCF790FB002840F0E584DDE9140100222B
:104950000023FCF77DFB002840F067879DF883204B
:10496000A74DA84B27F080070321472EC8BF1D463F
:1049700000230D9306910C9108930F9313931093BA
:10498000002A3FF442AF069B013306933DE7079BA5
:104990009B899A053FF512AF079CA06D03F03EF886
:1049A000A3890BE7099802F099FCD1E59AF8006019
:1049B00047F0200724E647F01007BA060E9B40F1A7
:1049C0003B84073323F007031A465B6852F8084B11
:1049D0000E929946002BC0F24C84089B013300F0E4
:1049E000D88254EA090327F0800B40F0D382089B59
:1049F000002B40F0D4825F46002308930C9354AD03
:104A00001DE10E9B002253F8041B8DF883208DF8C6
:104A1000EC100E93F0E60E9C089B54F8045B4FF0EC
:104A200000098DF88390002D00F093855A1C00F04A
:104A300051861A4649462846FBF7F2FD0D9000289C
:104A400001F00E810D9BCDF820905B1B0C930E9412
:104A500023EAE3739DF883200693CDF83490CDF8D4
:104A60003C90CDF84C90CDF8409089E747F0100786
:104A700017F0200900F0D2830E9B073323F00703C1
:104A8000D3F8049053F8084B0E9327F4806B00235F
:104A900000228DF88320089A511C00F0B88054EA57
:104AA00009012BF0800740F0B180002A40F0F68524
:104AB000002BA1D11BF001030C9300F014843023D0
:104AC0008DF84F310DF24F15B9E00E9B53F8042BC2
:104AD0000A92002A80F2DA830A9A0E9352420A92CC
:104AE0009AF8006047F004078AE5BD0600F1D1841A
:104AF000FC0600F1D885780600F1A586B90540F1DD
:104B0000D2850E9B0B9953F8042B0E9311705546CA
:104B1000EEE69AF800608DF8834071E59AF800603F
:104B200047F080076CE5524612F8016B2A2E01F01F
:104B30003F82A6F13003092B924698BF002201F272
:104B4000BC801AF8016B02EB820203EB4202A6F171
:104B50003003092BF5D9089254E547F0100B1BF0F0
:104B6000200900F076830E9B073323F00703D3F868
:104B7000049053F8084B0E93012389E70E9B53F8DA
:104B8000044B0E93302378268DF884301E4B1893F7
:104B900047F0020B8DF885604FF00009022377E79C
:104BA0009AF80060682E03BF9AF8016047F4007716
:104BB0000AF1010A47F0400722E59AF800606C2EDE
:104BC00003BF9AF8016047F020070AF1010A47F095
:104BD000100715E59AF8006047F0080710E59AF805
:104BE000006047F001070BE59DF88330002B7FF450
:104BF0008EAD9AF800608DF8839001E5FFFFEF7F9E
:104C000024A4000828A4000834A40008BB46012BF3
:104C100000F0C081022B54AD20D1189A04F00F038C
:104C20002409D35C05F8013D44EA09744FEA1919D7
:104C300054EA0903F2D154AB5B1B5F460C9308990D
:104C40000C989DF8832081424FF00003B8BF0146C5
:104C50000D9306910F931393109391E604F00703BD
:104C6000E40844EA49744FEAD909303354EA0901A7
:104C70002A4605F8013DF1D11BF0010FDBD0302BA6
:104C8000D9D03023023A05F8013C54AB9B1A5F4659
:104C90000C931546D3E7652E40F3E680DDE9140159
:104CA00000220023FCF7CAF9002800F0DC81299BD0
:104CB000BF4AC8F80020013301340122072B2A948F
:104CC0002993C8F8042000F3CC8408F10808229B3B
:104CD000129A934280F2D682169B179A1C44C8E916
:104CE0000023299B2A940133072B299300F3248462
:104CF00008F10808129B5D1E002D7FF7DBAD102D1B
:104D0000299BDFF8B09240F3BD8449462246B9465C
:104D1000DDF824B0079C10260F4605E008F10808CE
:104D2000103D102D40F3AA8401331032072BC8E93F
:104D30000076CDE92932F1DD28AA2146584604F053
:104D4000ABF800287FF42EADDDE929320DF1AC0877
:104D5000E6E70A9B069AA3EB020BBBF1000F7FF775
:104D60008FADBBF1100F299ADFF848922CDD1D960C
:104D700021464E46079CDDF82490102306E0ABF157
:104D8000100BBBF1100F08F108081ADD01321031C9
:104D9000072AC8E90063CDE92921F0DD28AA2146C8
:104DA00048460DF1AC0804F077F800287FF4FAAC1F
:104DB000ABF1100BBBF1100FDDE929214FF010030F
:104DC000E4DCB1461D9E0C4601325C44072ACDE965
:104DD0002924C8F80090C8F804B000F3A08308F1B3
:104DE00008084DE5BBF1100F299ADFF8C8912DDDB9
:104DF00041462046A8464C46079DDDF824901023E6
:104E000006E0ABF1100BBBF1100F01F1080119DD49
:104E100001321030072AC1E90043CDE92920F0DD35
:104E200028AA2946484604F037F800287FF4BAAC8F
:104E3000ABF1100BBBF1100FDDE929202BA94FF0CE
:104E40001003E5DC4546A1468846044601325C4431
:104E5000072ACDE92924C8F80090C8F804B000F367
:104E6000D08108F1080813E5129B012B40F38081E3
:104E7000299EC8F80050013601340123072E2A94D8
:104E80002996C8F8043000F37C8308F10808169BC3
:104E9000179A01361C44072EC8E90023CDE929647E
:104EA00000F37C8308F10808DDE9140100220023E7
:104EB000FCF7C4F8002840F07881129B0136013BD2
:104EC00001351C44072EC8F800502996C8F8043054
:104ED0002A9400F35D8108F108081A9BC8F8043091
:104EE00001361C44072E24ABCDE92964C8F80030F4
:104EF0007FF7DEAC0799099828AA03F0CDFF0028B8
:104F00007FF450AC2A9C0DF1AC08D3E4B9F1100F3A
:104F1000DDE929212BDDCDE91D3B1F96DDF824B00D
:104F20004E461024A946079D04E0103E102E08F1BD
:104F3000080817DD0132204B1031072AC8E9003478
:104F4000CDE92921F1DD28AA294658460DF1AC0802
:104F500003F0A2FF00287FF425AC103E102EDDE9FF
:104F60002921E7DCDDE91D3B4D46B1461F9EC8F80F
:104F70000490013209EB0104072A0F49C8F8001018
:104F8000CDE9292400F351839DF8832008F1080816
:104F90004DE4BB460A2C79F1000380F00C833034D9
:104FA00001238DF84F415F460C930DF24F1546E6F5
:104FB00064A4000878A4000868A400080799099868
:104FC0001D9328AA03F068FF00287FF4EBAB2A9C0E
:104FD0001D9B0DF1AC083DE40799099828AA03F040
:104FE0005BFF00287FF4DEAB2A9C0DF1AC0843E4A4
:104FF000102D299B21DD099FDDF81C90102604E06F
:10500000103D102D08F1080817DD0133BB4A10349C
:10501000072BC8E90026CDE92934F1DD28AA494645
:1050200038460DF1AC0803F037FF00287FF4BAAB27
:10503000103D102DDDE92934E7DC0133AF4AC8F813
:1050400004502C44072BCDE92934C8F800207FF701
:1050500039AC0799099828AA03F01EFF00287FF4AD
:10506000A1AB2A9C2EE42299002940F31481DDF89B
:105070004090129B9945A8BF9946B9F1000F0BDDEE
:10508000299B01334C44072BC8E900592A942993E2
:1050900000F39A8508F10808109EB9F1000FA8BF27
:1050A000A6EB0906002E00F34683DDF840B0790533
:1050B000AB4400F1CE84229B129A934202DBFA07A2
:1050C00040F1B883169A17991444C8E90012299A36
:1050D0002A940132072A299200F3838508F10808EF
:1050E000129AAE18A6EB0B06D51AAE42A8BF2E46F2
:1050F000002E0DDD299BC8F800B001333444072B86
:10510000C8F804602A94299300F3F18508F108088F
:10511000002EA8BFAD1B002D7FF7CCAB102D299B17
:10512000DFF8DC9140F3AE8249462246B946DDF80D
:1051300024B0079C10260F4605E008F10808103D32
:10514000102D40F39B8201331032072BC8E9007603
:10515000CDE92932F1DD28AA2146584603F09CFE0C
:1051600000287FF41FABDDE929320DF1AC08E6E73A
:10517000FE073FF57DAE299EC8F800500136013488
:105180000123072E2A942996C8F804307FF7A3AE8E
:105190000799099828AA03F07FFE00287FF402AB44
:1051A000DDE929640DF1AC0897E6129B5D1E002D28
:1051B0007FF793AE102DDFF8489140F37F822246AF
:1051C0000897099C079F4FF0100B05E008F10808AD
:1051D000103D102D40F3708201361032072EC8E9C1
:1051E000009BCDE92962F1DD28AA3946204603F06B
:1051F00053FE00287FF4D6AADDE929620DF1AC0840
:10520000E6E70799099828AA03F046FE00287FF4EC
:10521000C9AA2A9C0DF1AC08FFF73ABB17F010039E
:1052200072D117F0400200F0BD820E9A52F8044B82
:105230000E929946A4B228E453F8044B0E93FB0651
:1052400056D47D0651D544F3C0394B4624B2FFF7FE
:10525000C1BB1BF0100340F036811BF0400200F090
:1052600092820E9A52F8044B0E929946A4B20123F0
:105270000EE42D2364428DF8833069EB4909BB4667
:10528000012308E4F8077FF515AB25E59AF80060DF
:105290000E93FFF7B5B9299B1A4AC8F800200133CD
:1052A00001340122072B2A942993C8F8042000F323
:1052B000708408F10808002940F01E82129A07F055
:1052C000010313433FF4F6AA169B1799E218C8E9A5
:1052D0000013299B2A920133072B299300F3618342
:1052E00008F1080819E254ADA9E4B80500F1B48248
:1052F0004FEAE4794B46FFF76DBB00BF68A4000896
:1053000078A4000864A400080E9B53F8044B0E9385
:10531000FFF7BBBBDDE9140102460B46FBF7C0FEFD
:10532000002840F0A085612E00F05085412E00F04D
:105330009982089B013326F02003069300F08F85A5
:10534000472B00F07985DDE9141247F480730F9341
:105350001346002BC0F2ED850C9300231D938B4662
:105360000D93069B462B00F04A84452B00F04F8599
:105370000899019126A9049123A9039122A90291D8
:1053800002210C9B099800915A4600F081FF069B70
:10539000472B054640F01C8617F0010FB9460F9FBA
:1053A00040F0D984269B5B1B1293069B472B00F091
:1053B0001883069B462B00F05F84229B1093109B62
:1053C000069A013B412A229300F0AA85F2B20021FD
:1053D000002BB8BF109B8DF89020BABFC3F101031A
:1053E0002D222B22092B8DF8912040F363850DF19E
:1053F0009F04BD4F2246104687FB0321DA17C2EBFC
:10540000A10202EB8201A3EB4101303100F8011C43
:1054100019466329134600F1FF32ECDC3033D9B270
:10542000831E9C4202F8011C40F2CE8513460DF10A
:10543000920201E013F8011B02F8011B9C42F9D112
:105440000DF1A1030DF192021B1A134424AA9B1A19
:105450001A93129B1A9A012B1A440C9240F37285EC
:105460000C9B169A13440C930C9A002329F4806722
:1054700022EAE27247F480770F9306921393109317
:105480001D9B002B40F0DE829DF883200893FFF7E0
:1054900077BA0E9B0B9853F8041B0E93C217C1E901
:1054A00000025546FFF724BA199B002B3FF42FA9A1
:1054B000199B1B78002B3FF42AA99AF8006047F447
:1054C0008067FFF79DB80E9B53F8044B0E930123A2
:1054D000FFF7DEBA854B189317F0200949D00E9BD1
:1054E000073323F00703D3F8049053F8084B0E93C7
:1054F000F80709D554EA090306D030238DF88560F2
:1055000047F002078DF8843027F4806B0223FFF701
:10551000BFBABB46FFF723BB754B1893DCE707996F
:10552000099828AA03F0B8FC00287FF43BA92A9C1C
:105530000DF1AC08FFF7A4B90799099828AA03F060
:10554000ABFC00287FF42EA92A9C0DF1AC08FFF7D4
:10555000D1BB062B294628BF062308950D952A4660
:105560000693644D0E940C930F9113911091FFF7D5
:1055700007BA17F0100369D00E9B53F8044B0E9333
:10558000B6E70799099828AA03F086FC00287FF45B
:1055900009A9DDE929640DF1AC0878E407990998B7
:1055A00028AA03F079FC00287FF4FCA8DDE929642F
:1055B0000DF1AC0878E40BF480630022CDE90CA86F
:1055C0000696DDF8648054AF16469A460CE0002338
:1055D000204649460A22FAF713FE0A2C79F1000305
:1055E0001BD3044689462F4620460A2200234946FB
:1055F000FAF706FE30327D1E013607F8012CBAF1AB
:10560000000FE4D098F800309E42E0D1FF2EDED0AB
:105610000A2C79F1000380F0F480CDF864801296B2
:10562000DDE90CA8069EFFF706BB079909981D93B4
:1056300028AA03F031FC00287FF4B4A89DF8832049
:105640002A9C1D9B0DF1AC08FFF7F1B817F0400242
:1056500000F0B6800E9A52F8044B0E929946A4B20E
:1056600046E70799099828AA03F016FC00287FF45A
:1056700099A82A9C0DF1AC08FFF729BB14463A46BD
:105680004F46914601332C44072BC8F80090C8F8C8
:105690000450CDE929347FF70BA92BE4012BBB463D
:1056A0007FF4B8AA7BE40E9B0B9953F8042B554664
:1056B00011600E93FFF71CB9089F144601362C4465
:1056C000072ECDE92964C8F80090C8F804507FF788
:1056D00002AC5DE52846CDF820900E94FAF730FF35
:1056E00003460C90FFF7B4B96766666634A40008F9
:1056F00048A400085CA40008169B1798E218C8E9A3
:105700000003299B2A920133072B299300F3498137
:1057100008F108080029C0F2FA821299C8F800506E
:1057200001338C18072BCDE92934C8F804107FF712
:10573000BFA8FFF7DFBB102E299BDFF8C09252DD18
:10574000484642462146A846B946099C079D4FF067
:10575000100B074603E00832103E102E3DDD0133EA
:105760001031072BC2E9007BCDE92931F3DD28AAEE
:105770002946204603F090FB00287FF413A8DDE9BA
:1057800029312BAAE8E70E9B1BF4007914BF53F8CC
:10579000044B53F8044B0E931CBF9146E4B2012313
:1057A000FFF776B90E9B17F4007914BF53F8044B3A
:1057B00053F8044B0E931CBF9146E4B2FFF765B952
:1057C0000E9B17F4007914BF53F8044B53F8044BA5
:1057D0000E931CBF9146E4B28AE6454690463A468F
:1057E0000C464F46914601333444072BCDE929340A
:1057F000C8F80090C8F8046000F3E68008F10808D3
:1058000053E41C9B1B99ED1A1A46284603F0D6FA5E
:1058100098F801300BB108F10108204649460A22E8
:1058200000230026FAF7ECFCDBE62D228DF883201E
:10583000FFF796B8129AAE18A6EB0B06D51AAE4231
:10584000A8BF2E4664E40E9B0B9953F8042B0E93CD
:1058500011805546FFF74CB844F3C0194B4664B26B
:10586000FFF7B8B830238DF8843058238DF8853091
:10587000089B632B47F0020400F39B8200230D93E7
:105880003BADDDE9141247F481730F931346002BEF
:105890002746C0F220820C9326F0200306930023B3
:1058A0008B461D93612E00F0ED82412E7FF459ADA1
:1058B00022AA0C99584603F0F1F900224FF07F53C9
:1058C000FBF754F902460B46CDE9102300220023D2
:1058D000FBF7B4FB08B101232293494B0C93089BBF
:1058E000CDE912A6CDE91E78DDF830A0DDE910671C
:1058F00003F1FF39AB46109506E00022002309F1C1
:10590000FF39FBF79BFBE8B93E4B00223046394696
:10591000FBF72CF90F460646FBF7D8FB0446FBF7CE
:10592000BBF80B46024639463046FAF767FF1AF8CD
:105930000430B9F1FF3FD8464D460BF8013B06460F
:105940000F46DAD1304639462F4BDDF848A0139E7A
:10595000CDF848800022A946DDF87C80109D1E9F6E
:10596000CDE91001FBF792FB002840F03482DDE91D
:105970001001254B0022FBF761FB10B1E10700F19C
:105980002A824B46002B06DB01335B4430220BF8A6
:10599000012B5B45FBD1ABEB0503B94612930F9F7F
:1059A00003E50799099828AA03F076FA00287EF4FF
:1059B000F9AEDDE9293222990DF1AC08AAE6906D25
:1059C00002F02CF8FEF7C0BE0799099828AA03F048
:1059D00063FA00287EF4E6AE2A9C0DF1AC08FFF7CE
:1059E00064BB229B1093DA1C02DB089A93420DDD04
:1059F000023E26F020030693E1E400BF78A40008ED
:105A000048A40008000030400000E03F109B129ABC
:105A10009342C0F2568119F0010F00F08782169A66
:105A200013440C9319F4806F03D0109B002B00F3E8
:105A300050820C9B23EAE3730693672600230F939F
:105A400013931DE52D2200238DF883200893FEF784
:105A50009ABF129BCDF830A04246DDF84C801097DB
:105A6000EB1808935E46199FDDF87090DDF824A0CE
:105A7000DDF81CB00F9B13952146B8F1000F2ED016
:105A8000002B6BD1013F08F1FF381B9BC2E90039A5
:105A9000299B01334944072B2A91299362DC083260
:105AA000089B38789B1B8342A8BF0346002B1C46EB
:105AB0000ADD2998013019440728C2E900632A91B8
:105AC00029905ADC38780832002CACBF051B0546FB
:105AD000002D15DC06440F9BB8F1000FD0D1002B30
:105AE0003CD1DDE91235EB189E421997B346DDF83B
:105AF00030A0109F90460C4628BF9B46FFF7DBBAAC
:105B0000102D29981DDD102404E0103D102D02F108
