:020000040800F2
:100000000000022059350008FD160008FF16000800
:10001000011700080317000805170008000000007A
:1000200000000000000000000000000007170008AA
:1000300009170008000000000B1700080D17000842
:10004000A9350008A9350008A9350008A935000818
:10005000A9350008A9350008A9350008A935000808
:10006000A9350008A9350008A9350008A9350008F8
:10007000A9350008A9350008A9350008A9350008E8
:10008000A9350008A9350008A9350008A9350008D8
:10009000A9350008A9350008A9350008A9350008C8
:1000A000A9350008A9350008A9350008A9350008B8
:1000B000A9350008A9350008A9350008A9350008A8
:1000C000A9350008A9350008A9350008A935000898
:1000D000A935000815170008A9350008A93500083A
:1000E000A9350008A9350008A9350008A935000878
:1000F000A9350008A9350008A9350008A935000868
:10010000A9350008A9350008A9350008A935000857
:10011000A9350008A9350008A9350008A935000847
:10012000A9350008A9350008A9350008A935000837
:10013000A9350008A9350008A9350008A935000827
:10014000A9350008A9350008A9350008A935000817
:10015000A9350008A9350008A9350008A935000807
:10016000A9350008A9350008A9350008A9350008F7
:10017000A9350008A9350008A935000800000000CD
:08018000A9350008A9350008AB
:1001C00010B5054C237833B9044B13B10448AFF391
:1001D00000800123237010BDB8090020000000003A
:1001E0005CA9000808B5034B1BB103490348AFF3F2
:1001F000008008BD00000000BC0900205CA90008C8
:1002000081F0004102E000BF83F0004330B54FEAC7
:1002100041044FEA430594EA050F08BF90EA020F34
:100220001FBF54EA000C55EA020C7FEA645C7FEAC7
:10023000655C00F0E2804FEA5454D4EB5555B8BFEA
:100240006D420CDD2C4480EA020281EA030382EA5B
:10025000000083EA010180EA020281EA0303362DED
:1002600088BF30BD11F0004F4FEA01314FF4801CC0
:100270004CEA113102D0404261EB410113F0004FD2
:100280004FEA03334CEA133302D0524263EB430389
:1002900094EA050F00F0A780A4F10104D5F1200E27
:1002A0000DDB02FA0EFC22FA05F2801841F1000182
:1002B00003FA0EF2801843FA05F359410EE0A5F156
:1002C00020050EF1200E012A03FA0EFC28BF4CF087
:1002D000020C43FA05F3C01851EBE37101F000453D
:1002E00007D54FF0000EDCF1000C7EEB00006EEB4A
:1002F0000101B1F5801F1BD3B1F5001F0CD34908D4
:100300005FEA30004FEA3C0C04F101044FEA44522A
:1003100012F5800F80F09A80BCF1004F08BF5FEAB1
:10032000500C50F1000041EB045141EA050130BD91
:100330005FEA4C0C404141EB0101013C28BFB1F5A3
:10034000801FE9D291F0000F04BF01460020B1FAEE
:1003500081F308BF2033A3F10B03B3F120020CDAC1
:100360000C3208DD02F1140CC2F10C0201FA0CF09F
:1003700021FA02F10CE002F11402D8BFC2F1200C04
:1003800001FA02F120FA0CFCDCBF41EA0C019040BA
:10039000E41AA2BF01EB0451294330BD6FEA040403
:1003A0001F3C1CDA0C340EDC04F11404C4F12002EE
:1003B00020FA04F001FA02F340EA030021FA04F300
:1003C00045EA030130BDC4F10C04C4F1200220FA57
:1003D00002F001FA04F340EA0300294630BD21FA95
:1003E00004F0294630BD94F0000F83F4801306BF5B
:1003F00081F480110134013D4EE77FEA645C18BF4F
:100400007FEA655C29D094EA050F08BF90EA020FE5
:1004100005D054EA000C04BF1946104630BD91EADD
:10042000030F1EBF0021002030BD5FEA545C05D1E0
:100430004000494128BF41F0004130BD14F580041F
:100440003CBF01F5801130BD01F0004545F0FE4193
:1004500041F470014FF0000030BD7FEA645C1ABFC8
:10046000194610467FEA655C1CBF0B46024650EAFF
:10047000013406BF52EA033591EA030F41F400212B
:1004800030BD00BF90F0000F04BF0021704730B5B1
:100490004FF4806404F132044FF000054FF0000186
:1004A00050E700BF90F0000F04BF0021704730B547
:1004B0004FF4806404F1320410F0004548BF40421C
:1004C0004FF000013EE700BF42004FEAE2014FEA71
:1004D00031014FEA02701FBF12F07F4393F07F4F4C
:1004E00081F06051704732F07F4208BF704793F04F
:1004F0007F4F04BF41F40021704730B54FF4607462
:1005000001F0004521F000411CE700BF50EA010264
:1005100008BF704730B54FF000050AE050EA01020D
:1005200008BF704730B511F0004502D5404261EB7D
:1005300041014FF4806404F132045FEA915C3FF4BE
:10054000D8AE4FF003025FEADC0C18BF03325FEA5B
:10055000DC0C18BF033202EBDC02C2F1200300FA0C
:1005600003FC20FA02F001FA03FE40EA0E0021FA31
:1005700002F11444BDE600BF4A0011D212F5001288
:1005800011D20DD56FF47873B3EB62520ED44FEAEB
:10059000C12343F0004343EA505323FA02F070476B
:1005A0004FF00000704750EA013002D14FF0FF30A9
:1005B00070474FF00000704753B94AB9002908BF8F
:1005C00000281CBF4FF0FF314FF0FF3000F074B92E
:1005D000ADF1080C6DE904CE00F006F8DDF804E09A
:1005E000DDE9022304B070472DE9F047089E0D466F
:1005F00004468846002B4DD18A42944668D9B2FA07
:1006000082F252B101FA02F3C2F1200120FA01F1A3
:100610000CFA02FC41EA030894404FEA1C45210C05
:10062000B8FBF5FE1FFA8CF705FB1E8341EA034376
:100630000EFB07F199420BD91CEB03030EF1FF30BF
:1006400080F01E81994240F21B81AEF1020E63449C
:100650005B1AA4B2B3FBF5F005FB103344EA034484
:1006600000FB07F7A7420AD91CEB040400F1FF3393
:1006700080F00881A74240F2058164440238E41BFF
:1006800040EA0E4000211EB1D4400023C6E90043D9
:10069000BDE8F0878B4208D9002E00F0EE800021E3
:1006A000C6E900050846BDE8F087B3FA83F10029E2
:1006B0004AD1AB4202D3824200F2F980841A65EB40
:1006C000030301209846002EE2D0C6E90048DFE788
:1006D00002B9FFDEB2FA82F2002A40F09180A1EB6B
:1006E0000C054FEA1C471FFA8CFE0121B5FBF7F3FE
:1006F00007FB1350250C45EA00450EFB03F0A8420A
:1007000008D91CEB050503F1FF3802D2A84200F21C
:10071000CB8043462D1AA4B2B5FBF7F007FB10556A
:1007200044EA05440EFB00FEA64508D91CEB040470
:1007300000F1FF3502D2A64500F2BB802846A4EBAB
:100740000E0440EA03409EE7C1F120078B4022FAE5
:1007500007FC4CEA030C20FA07F405FA01F31C43EA
:10076000FD404FEA1C4900FA01F3B5FBF9F8200CF3
:100770001FFA8CFE09FB185540EA054508FB0EF0F0
:10078000A84202FA01F20BD91CEB050508F1FF3A69
:1007900080F08880A84240F28580A8F10208654474
:1007A0002D1AA4B2B5FBF9F009FB105544EA054532
:1007B00000FB0EFEAE4508D91CEB050500F1FF3429
:1007C0006CD2AE456AD90238654440EA0840A0FBC5
:1007D0000294A5EB0E05A542C846A64656D353D0B3
:1007E0005EB1B3EB080265EB0E0505FA07F722FAD6
:1007F00001F3CD401F43C6E900750021BDE8F08735
:10080000C2F1200320FA03F10CFA02FC25FA03F3EB
:1008100095400D434FEA1C471FFA8CFEB3FBF7F1DE
:1008200007FB11302B0C43EA004301FB0EF098420A
:1008300004FA02F408D91CEB030301F1FF382FD2AC
:1008400098422DD9023963441B1AADB2B3FBF7F0BD
:1008500007FB103345EA034500FB0EF3AB4208D912
:100860001CEB050500F1FF3816D2AB4214D9023853
:100870006544ED1A40EA014138E73146304607E762
:100880008646E5E61846FAE64B45A9D2B9EB0208DA
:1008900064EB0C0E0138A3E74046EAE7204694E7F4
:1008A0004146D1E7D0467BE7023B654432E7084644
:1008B00009E76444023842E7704700BF00000000C7
:1008C00090F800F06DE9024520F007016FF0000C90
:1008D00010F0070491F820F040F049804FF0000438
:1008E0006FF00700D1E9002391F840F000F1080013
:1008F00082FA4CF2A4FA8CF283FA4CF3A2FA8CF34B
:100900004BBBD1E9022382FA4CF200F10800A4FAB1
:100910008CF283FA4CF3A2FA8CF3E3B9D1E9042305
:1009200082FA4CF200F10800A4FA8CF283FA4CF33C
:10093000A2FA8CF37BB9D1E9062301F1200182FAF6
:100940004CF200F10800A4FA8CF283FA4CF3A2FAFC
:100950008CF3002BC6D0002A04BF04301A4612BA0A
:10096000B2FA82F2FDE8024500EBD2007047D1E90D
:10097000002304F00305C4F100004FEAC50514F09C
:10098000040F91F840F00CFA05F562EA05021CBF6D
:1009900063EA050362464FF00004A9E70000000087
:1009A00001F0FF01102A2BDB10F0070F08D010F820
:1009B000013B013A8B422DD010F0070F42B3F6D124
:1009C000F0B441EA012141EA014122F007047FF03D
:1009D00000070023F0E80256083C85EA010586EA94
:1009E000010685FA47F5A3FA87F586FA47F6A5FAD0
:1009F00087F68EB9EED1F0BC01F0FF0102F00702DC
:100A000032B110F8013B013A83EA010313B1F8D186
:100A10000020704701387047002D06BF3546033867
:100A2000073815F0010F07D1013015F4807F02BFA0
:100A3000013015F4C03F0130F0BC0138704700BFF1
:100A4000844641EA000313F003036DD1403A41D3D9
:100A500051F8043B40F8043B51F8043B40F8043B98
:100A600051F8043B40F8043B51F8043B40F8043B88
:100A700051F8043B40F8043B51F8043B40F8043B78
:100A800051F8043B40F8043B51F8043B40F8043B68
:100A900051F8043B40F8043B51F8043B40F8043B58
:100AA00051F8043B40F8043B51F8043B40F8043B48
:100AB00051F8043B40F8043B51F8043B40F8043B38
:100AC00051F8043B40F8043B51F8043B40F8043B28
:100AD000403ABDD2303211D351F8043B40F8043BC8
:100AE00051F8043B40F8043B51F8043B40F8043B08
:100AF00051F8043B40F8043B103AEDD20C3205D3D8
:100B000051F8043B40F8043B043AF9D2043208D0CF
:100B1000D2071CBF11F8013B00F8013B01D30B8841
:100B200003806046704700BF082A13D38B078DD01F
:100B300010F003038AD0C3F10403D21ADB071CBFF1
:100B400011F8013B00F8013B80D331F8023B20F85B
:100B5000023B7BE7043AD9D3013A11F8013B00F894
:100B6000013BF9D20B7803704B7843708B7883701C
:100B70006046704770B54FF0FF0C4CF4E06C1CEA17
:100B800011541DBF1CEA135594EA0C0F95EA0C0F83
:100B900000F0DEF82C4481EA030621EA4C5123EAF6
:100BA0004C5350EA013518BF52EA033541F4801125
:100BB00043F4801338D0A0FB02CE4FF00005E1FBD8
:100BC00002E506F00042E0FB03E54FF00006E1FB22
:100BD00003569CF0000F18BF4EF0010EA4F1FF0465
:100BE000B6F5007F64F5407404D25FEA4E0E6D41A5
:100BF00046EB060642EAC62141EA55514FEAC520B6
:100C000040EA5E504FEACE2EB4F1FD0C88BFBCF531
:100C1000E06F1ED8BEF1004F08BF5FEA500E50F1E2
:100C2000000041EB045170BD06F0004646EA0101A8
:100C300040EA020081EA0301B4EB5C04C2BFD4EBDA
:100C40000C0541EA045170BD41F480114FF0000ED3
:100C5000013C00F3AB8014F1360FDEBF002001F041
:100C6000004170BDC4F10004203C35DA0C341BDCBB
:100C700004F11404C4F1200500FA05F320FA04F08D
:100C800001FA05F240EA020001F0004221F00041C1
:100C900010EBD37021FA04F642EB06015EEA430E34
:100CA00008BF20EAD37070BDC4F10C04C4F1200564
:100CB00000FA04F320FA05F001FA04F240EA020017
:100CC00001F0004110EBD37041F100015EEA430EE8
:100CD00008BF20EAD37070BDC4F1200500FA05F208
:100CE0004EEA020E20FA04F301FA05F243EA020387
:100CF00021FA04F001F0004121FA04F220EA020096
:100D000000EBD3705EEA430E08BF20EAD37070BDDB
:100D100094F0000F0FD101F00046400041EB0101BB
:100D200011F4801F08BF013CF7D041EA060195F09D
:100D3000000F18BF704703F00046520043EB030357
:100D400013F4801F08BF013DF7D043EA0603704744
:100D500094EA0C0F0CEA135518BF95EA0C0F0CD04F
:100D600050EA410618BF52EA4306D1D181EA030195
:100D700001F000414FF0000070BD50EA410606BF8F
:100D80001046194652EA430619D094EA0C0F02D1D4
:100D900050EA013613D195EA0C0F05D152EA033619
:100DA0001CBF104619460AD181EA030101F0004137
:100DB00041F0FE4141F470014FF0000070BD41F080
:100DC000FE4141F4780170BD70B54FF0FF0C4CF45A
:100DD000E06C1CEA11541DBF1CEA135594EA0C0F79
:100DE00095EA0C0F00F0A7F8A4EB050481EA030EC6
:100DF00052EA03354FEA013100F088804FEA0333AD
:100E00004FF0805545EA131343EA12634FEA02227A
:100E100045EA111545EA10654FEA00260EF000413B
:100E20009D4208BF964244F1FD0404F5407402D28D
:100E30005B084FEA3202B61A65EB03055B084FEA1E
:100E400032024FF480104FF4002CB6EB020E75EB1B
:100E5000030E22BFB61A754640EA0C005B084FEA43
:100E60003202B6EB020E75EB030E22BFB61A7546C0
:100E700040EA5C005B084FEA3202B6EB020E75EB0B
:100E8000030E22BFB61A754640EA9C005B084FEA83
:100E90003202B6EB020E75EB030E22BFB61A754690
:100EA00040EADC0055EA060E18D04FEA051545EA7F
:100EB00016754FEA06164FEAC30343EA52734FEA28
:100EC000C2025FEA1C1CC0D111F4801F0BD141EAA1
:100ED00000014FF000004FF0004CB6E711F4801F06
:100EE00004BF01430020B4F1FD0C88BFBCF5E06FE6
:100EF0003FF6AFAEB5EB030C04BFB6EB020C5FEAF6
:100F0000500C50F1000041EB045170BD0EF0004E4A
:100F10004EEA113114EB5C04C2BFD4EB0C0541EA7C
:100F2000045170BD41F480114FF0000E013C90E679
:100F300045EA060E8DE60CEA135594EA0C0F08BF3D
:100F400095EA0C0F3FF43BAF94EA0C0F0AD150EA3C
:100F500001347FF434AF95EA0C0F7FF425AF1046CF
:100F600019462CE795EA0C0F06D152EA03353FF4F7
:100F7000FDAE1046194622E750EA410618BF52EA74
:100F800043067FF4C5AE50EA41047FF40DAF52EA48
:100F900043057FF4EBAE12E74FF0FF3C06E000BFE5
:100FA0004FF0010C02E000BF4FF0010C4DF804CDF2
:100FB0004FEA410C7FEA6C5C4FEA430C18BF7FEAB2
:100FC0006C5C1BD001B050EA410C0CBF52EA430CE0
:100FD00091EA030F02BF90EA020F0020704710F160
:100FE000000F91EA030F58BF994208BF90422CBFEF
:100FF000D8176FEAE37040F0010070474FEA410CE8
:101000007FEA6C5C02D150EA013C07D14FEA430C05
:101010007FEA6C5CD6D152EA033CD3D05DF8040B76
:10102000704700BF8446104662468C4619466346A8
:1010300000E000BF01B5FFF7B7FF002848BF10F17F
:10104000000F01BD4DF808EDFFF7F4FF0CBF0120C4
:1010500000205DF808FB00BF4DF808EDFFF7EAFF40
:1010600034BF012000205DF808FB00BF4DF808EDFB
:10107000FFF7E0FF94BF012000205DF808FB00BFF0
:101080004DF808EDFFF7CEFF94BF012000205DF87A
:1010900008FB00BF4DF808EDFFF7C4FF34BF012087
:1010A00000205DF808FB00BF4FEA410C7FEA6C5C52
:1010B00002D150EA013C0AD14FEA430C7FEA6C5C52
:1010C00002D152EA033C02D14FF0000070474FF0CA
:1010D000010070474FEA410212F5001215D211D5F6
:1010E0006FF47873B3EB625212D94FEAC12343F025
:1010F000004343EA505311F0004F23FA02F018BFA7
:10110000404270474FF00000704750EA013005D16F
:1011100011F0004008BF6FF0004070474FF0000032
:10112000704700BF2DE9F04184B007460E460846DF
:10113000FFF7C6FB85B2082D13D94FF00008A5F1C3
:1011400009039BB2F72B51D948F001005FFA80F8F0
:10115000B8F1000F01D04FF00108404604B0BDE8DF
:10116000F0814FF6FF7302930195009608233A46EB
:10117000A021204801F0C8F88046E0E70CF1010406
:10118000A4B2E3009BB207EBCC024FF6FF710291D1
:101190000821019106EBCC01009192B2A0211548E3
:1011A00001F0B2F848EA00005FFA80F8A446EB08C4
:1011B000BCEBD50FE2D36345CAD10CF10103DB00D0
:1011C0009BB207EBCC024FF6FF71029105F00705C9
:1011D000019506EBCC06009692B2A021054801F0DD
:1011E00093F848EA00005FFA80F8B1E74FF0000C8E
:1011F000DDE700BFD80C002030B585B00D464FF6B6
:10120000FF7302930192009108230246A121064830
:1012100001F02CF904462946044802F043FA04B1CF
:101220000124204605B030BDD80C002078A9000864
:1012300000B583B001904FF6FF73012201A9034866
:1012400001F01BFF019803B05DF804FB300D002096
:1012500010B50E4C204602F087FA0D4802F084FAD1
:101260000C4802F081FA204602F07EFA0A490B4847
:1012700002F018FA0A490B4802F014FA0A4802F080
:1012800073FA0A4802F070FA10BD00BF80A9000886
:10129000A4A90008C8A90008F0A90008F8A9000836
:1012A00010AA00081CAA000834AA000860AA0008B6
:1012B0002DE9F04180464C1EE4B20220002714E0E4
:1012C000A3F13006451EEDB2FFF7DCF802460B46EF
:1012D0000020144908F0ECFBFFF74EF9C3B203FB02
:1012E0000673DFB228460134E4B2022C17D818F88E
:1012F0000430202BE4D0A3F12005461EF6B2FFF700
:10130000C1F802460B460020064908F0D1FBFFF762
:1013100033F9C3B203FB0573DFB23046E3E7384667
:10132000BDE8F0810000244038B502684B4B9A427A
:1013300000D038BD4A490A88531C9BB20B804949EA
:10134000087849498854FF2B0AD85A1E46498A5CB6
:101350000D2A12D001224349444802F0E0F8E8E7A0
:1013600000243F4B1C80424802F0FEF94FF480728B
:1013700021463D4802F044F9ECE7023B0A46CB5CCB
:101380000A2BE7D13B49104602F050FB88B10022FE
:101390004FF48061384800F087FC384802F0E4F9E7
:1013A00000212F4B19804FF480722F4802F028F94A
:1013B000D0E733492C4802F039FB48B101224FF401
:1013C00080612D4800F070FC2E4802F0CDF9E7E76F
:1013D0002D49254802F02AFBC0B1234D0E21284695
:1013E000FFF766FF044612212846FFF761FF024619
:1013F00026492046FFF700FF20B92449244802F07F
:1014000051F9CDE7234802F0AFF9C9E72249164860
:1014100002F00CFBE8B1002406E004F11303124AC9
:10142000115D1E4AD15401340F48FFF749FAA0421A
:10143000F3D80F210C48FFF73BFF1849FFF772FE66
:1014400018B9174802F090F9AAE7124802F08CF98F
:10145000A6E70549134802F025F9A1E7001001406D
:10146000D60C0020D40C0020D40A0020300D00201F
:101470008CAA0008F0A9000800140240A0AA0008E5
:1014800010AA0008ACAA0008B8AA0008D4090020D5
:1014900078A90008C8AA0008E0AA0008D40B002018
:1014A000F0AA000808AB000830B58BB00024059402
:1014B000069407940894099401941E4B1A6B42F009
:1014C00020021A631A6B02F020020192019A029420
:1014D0001A6B42F080021A631A6B02F080020292C9
:1014E000029A03941A6B42F001021A631A6B02F01B
:1014F00001020392039A04941A6B42F002021A63E7
:101500001B6B03F002030493049B0B4D22464FF424
:101510008061284600F0C8FB4FF4806305930123E7
:1015200006930794089405A9284600F0CBFA0BB05F
:1015300030BD00BF003802400014024008B50B481F
:101540000B4B03600B4B436000238360C3604FF47D
:101550008042026143618361C361036200F0F6FD72
:1015600000B908BD00F040F8FBE700BFD80C002030
:1015700000540040A086010030B589B000230393D9
:1015800004930593069307930268144B9A4201D083
:1015900009B030BD00250195114C236B43F00203C7
:1015A0002363236B03F002030193019BC023039386
:1015B00012230493032306930423079303A90948E2
:1015C00000F080FA0295236C43F400132364236C2B
:1015D00003F400130293029BDAE700BF00540040BB
:1015E000003802400004024072B6FEE700B595B034
:1015F0003022002108A802F003F80023039304938B
:101600000593069307930193204A116C41F0805192
:101610001164126C02F080520192019A02931C4BE9
:101620001A6842F480421A601B6803F480430293F4
:10163000029B012308934FF48033099302220E92F8
:101640004FF480030F9304231093A8211191129259
:10165000139308A801F07CF898B90F230393022391
:101660000493002305934FF4A05306934FF4805343
:101670000793052103A801F0D1FA20B915B05DF850
:1016800004FBFFF7B1FFFFF7AFFF00BF00380240D8
:101690000070004008B500F01FF9FFF7A7FFFFF743
:1016A00003FFFFF74BFF00F097F8012203490448BE
:1016B00001F035FFFFF7CCFDFEE700BFD40C0020A2
:1016C000300D002082B0002100910B4B5A6C42F487
:1016D00080425A645A6C02F480420092009A01914E
:1016E0001A6C42F080521A641B6C03F08053019311
:1016F000019B02B0704700BF00380240FEE7FEE7E2
:10170000FEE7FEE7FEE770477047704708B500F058
:10171000FDF808BD08B5024801F0A4FD08BD00BFF2
:10172000300D00200120704708B501F03FFF16235F
:1017300003604FF0FF3008BD08B54FF0FF31FFF7F1
:10174000F3FFFEE770B50C461646002506E0AFF342
:101750000080214601F8010B01350C46B542F6DB4D
:10176000304670BD70B50C461646002504E014F8EE
:10177000010BFFF75DFD0135B542F8DB304670BD6A
:1017800008B503460B4A126842B10A4A106803447E
:101790006A46934206D8074A136008BD054A0649BF
:1017A0001160F2E701F002FF0C2303604FF0FF30FD
:1017B000F3E700BF2C0D0020C00D00204FF0FF30DC
:1017C00070474FF400534B60002070470120704772
:1017D000002070477047000008B50A480A4B0360B4
:1017E0004FF4E133436000238360C36003610C2244
:1017F00042618361C36101F011FC00B908BDFFF7CC
:10180000F3FEFBE7300D00200010014010B588B05A
:10181000002303930493059306930793026803F14F
:10182000804303F588339A4201D008B010BD0024EC
:10183000019403F594335A6C42F010025A645A6CC6
:1018400002F010020192019A02941A6B42F0010216
:101850001A631B6B03F001030293029B4FF4C063F6
:10186000039302230493032306930723079303A9F7
:10187000054800F027F922462146252000F06AF8A5
:10188000252000F09FF8D0E70000024010B5044684
:101890000E4B18784FF47A73B3FBF0F30C4A1068D0
:1018A000B0FBF3F000F09CF868B90F2C01D90120CF
:1018B0000AE0002221464FF0FF3000F04BF8054BC4
:1018C0001C60002000E0012010BD00BF04000020CB
:1018D000000000200800002008B50B4B1A6842F4F5
:1018E00000721A601A6842F480621A601A6842F440
:1018F00080721A60032000F01BF80F20FFF7C6FF6C
:10190000FFF7E0FE002008BD003C0240034A1168DA
:10191000034B1B780B441360704700BF740D00200D
:1019200004000020014B1868704700BF740D0020B0
:10193000074AD36823F4E0631B041B0C000200F485
:10194000E060034343F0BF6343F40033D360704768
:1019500000ED00E000B5194BDB68C3F30223C3F1CF
:10196000070CBCF1040F28BF4FF0040C03F1040E68
:10197000BEF1060F18D9033B4FF0FF3E0EFA0CFCE8
:1019800021EA0C0199400EFA03F322EA03031943FA
:1019900000280BDB0901C9B200F1604000F561408D
:1019A00080F800135DF804FB0023E5E700F00F006A
:1019B0000901C9B2024B1954F4E700BF00ED00E081
:1019C00014ED00E0002807DB00F01F0240090123AE
:1019D0009340024A42F82030704700BF00E100E027
:1019E0000138B0F1807F0BD24FF0E0235861054AF7
:1019F000F02182F823100020986107221A617047B5
:101A00000120704700ED00E070B50446866DFFF7D9
:101A100089FF94F83530DBB2022B06D08023636552
:101A2000002384F83430012070BD05462268136815
:101A300023F0160313602268536923F08003536177
:101A4000236CE3B12268136823F008031360226853
:101A5000136823F00103136023681B6813F0010F60
:101A600011D0FFF75FFF431B052BF5D920236365DA
:101A7000032084F83500002384F83430D4E7A36CC5
:101A8000002BDFD1E3E7E26D3F239340B3600123F6
:101A900084F83530002084F83400C5E790F83530FC
:101AA000DBB2022B03D0802343650120704705235E
:101AB00080F835300268136823F0010313600020BA
:101AC0007047000000230F2B00F2E48070B582B055
:101AD00060E085685E000324B44025EA0405CC6814
:101AE000B4402C438460456825EA02054C68C4F381
:101AF00000129A402A4342605AE0DC08083450F849
:101B0000246003F0070295000F22AA4026EA020E85
:101B10000A69AA4042EA0E0240F824205CE007224B
:101B200000E0002202FA0EF22A4302345A4D45F830
:101B300024205A4A94686FEA0C0224EA0C054E6885
:101B400016F4801F01D04CEA0405544CA560E468EB
:101B500002EA04054E6816F4001F01D04CEA0405A1
:101B60004E4CE560646802EA04054E6816F4003FD6
:101B700001D04CEA0405494C6560246822404D6858
:101B800015F4803F01D04CEA0402444C226001333A
:101B90000F2B7DD801229A400C6804EA020C32EA2D
:101BA0000404F4D14C6804F00304013C012C90D9E6
:101BB0004A6802F00302032A09D0C4685D000322C8
:101BC000AA4024EA02048A68AA402243C2604A6802
:101BD00002F00302022A90D004684FEA430E032267
:101BE00002FA0EF224EA02044A6802F0030202FA40
:101BF0000EF2224302604A6812F4403FC7D000222E
:101C00000192274A546C44F480445464526C02F4A8
:101C100080420192019A9C08A51C1F4A52F8255047
:101C200003F003024FEA820E0F2202FA0EF225EAB7
:101C300002051C4A90423FF474AF02F58062904264
:101C40001AD002F58062904218D002F5806290426C
:101C500016D002F58062904214D002F58062904264
:101C600012D002F58062904210D002F5806290425C
:101C70003FF455AF082255E7012253E7022251E70E
:101C800003224FE704224DE705224BE7062249E7EE
:101C900002B070BD704700BF00380140003C0140F9
:101CA00000380240000002400AB181617047090417
:101CB0008161704703685A6912F4806F01D1002076
:101CC00070476FF480625A6100230363202280F81A
:101CD0003D2080F83E30026C42F00402026480F83D
:101CE0003C30012070472DE9F04107460D469046F3
:101CF0001E4624E0FFF716FE069BC01AB04200D82D
:101D0000EEB900233B63202287F83D2087F83E3060
:101D10003A6C42F020023A6487F83C3001201EE021
:101D20003B689C6925EA040C1FFA8CFCBCFA8CFC0D
:101D30004FEA5C1CE04511D1B6F1FF3FDAD1C5F3A3
:101D40000743012BECD13B685B6925EA030C1FFAC2
:101D50008CFCBCFA8CFC4FEA5C1CEBE70020BDE875
:101D6000F0812DE9F04105460E46174698463DE0C4
:101D70001A6842F400721A602B686FF480625A612C
:101D800000232B63202285F83D2085F83E302A6C05
:101D900042F004022A6485F83C30012034E0FFF769
:101DA000C1FDA0EB0800B84200D8FFB900232B63A7
:101DB000202285F83D2085F83E302A6C42F0200232
:101DC0002A6485F83C3001201EE02B689C6926EAD5
:101DD0000404A4B2003C18BF0124A4B12B685A69C2
:101DE00012F4806FC4D1B7F1FF3FD8D1C6F30743D7
:101DF000012BEAD12B685C6926EA0404A4B2003CFA
:101E000018BF0124E9E70020BDE8F08170B5044661
:101E10000D46164623685B6913F0800F1CD12046DF
:101E2000FFF748FFD0B9B5F1FF3FF3D0FFF77AFDD8
:101E3000801BA84201D8002DECD10023236320226F
:101E400084F83D2084F83E30226C42F02002226467
:101E500084F83C30012000E0002070BD0120FCE748
:101E60002DE9F04385B004460D4691461F46DDF846
:101E700030800D9E0368196841F4807119600096E6
:101E8000434600224FF00111FFF72DFF60B9236890
:101E900005F0FE051D613346424626492046FFF700
:101EA00060FF68B1012008E023681B6813F4807F9D
:101EB00002D04FF400732364032005B0BDE8F08323
:101EC0000023039323685A6903929B690393039B3E
:101ED000324641462046FFF799FF30B9012F0FD116
:101EE00023685FFA89F61E61E7E7236C042B01D0B3
:101EF0000120E2E72268136843F400731360F7E7F8
:101F000023684FEA19221A61324641462046FFF7FC
:101F10007DFF20B923685FFA89F61E61CDE7236C47
:101F2000042B01D00120C8E72268136843F4007332
:101F30001360F7E7020001002DE9F04784B0044682
:101F40000D46164699460C9FDDF8348002681368EA
:101F500043F4806313600368196841F48071196069
:101F6000CDF800803B4600224FF00111FFF7BBFE89
:101F700070B95FFA85FA236805F0FE051D614346D6
:101F80003A4641492046FFF7ECFE68B1012008E0DF
:101F900023681B6813F4807F02D04FF4007323641E
:101FA000032004B0BDE8F0870023039323685A6937
:101FB00003929B690393039B424639462046FFF7F1
:101FC00025FF80B9B9F1010F18D12368F6B21E615F
:101FD000424639462046FFF719FF68B3236C042BAD
:101FE00024D00120DDE7236C042B01D00120D8E7A9
:101FF0002268136843F400731360F7E72368320A1A
:102000001A61424639462046FFF700FF18B9236897
:10201000F6B21E61DCE7236C042B01D00120C0E77F
:102020002268136843F400731360F7E722681368AB
:1020300043F400731360D4E72268136843F4807399
:102040001360CDF800803B4600224FF0011120467E
:10205000FFF749FE68B922684AF00103136143465D
:102060003A4609492046FFF77CFE002899D0012016
:1020700097E723681B6813F4807F02D04FF4007346
:10208000236403208DE700BF0200010070B5044601
:102090000D46164623685B6913F0040F1CD12046D9
:1020A000FFF708FED0B9B5F1FF3FF3D0FFF73AFCD8
:1020B000801BA84201D8002DECD1002323632022ED
:1020C00084F83D2084F83E30226C42F020022264E5
:1020D00084F83C30012000E0002070BD0120FCE7C6
:1020E00070B505460C4616462B68596911F0400F2D
:1020F00029D1596911F0100F15D1FFF713FC801B7E
:10210000A04201D8002CEFD100232B63202285F8B8
:102110003D2085F83E302A6C42F020022A6485F882
:102120003C30012070BD6FF010025A6100232B6318
:10213000202285F83D2085F83E302A6C2A6485F8F7
:102140003C300120EEE70020ECE70000002800F022
:10215000CC8070B5044690F83D30002B77D0242316
:1021600084F83D302268136823F00103136022686D
:10217000136843F4004313602268136823F4004398
:10218000136000F001FE62685A4B9A4264D85A4BC1
:1021900098428CBF00230123002B40F0A8805749B0
:1021A000A1FB00318B0C25686A6822F03F0242EAED
:1021B00091426A6021680A6A22F03F0266684D4DCA
:1021C000AE424FD8013313430B622168CA6922F42F
:1021D0004F4222F0FF026668464B9E424CD8431E97
:1021E0007600B3FBF6F3013340F6FC70034278D07F
:1021F000C3F30B031343CB6121680B6823F0C003C7
:10220000E269206A024313430B6021688B6823F460
:10221000034323F0FF032269E068024313438B600A
:102220002168CB6823F0FF036269A069024313436E
:10223000CB602268136843F0010313600020206420
:10224000202384F83D30206384F83E0070BD80F880
:102250003C30FFF791F982E7294B98428CBF00236D
:10226000012399E74FF4967505FB03F3254DA5FB74
:1022700003539B090133A6E7A368BBB9451E06EBD0
:10228000460CB5FBFCF50135C5F30B05B5FA85F534
:102290006D0945BBC3B9013806EB4603B0FBF3F348
:1022A0000133C3F30B0343F40043A3E7451E06EBDE
:1022B000860C0CEB8C0CB5FBFCF50135C5F30B055E
:1022C000B5FA85F56D09E4E7013806EB860303EB03
:1022D0008303B0FBF3F30133C3F30B0343F4404335
:1022E00088E7042386E7012384E701207047012063
:1022F000ACE700BFA08601007F841E0083DE1B4385
:10230000FF083D00D34D62102DE9F04383B0044631
:102310000F46904699460C9EFFF704FB054694F83D
:102320003D00C0B2202803D0022003B0BDE8F083F6
:102330000095192301224B492046FFF7D4FC0028C1
:1023400040F0898094F83C30012B00F08680012316
:1023500084F83C3023681A6812F0010F03D11A6820
:1023600042F001021A602268136823F400631360CC
:10237000212384F83D30402384F83E300023236439
:102380000A9B6362BDF82C306385638D2385364BD1
:10239000E362019500964B46424639462046FFF7D8
:1023A0005FFD00285BD1238D002B35D02A463146B6
:1023B0002046FFF72BFD20BB626A236812781A6162
:1023C000626A531C6362218D013989B22185638D54
:1023D0009BB2013B9BB263852368586910F0040FE0
:1023E000E1D00029DFD052781A61636A0133636259
:1023F000238D013B2385638D9BB2013B9BB263859B
:10240000D1E7236C042B01D001208EE722681368EA
:1024100043F400731360F7E72A4631462046FFF77E
:1024200035FE50B1236C042B01D001207DE72268DA
:10243000136843F400731360F7E72268136843F4EA
:1024400000731360202384F83D30002384F83E306D
:1024500084F83C3069E7022067E7022065E7012045
:1024600063E700BF020010000000FFFF2DE9F0430A
:1024700087B004460F4690469946109EFFF752FAE1
:10248000054694F83D00C0B2202804D00227384603
:1024900007B0BDE8F0830095192301228849204642
:1024A000FFF721FC002840F0438194F83C30012BD9
:1024B00000F04081012384F83C3023681A6812F050
:1024C000010F03D11A6842F001021A6022681368F2
:1024D00023F400631360222384F83D30402384F802
:1024E0003E30002323640E9B6362BDF83C3063855D
:1024F000638D2385734BE362019500964B464246FC
:1025000039462046FFF718FD0746002840F01481A1
:10251000238D5BB9029323685A6902929A690292E9
:10252000029A1A6842F400721A6075E0012B0AD010
:10253000022B1AD00023059323685A6905929B69E0
:102540000593059B68E02268136823F48063136099
:102550000023039323685A6903929A690392039AAA
:102560001A6842F400721A6056E02268136823F475
:10257000806313602268136843F4006313600023D0
:10258000049323685A6904929B690493049B43E073
:102590002A4631462046FFF7A3FD002840F0CE80B2
:1025A00023681A69636A1A70636A01336362238D50
:1025B000013B2385638D9BB2013B9BB263852BE07E
:1025C00000953346002240492046FFF78CFB002847
:1025D00040F0B6802268136843F4007313602368E8
:1025E0001A69636A1A70626A531C6362238D013B25
:1025F0002385638D9BB2013B9BB2638523681B6976
:102600005370636A01336362238D013B2385638DBD
:102610009BB2013B9BB26385238D002B7FD0032BA4
:1026200054D8012BB4D0022BCAD0009533460022D7
:1026300025492046FFF757FB002840F08380226899
:10264000136823F48063136023681A69636A1A703D
:10265000636A01336362238D013B2385638D9BB2E3
:10266000013B9BB263850095334600221649204604
:10267000FFF739FB002867D12268136843F4007321
:10268000136023681A69636A1A70626A531C636272
:10269000238D013B2385638D9BB2013B9BB26385F8
:1026A00023681B695370636A01336362238D013BA6
:1026B0002385638D9BB2013B9BB26385ACE700BF72
:1026C000020010000000FFFF040001002A4631460E
:1026D0002046FFF705FD002838D123681A69636A90
:1026E0001A70626A531C6362238D013B2385638DDC
:1026F0009BB2013B9BB263852368596911F0040FBB
:102700008AD01B695370636A01336362238D013B76
:102710002385638D9BB2013B9BB263857CE72023BD
:1027200084F83D30002384F83E3084F83C30AEE637
:102730000227ACE60227AAE60127A8E60127A6E6BB
:102740000127A4E60127A2E60127A0E601279EE6CD
:10275000002800F0E08170B582B00446036813F0F1
:10276000010F3BD09F4B9B6803F00C03042B2CD034
:102770009C4B9B6803F00C03082B21D06368B3F5D6
:10278000803F4FD0B3F5A02F52D0964B1A6822F459
:1027900080321A601A6822F480221A606368002B63
:1027A00050D0FFF7BFF805468E4B1B6813F4003F6F
:1027B00014D1FFF7B7F8401B6428F5D90320B1E125
:1027C000884B5B6813F4800FD8D0864B1B6813F4DA
:1027D000003F03D06368002B00F09F81236813F053
:1027E000020F54D07F4B9B6813F00C0F3ED07D4BF3
:1027F0009B6803F00C03082B33D0E368002B68D0F0
:10280000794B01221A60FFF78DF80546754B1B685E
:1028100013F0020F54D1FFF785F8401B0228F5D9B9
:1028200003207FE16F4A136843F480331360B5E7F8
:102830006C4B1A6842F480221A601A6842F48032A3
:102840001A60ABE7FFF76EF80546664B1B6813F49A
:10285000003FC3D0FFF766F8401B6428F5D903207A
:1028600060E1604B5B6813F4800FC6D15D4B1B6861
:1028700013F0020F03D0E368012B40F05081594A56
:10288000136823F0F803216943EAC1031360236846
:1028900013F0080F42D063696BB3534B0122C3F8A6
:1028A000802EFFF73FF805464E4B5B6F13F0020F8B
:1028B00034D1FFF737F8401B0228F5D9032031E166
:1028C000484A136823F0F803216943EAC1031360FF
:1028D000DDE7454B00221A60FFF724F80546414B1F
:1028E0001B6813F0020FD2D0FFF71CF8401B022820
:1028F000F5D9032016E13C4B0022C3F8802EFFF7E8
:1029000011F80546374B5B6F13F0020F06D0FFF747
:1029100009F8401B0228F5D9032003E1236813F0CE
:10292000040F77D02F4B1B6C13F0805F33D1002343
:1029300001932C4B1A6C42F080521A641B6C03F00A
:1029400080530193019B0125284B1B6813F4807F62
:1029500023D0A368012B34D0052B38D0214B1A6F1C
:1029600022F001021A671A6F22F004021A67A368A4
:10297000002B3DD0FEF7D6FF06461A4B1B6F13F017
:10298000020F46D1FEF7CEFF801B41F288339842FA
:10299000F3D90320C6E00025D6E7144A136843F4B0
:1029A00080731360FEF7BEFF0646104B1B6813F4DE
:1029B000807FCED1FEF7B6FF801B0228F5D9032019
:1029C000B0E0084A136F43F001031367CFE7054BEC
:1029D0001A6F42F004021A671A6F42F001021A6776
:1029E000C5E700BF003802400000474200700040C9
:1029F000FEF798FF0646524B1B6F13F0020F08D0EC
:102A0000FEF790FF801B41F288339842F3D90320F0
:102A100088E0EDB9A369002B00F08380484A9268F2
:102A200002F00C02082A51D0022B17D0454B00228D
:102A30001A66FEF777FF0446414B1B6813F0007FD0
:102A400042D0FEF76FFF001B0228F5D9032069E092
:102A50003B4A136C23F080531364DBE7394B0022AD
:102A60001A66FEF75FFF0546354B1B6813F0007FC3
:102A700006D0FEF757FF401B0228F5D9032051E08E
:102A8000E369226A1343626A43EA8213A26A520824
:102A9000013A43EA0243E26A43EA0263284A536086
:102AA000284B01221A66FEF73DFF0446244B1B68A3
:102AB00013F0007F06D1FEF735FF001B0228F5D981
:102AC00003202FE000202DE000202BE0012B2BD055
:102AD0001B4B5B6803F48001E269914226D103F04D
:102AE0003F02216A8A4223D1616A47F6C0721A40C6
:102AF000B2EB811F1ED103F44031A26A5208013AA1
:102B0000B1EB024F18D103F07063E26AB3EB026FCE
:102B100014D1002006E001207047012002E00120CE
:102B200000E0002002B070BD0120FBE70120F9E7C2
:102B30000120F7E70120F5E70120F3E70120F1E7A5
:102B4000003802400000474208B5314B9B6803F053
:102B50000C03042B57D0082B57D12D4B5A6802F089
:102B60003F025B6813F4800F2AD0294B5968C1F3E8
:102B7000881C4FEA4C11B1EB0C006EEB0E0E4FEAC5
:102B80008E1343EA90638101091A63EB0E03DB00A5
:102B900043EA5173C90011EB0C0C43F100035902D5
:102BA00000234FEA4C2041EADC51FDF705FD184BAC
:102BB0005B68C3F3014301335B00B0FBF3F025E036
:102BC000134B5968C1F3881C4FEA4C11B1EB0C0050
:102BD0006EEB0E0E4FEA8E1343EA90638101091AE1
:102BE00063EB0E03DB0043EA5173C90011EB0C0CDD
:102BF00043F10003990200234FEA8C2041EA9C51E3
:102C0000FDF7DAFCD3E7034800E0034808BD00BF46
:102C10000038024000127A000024F400002800F07E
:102C20009B8070B50D4604464F4B1B6803F00703AD
:102C30008B4208D2CBB24C4A1370136803F00703DF
:102C40008B4240F08B80236813F0020F17D013F0F3
:102C5000040F04D0454A936843F4E053936023681B
:102C600013F0080F04D0414A936843F46043936023
:102C70003E4A936823F0F003A1680B4393602368F6
:102C800013F0010F32D06368012B21D09A1E012A64
:102C900025D9364A126812F0020F61D033498A688A
:102CA00022F0030213438B60FEF73CFE06462F4BD7
:102CB0009B6803F00C036268B3EB820F16D0FEF73B
:102CC00031FE801B41F288339842F0D9032042E064
:102CD000264A126812F4003FE0D101203BE0234A6B
:102CE000126812F0007FD9D1012034E01E4B1B681E
:102CF00003F00703AB4207D9EAB21B4B1A701B68FB
:102D000003F00703AB422DD1236813F0040F06D064
:102D1000164A936823F4E053E1680B4393602368F9
:102D200013F0080F07D0114A936823F46043216918
:102D300043EAC1039360FFF707FF0C4B9B68C3F3A3
:102D400003130B4AD35CD8400A4B18600A4B18682F
:102D5000FEF79CFD002070BD012070470120FAE7BE
:102D60000120F8E70120F6E7003C0240003802406D
:102D70000CAB00080000002008000020014B186880
:102D8000704700BF0000002008B5FFF7F7FF044BB5
:102D90009B68C3F38223034AD35CD84008BD00BFBD
:102DA000003802401CAB000808B5FFF7E7FF044BF2
:102DB0009B68C3F34233034AD35CD84008BD00BFCD
:102DC000003802401CAB0008026802F10C0353E813
:102DD000003F23F490730C3242E800310029F3D114
:102DE000026802F1140353E8003F23F00103143298
:102DF00042E800310029F3D1036B012B05D02023D9
:102E000080F83E30002303637047026802F10C0330
:102E100053E8003F23F010030C3242E80031002950
:102E2000F3D1ECE790F83D30DBB2212B01D002204A
:102E300070478368B3F5805F17D0036A5A1C02623B
:102E40001A7803685A60C38C9BB2013B9BB2C3845F
:102E50004BB90268D36823F08003D3600268D3685B
:102E600043F04003D360002070470369002BE4D196
:102E7000036A1B880268C3F308035360036A0233C2
:102E80000362E0E738B504460268136923F440534F
:102E9000C1680B431361836802691343426913439A
:102EA000C2691A430168CB6823F4164323F00C036C
:102EB0001343CB600268536923F4407381690B4369
:102EC00053610368314A934206D002F5806293420F
:102ED00002D0FFF759FF01E0FFF766FFE369B3F5A2
:102EE000004F29D00021031849411B1841F100016E
:102EF000C90041EA5371DB00181863684FEA830286
:102F00004FEA937341F10001FDF756FB204DA5FBFD
:102F100000325109642303FB11031B013233A5FB6B
:102F200003235B0903F0F00202EB011203F00F032D
:102F3000216813448B6038BD0023021843EB030162
:102F4000121841F10001C90041EA5271D200101873
:102F500041F10001626892185B41FDF72DFB0C4DB9
:102F6000A5FB00325109642303FB1103DB0032335C
:102F7000A5FB03235B095A0002F4F87202EB01126D
:102F800003F00703216813448B60D4E7001001406D
:102F90001F85EB512DE9F84305460F461646994625
:102FA000DDF820802C68246837EA04030CBF4FF05A
:102FB000010C4FF0000CB4452DD1B8F1FF3FF1D01A
:102FC000B8F1000F05D0FEF7ADFCA0EB09004045BD
:102FD000E8D92A6802F10C0353E8003F23F4D073C8
:102FE0000C3242E800310029F3D12A6802F11403BF
:102FF00053E8003F23F00103143242E80031002976
:10300000F3D1202385F83D3085F83E30002385F844
:103010003C30032000E00020BDE8F88358B310B531
:10302000044690F83D300BB3242384F83D302268E9
:10303000D36823F40053D3602046FFF723FF2268B0
:10304000136923F4904313612268536923F02A0320
:1030500053612268D36843F40053D3600020206496
:10306000202384F83D3084F83E3010BD80F83C3099
:10307000FEF7CCFBD8E7012070472DE9F04182B084
:103080001E4690F83D30DBB2202B54D104460D464D
:103090009046002953D0002A53D090F83C30012BA1
:1030A00051D0012380F83C3000230364212380F8B1
:1030B0003D30FEF737FC0746A4F82480A4F82680AC
:1030C000A368B3F5805F05D04FF00008002384F8B3
:1030D0003C3012E0236913B14FF00008F6E7A84630
:1030E0000025F3E738F8023B2268C3F30803536076
:1030F000E28C92B2013A92B2E284E38C9BB273B159
:1031000000963B46002280212046FFF743FFE0B9AE
:10311000002DE7D015F8012B23685A60E8E70096E8
:103120003B46002240212046FFF734FF78B9202398
:1031300084F83D3000E0022002B0BDE8F0810120BB
:10314000FAE70120F8E70220F6E70320F4E703207E
:10315000F2E7704708B50168CA6822F04002CA6009
:10316000202280F83D20FFF7F4FF002008BD7047C3
:1031700008B5806B0023C385C384FFF7F8FF08BD43
:10318000704790F83E30DBB2222B67D18368B3F5ED
:10319000805F4DD0826AB3F5805F04D0002B54D19C
:1031A0000369002B51D103685B681370836A013394
:1031B0008362C38D9BB2013B9BB2C385002B4FD171
:1031C00000B583B00268D36823F02003D36002689F
:1031D000D36823F48073D3600268536923F001033A
:1031E0005361202380F83E30036B012B33D1002341
:1031F0000363026802F10C0353E8003F23F010035D
:103200000C3242E800310029F3D103681A6812F049
:10321000100F06D0002201921A6801925B68019398
:10322000019B818DFFF7ACFF002003B05DF804FB2C
:103230000269002AAED1826A03685B68C3F308039F
:103240001380836A02338362B3E703685B6803F029
:103250007F031370AAE7FEF767F8E5E702207047DF
:103260000020704730B583B0044602681368D06808
:10327000516913F00F0505D113F0200F02D010F0A3
:10328000200F19D12DB111F0010119D110F4907F47
:1032900016D1216B01297DD013F0800F03D010F0DF
:1032A000800F40F0158113F0400F03D010F0400F55
:1032B00040F0128103B030BD2046FFF762FFF9E70E
:1032C00013F0010F06D010F4807F03D0226C42F07F
:1032D0000102226413F0040F04D019B1226C42F0F1
:1032E0000202226413F0020F04D019B1226C42F0E2
:1032F0000402226413F0080F07D010F0200F00D151
:1033000019B1226C42F008022264226C002AD1D04A
:1033100013F0200F02D010F0200F29D123685B6931
:1033200003F04003226C12F0080F00D163B3204673
:10333000FFF74AFD23685B6913F0400F20D0226835
:1033400002F1140353E8003F23F04003143242E833
:1033500000310029F3D1A36B73B1614A1A65A06BE8
:10336000FEF79CFB0028A5D0A06B036D9847A1E752
:103370002046FFF706FFD1E72046FFF7F8FE99E762
:103380002046FFF7F4FE95E72046FFF7F0FE002306
:1033900023648FE713F0100F3FF47EAF10F0100F8F
:1033A0003FF47AAF002301931368019353680193AC
:1033B000019B536913F0400F50D0A26B13685B68F8
:1033C0009BB2002B3FF476AFA18D99427FF672AF8E
:1033D000E385D369B3F5807F37D0226802F10C030F
:1033E00053E8003F23F480730C3242E80031002997
:1033F000F3D1226802F1140353E8003F23F00103E4
:10340000143242E800310029F3D1226802F114039A
:1034100053E8003F23F04003143242E80031002912
:10342000F3D1202384F83E3000232363226802F185
:103430000C0353E8003F23F010030C3242E8003144
:103440000029F3D1A06BFEF7DFFAA18DE38D9BB2CB
:10345000C91A89B22046FFF793FE2BE7A18DE38DB1
:103460009BB2C91A89B2E38D9BB2002B3FF422AF05
:1034700000293FF41FAF226802F10C0353E8003F1C
:1034800023F490730C3242E800300028F3D1226814
:1034900002F1140353E8003F23F00103143242E821
:1034A00000300028F3D1202384F83E30002323632A
:1034B000226802F10C0353E8003F23F010030C32A2
:1034C00042E800300028F3D12046FFF759FEF1E62C
:1034D0002046FFF7A7FCEDE62046FFF73BFEE9E6B6
:1034E0007131000881628285C28500230364222233
:1034F00080F83E2080F83C30036923B10268D3682D
:1035000043F48073D3600268536943F0010353614D
:103510000268D36843F02003D3600020704708B5E9
:1035200090F83E30DBB2202B0DD171B17AB190F81A
:103530003C30012B0DD0012380F83C300023036385
:10354000FFF7D0FF00E0022008BD0120FCE70120CA
:10355000FAE70220F8E70000DFF834D00D480E4902
:103560000E4A002302E0D458C4500433C4188C42DD
:10357000F9D30B4A0B4C002301E013600432A24242
:10358000FBD3FEF727F900F017F8FEF783F8704732
:103590000000022000000020B80900203CAF000815
:1035A000B8090020C00D0020FEE70000014B18689C
:1035B000704700BF0C00002070B50D4E0D4D761BFE
:1035C000B61006D0002455F8043B01349847A642B3
:1035D000F9D1094E094D761B07F0C0F9B61006D097
:1035E000002455F8043B01349847A642F9D170BD38
:1035F00030AF000830AF000838AF000830AF000827
:10360000830730B548D0541E002A3FD0CAB20346C3
:1036100001E0013C3AD303F8012B9D07F9D1032CBB
:103620002DD9CDB245EA05250F2C45EA054536D9F9
:10363000A4F1100222F00F0C03F1200EE6444FEA31
:10364000121C03F1100242E9045542E902551032FE
:103650007245F8D10CF1010214F00C0F03EB0212C9
:1036600004F00F0C13D0ACF1040323F00303043374
:10367000134442F8045B9342FBD10CF003042CB1D9
:10368000CAB21C4403F8012B9C42FBD130BD6446F6
:103690001346002CF4D1F9E703461446BFE71A4657
:1036A000A446E0E70FB400B5074983B004AB08684F
:1036B00053F8042B8168019300F06CFA03B05DF8B5
:1036C00004EB04B0704700BF0C00002070B5054645
:1036D00088B008460C46FDF7F3F8224EAA6B059019
:1036E00001214318CDE9066104A802210494039343
:1036F000AC680190029122B3636E13F0010FB4F92C
:103700000C309AB201D1980525D5910406D4626E89
:1037100043F4005322F40052A3816266284601AAB2
:10372000214603F011FB636E002814BF4FF0FF35F4
:103730000A25DA0702D4A3899B0506D5284608B0D6
:1037400070BD284603F002F9D6E7A06D03F09EFC99
:10375000284608B070BDA06D03F096FCB4F90C309B
:103760009AB2D2E728AB0008024B01461868FFF76F
:10377000ADBF00BF0C0000202DE9F04F012BADF2D2
:103780001C4D1D4681460F46904640F2458101235F
:1037900000249C4619464FF0FF3006E0A3EB000CD6
:1037A0001C46012163189D4210D908EB000218F84D
:1037B0000360525C9642F1D300F082804FF0010C1E
:1037C00020466146644463189D42EED8CDF808C097
:1037D0004FF0010C002461464FF0FF36634606E0CF
:1037E000A3EB060C1C46012163189D420FD908EB80
:1037F000010218F803E0925D9645F1D866D04FF0CB
:10380000010C26466146644463189D42EFD8013698
:1038100000F1010BB34502D8CDF808C0B34605ABA3
:103820000DF2144243F8045F9342FBD1002D00F0E7
:10383000F8806C1E06AE08F1FF3208EB040001961A
:1038400012F8011FD3432B444344904246F82130E1
:10385000F6D1029B5A4608EB0301404603F038FFBD
:10386000002840F08180029B0BF1FF32EB1A824668
:1038700006460592039309EB060E019A1EF80430E2
:1038800052F8233043B3BAF1000F04D0029A9342A6
:10389000039A38BF13461E444FF0000A7B1BB34205
:1038A000E9D209EB070045F4006104F08BFE074400
:1038B0007B1BB342DFD200200DF21C4DBDE8F08F20
:1038C0008C4512BF0131644401216BE761450ABF99
:1038D00064180131012187E7D3455B4638BF534661
:1038E000A34211D2591E9A1941444A4402E00133BD
:1038F000A34209D212F8010B11F801CF8445F6D08A
:10390000CBF101021644C6E7D345059B7DD90BEBED
:1039100006024A4408EB0B01CDF810B002E0534513
:1039200016D0034612F8010D11F801CD844503F1BC
:10393000010B03F1FF30F2D05B46DDF810B00AF165
:10394000010A9A450BD8029BDDF80CA01E44A5E79E
:1039500053460AF1010A9A45DDF810B0F3D97046D2
:103960000DF21C4DBDE8F08FA5EB0B035B4538BF96
:103970005B46013304930BF1FF330293CBF1010358
:103980000026039345F4006A09EB060E019A1EF81F
:10399000043052F823306BB11E447B1B9E42F3D996
:1039A00009EB0700514604F00DFE07447B1B9E42C5
:1039B000EAD980E7A34514D2029B0BEB060208EB81
:1039C00003014A445B4602E00133A34209D212F8E4
:1039D000010B11F801CF8445F6D0039A16441E441A
:1039E000DBE7BBF1000F12D00BEB0601494408EBFB
:1039F0000B0201E043450AD012F801CD11F8010D88
:103A000084451346F6D0049BC6E75B4697E77046AD
:103A10000DF21C4DBDE8F08F012302934FF0000B17
:103A2000FDE606AB4FF0FF34019312E72DE9F041BC
:103A30000D46097890B00446002953D06A78002AD0
:103A400000F08380AB78002B50D0E878002800F09D
:103A500083802B79002B57D02846FCF731FF064690
:103A600040F40071204604F0ADFD86425CD8FE2E85
:103A700000F28780801B27184022711C6846FFF7E0
:103A8000BFFD7EB16A1E5FFA86FC901912F8013FF5
:103A900003F03F0340336B44A91A6144824203F8A8
:103AA000401CF3D1013CA35D03F03F0340336B4462
:103AB00013F8400C0444A74203D23AE04444A7421E
:103AC00037D314F806C00CF03F0C0CF140030DEB9B
:103AD000030C2046324629461CF8408C03F0F8FDC2
:103AE0000028EBD1204610B0BDE8F081007842EA12
:103AF000014200E00C4640EA0343611CA0B19A4237
:103B00006078F7D1013CEDE722786AB1296809BAFB
:103B100001E099421ED042EA0323204614F8012F07
:103B2000002AF6D1994215D00024204610B0BDE8F5
:103B3000F081BB5DB819002BF6D04FF4006104F0A2
:103B400041FD0744BC42ADD9EEE710B0BDE8F041FD
:103B500004F0A0BCC41EC5E7120442EA016242EAB6
:103B600003232178024600E02C4641EA0200651C4E
:103B700002020029D8D0B3EB002F6178F4D1023CC7
:103B8000B0E7014633462A46204610B0BDE8F04172
:103B9000FFF7F2BD2DE9F04FD5B01C4607919146D5
:103BA0000546099003F068FA0268179210460E94D1
:103BB000FCF786FE16901DB1AB6B002B00F02A823D
:103BC000079A536EDD0740F13881B2F90C2091B2AB
:103BD0008F0409D4079B42F400529A8191B21A468D
:103BE0005B6E23F4005353660E0740F1CB80079BB6
:103BF0001B69002B00F0C68001F01A030A2B00F0AD
:103C0000CF8000242BAB4D46CDE92944CDE91944A2
:103C1000CDE91B44129428939846189400230B94E2
:103C20000024CDE914342B78002B00F09D81AA46A6
:103C300004E01AF8013F002B00F0C780252BF8D1D3
:103C4000BAEB050640F0C5809AF80030002B00F072
:103C50008B8100234FF0FF329AF801608DF883309A
:103C60000A930AF1010A08921F462B244FF02009FB
:103C70000AF1010AA6F120035A2B00F2ED80DFE8D9
:103C800013F0EB02EB00EB00E602EB00EB00EB00C5
:103C90006A00EB00EB005C028002EB0067028A0224
:103CA000EB0085025B005B005B005B005B005B0080
:103CB0005B005B005B00EB00EB00EB00EB00EB005C
:103CC000EB00EB007A01EB00F801D2017A017A01F6
:103CD0007A01EB00EB00EB00EB00E102EB00EB0004
:103CE0002D02EB00EB00EB000202EB00A402EB0064
:103CF000EB008307EB00EB00EB00EB00EB00EB00CD
:103D0000EB00EB007A01EB00F801D4017A017A01B3
:103D10007A01C702D401CD01EB00D402EB006C02A2
:103D20002F02B502CD01EB0002027E008007EB00FE
:103D3000EB006107EB007E00A6F1300300221AF8C9
:103D4000016B02EB820203EB4202A6F13003092B66
:103D5000F5D90A928EE7DDF824B0584603F08CF9C5
:103D600043681B931846FCF7ABFD1C90064658466B
:103D700003F082F983681993002E40F0CD869AF8FB
:103D8000006075E7079D0998294601F0ADFC002801
:103D900041F01C83A98901F01A030A2B7FF431AF8B
:103DA000079AB2F90E30002BFFF62BAF536ED807EF
:103DB00002D4890541F13B810799099823464A4677
:103DC00055B0BDE8F04F01F04FBCBAEB050600F06E
:103DD000CB802A9B33442A93299B0133072BC8E9C4
:103DE0000056299305DC08F108080B9B33440B931C
:103DF0002AE70799099828AA04F032FC80B90DF146
:103E0000AC08F2E70799099828AA04F029FC0028D1
:103E100000F09B800D9B1BB10998194602F08EFEA5
:103E2000079A536ED90740F1EA8093895B0601F146
:103E3000D9820B9855B0BDE8F08F079BB3F90C20E1
:103E4000900591B23FF5C4AE1D46986D03F01CF984
:103E5000B5F90C2091B2BBE6002E00F0858000225F
:103E60008DF8EC608DF883200123CDE90C320693A8
:103E700008920F92139210923BAD17F0020302D0FA
:103E800006990231069117F0840B07D10A9906981A
:103E9000A1EB0009B9F1000F00F370832A9C8AB1ED
:103EA000299A0DF1830101320134C8F80010072A64
:103EB0004FF001012A942992C8F8041000F3B68348
:103EC00008F1080883B1299B21AA01330234C8F8FC
:103ED0000020072B4FF002022A942993C8F80420EF
:103EE00000F3B28308F10808BBF1800F00F069828B
:103EF000089B0C9AA3EB020BBBF1000F00F3AA8204
:103F0000FB0500F100820C9BC8F804301C44299B7F
:103F1000C8F800500133072B2A94299300F3228319
:103F200008F10808780705D50A9B069A9D1A002D06
:103F300000F39683DDE90A2306998A42ACBF9B18F9
:103F40005B180B93002C7FF45DAF002329930D9B2E
:103F50001BB10D99099802F0F1FD0DF1AC08554621
:103F60002B78002B7FF463AE2A9B002B41F0D3818A
:103F70000023299354E70E9B073323F00702F2E84E
:103F80000234CDE91434DDE9143424F000440E92F7
:103F9000994618462146B54B4FF0FF32FDF784F89D
:103FA000002840F0EF84B14B484621464FF0FF32E5
:103FB000FDF75CF8002840F0E584DDE914010022FB
:103FC0000023FDF749F8002840F067879DF883201B
:103FD000A74DA84B27F080070321472EC8BF1D46D9
:103FE00000230D9306910C9108930F931393109354
:103FF000002A3FF442AF069B013306933DE7079B3F
:104000009B899A053FF512AF079CA06D03F03EF81F
:10401000A3890BE7099802F099FCD1E59AF80060B2
:1040200047F0200724E647F01007BA060E9B40F140
:104030003B84073323F007031A465B6852F8084BAA
:104040000E929946002BC0F24C84089B013300F07D
:10405000D88254EA090327F0800B40F0D382089BF2
:10406000002B40F0D4825F46002308930C9354AD9C
:104070001DE10E9B002253F8041B8DF883208DF860
:10408000EC100E93F0E60E9C089B54F8045B4FF086
:1040900000098DF88390002D00F093855A1C00F0E4
:1040A00051861A4649462846FCF77AFC0D900028AE
:1040B00001F00E810D9BCDF820905B1B0C930E94AC
:1040C00023EAE3739DF883200693CDF83490CDF86E
:1040D0003C90CDF84C90CDF8409089E747F0100720
:1040E00017F0200900F0D2830E9B073323F007035B
:1040F000D3F8049053F8084B0E9327F4806B0023F9
:1041000000228DF88320089A511C00F0B88054EAF0
:1041100009012BF0800740F0B180002A40F0F685BD
:10412000002BA1D11BF001030C9300F01484302369
:104130008DF84F310DF24F15B9E00E9B53F8042B5B
:104140000A92002A80F2DA830A9A0E9352420A9265
:104150009AF8006047F004078AE5BD0600F1D184B3
:10416000FC0600F1D885780600F1A586B90540F176
:10417000D2850E9B0B9953F8042B0E931170554664
:10418000EEE69AF800608DF8834071E59AF80060D9
:1041900047F080076CE5524612F8016B2A2E01F0B9
:1041A0003F82A6F13003092B924698BF002201F20C
:1041B000BC801AF8016B02EB820203EB4202A6F10B
:1041C0003003092BF5D9089254E547F0100B1BF08A
:1041D000200900F076830E9B073323F00703D3F802
:1041E000049053F8084B0E93012389E70E9B53F874
:1041F000044B0E93302378268DF884301E4B189391
:1042000047F0020B8DF885604FF00009022377E735
:104210009AF80060682E03BF9AF8016047F40077AF
:104220000AF1010A47F0400722E59AF800606C2E77
:1042300003BF9AF8016047F020070AF1010A47F02E
:10424000100715E59AF8006047F0080710E59AF89E
:10425000006047F001070BE59DF88330002B7FF4E9
:104260008EAD9AF800608DF8839001E5FFFFEF7F37
:104270002CAB000830AB00083CAB0008BB46012B60
:1042800000F0C081022B54AD20D1189A04F00F0326
:104290002409D35C05F8013D44EA09744FEA191971
:1042A00054EA0903F2D154AB5B1B5F460C930899A7
:1042B0000C989DF8832081424FF00003B8BF01465F
:1042C0000D9306910F931393109391E604F0070357
:1042D000E40844EA49744FEAD909303354EA090141
:1042E0002A4605F8013DF1D11BF0010FDBD0302B40
:1042F000D9D03023023A05F8013C54AB9B1A5F46F3
:104300000C931546D3E7652E40F3E680DDE91401F2
:1043100000220023FCF796FE002800F0DC81299B98
:10432000BF4AC8F80020013301340122072B2A9428
:104330002993C8F8042000F3CC8408F10808229BD4
:10434000129A934280F2D682169B179A1C44C8E9AF
:104350000023299B2A940133072B299300F32484FB
:1043600008F10808129B5D1E002D7FF7DBAD102DB4
:10437000299BDFF8B09240F3BD8449462246B946F6
:10438000DDF824B0079C10260F4605E008F1080868
:10439000103D102D40F3AA8401331032072BC8E9D9
:1043A0000076CDE92932F1DD28AA2146584604F0ED
:1043B00057F900287FF42EADDDE929320DF1AC0864
:1043C000E6E70A9B069AA3EB020BBBF1000F7FF70F
:1043D0008FADBBF1100F299ADFF848922CDD1D96A6
:1043E00021464E46079CDDF82490102306E0ABF1F1
:1043F000100BBBF1100F08F108081ADD0132103163
:10440000072AC8E90063CDE92921F0DD28AA214661
:1044100048460DF1AC0804F023F900287FF4FAAC0B
:10442000ABF1100BBBF1100FDDE929214FF01003A8
:10443000E4DCB1461D9E0C4601325C44072ACDE9FE
:104440002924C8F80090C8F804B000F3A08308F14C
:1044500008084DE5BBF1100F299ADFF8C8912DDD52
:1044600041462046A8464C46079DDDF8249010237F
:1044700006E0ABF1100BBBF1100F01F1080119DDE3
:1044800001321030072AC1E90043CDE92920F0DDCF
:1044900028AA2946484604F0E3F800287FF4BAAC7D
:1044A000ABF1100BBBF1100FDDE929202BA94FF068
:1044B0001003E5DC4546A1468846044601325C44CB
:1044C000072ACDE92924C8F80090C8F804B000F301
:1044D000D08108F1080813E5129B012B40F380817D
:1044E000299EC8F80050013601340123072E2A9472
:1044F0002996C8F8043000F37C8308F10808169B5D
:10450000179A01361C44072EC8E90023CDE9296417
:1045100000F37C8308F10808DDE914010022002380
:10452000FCF790FD002840F07881129B0136013B9A
:1045300001351C44072EC8F800502996C8F80430ED
:104540002A9400F35D8108F108081A9BC8F804302A
:1045500001361C44072E24ABCDE92964C8F800308D
:104560007FF7DEAC0799099828AA04F079F80028AB
:104570007FF450AC2A9C0DF1AC08D3E4B9F1100FD4
:10458000DDE929212BDDCDE91D3B1F96DDF824B0A7
:104590004E461024A946079D04E0103E102E08F157
:1045A000080817DD0132204B1031072AC8E9003412
:1045B000CDE92921F1DD28AA294658460DF1AC089C
:1045C00004F04EF800287FF425AC103E102EDDE9F3
:1045D0002921E7DCDDE91D3B4D46B1461F9EC8F8A9
:1045E0000490013209EB0104072A0F49C8F80010B2
:1045F000CDE9292400F351839DF8832008F10808B0
:104600004DE4BB460A2C79F1000380F00C83303472
:1046100001238DF84F415F460C930DF24F1546E68E
:104620006CAB000880AB000870AB000807990998D4
:104630001D9328AA04F014F800287FF4EBAB2A9C01
:104640001D9B0DF1AC083DE40799099828AA04F0D8
:1046500007F800287FF4DEAB2A9C0DF1AC0843E498
:10466000102D299B21DD099FDDF81C90102604E008
:10467000103D102D08F1080817DD0133BB4A103436
:10468000072BC8E90026CDE92934F1DD28AA4946DF
:1046900038460DF1AC0803F0E3FF00287FF4BAAB15
:1046A000103D102DDDE92934E7DC0133AF4AC8F8AD
:1046B00004502C44072BCDE92934C8F800207FF79B
:1046C00039AC0799099828AA03F0CAFF00287FF49B
:1046D000A1AB2A9C2EE42299002940F31481DDF835
:1046E0004090129B9945A8BF9946B9F1000F0BDD88
:1046F000299B01334C44072BC8E900592A9429937C
:1047000000F39A8508F10808109EB9F1000FA8BFC0
:10471000A6EB0906002E00F34683DDF840B07905CC
:10472000AB4400F1CE84229B129A934202DBFA073B
:1047300040F1B883169A17991444C8E90012299ACF
:104740002A940132072A299200F3838508F1080888
:10475000129AAE18A6EB0B06D51AAE42A8BF2E468B
:10476000002E0DDD299BC8F800B001333444072B1F
:10477000C8F804602A94299300F3F18508F1080829
:10478000002EA8BFAD1B002D7FF7CCAB102D299BB1
:10479000DFF8DC9140F3AE8249462246B946DDF8A7
:1047A00024B0079C10260F4605E008F10808103DCC
:1047B000102D40F39B8201331032072BC8E900769D
:1047C000CDE92932F1DD28AA2146584603F048FFF9
:1047D00000287FF41FABDDE929320DF1AC08E6E7D4
:1047E000FE073FF57DAE299EC8F800500136013422
:1047F0000123072E2A942996C8F804307FF7A3AE28
:104800000799099828AA03F02BFF00287FF402AB30
:10481000DDE929640DF1AC0897E6129B5D1E002DC1
:104820007FF793AE102DDFF8489140F37F82224648
:104830000897099C079F4FF0100B05E008F1080846
:10484000103D102D40F3708201361032072EC8E95A
:10485000009BCDE92962F1DD28AA3946204603F004
:10486000FFFE00287FF4D6AADDE929620DF1AC082D
:10487000E6E70799099828AA03F0F2FE00287FF4DA
:10488000C9AA2A9C0DF1AC08FFF73ABB17F0100338
:1048900072D117F0400200F0BD820E9A52F8044B1C
:1048A0000E929946A4B228E453F8044B0E93FB06EB
:1048B00056D47D0651D544F3C0394B4624B2FFF798
:1048C000C1BB1BF0100340F036811BF0400200F02A
:1048D00092820E9A52F8044B0E929946A4B201238A
:1048E0000EE42D2364428DF8833069EB4909BB4601
:1048F000012308E4F8077FF515AB25E59AF8006079
:104900000E93FFF7B5B9299B1A4AC8F80020013366
:1049100001340122072B2A942993C8F8042000F3BC
:10492000708408F10808002940F01E82129A07F0EE
:10493000010313433FF4F6AA169B1799E218C8E93E
:104940000013299B2A920133072B299300F36183DB
:1049500008F1080819E254ADA9E4B80500F1B482E1
:104960004FEAE4794B46FFF76DBB00BF70AB000820
:1049700080AB00086CAB00080E9B53F8044B0E9301
:10498000FFF7BBBBDDE9140102460B46FCF78CFBCD
:10499000002840F0A085612E00F05085412E00F0E7
:1049A0009982089B013326F02003069300F08F853F
:1049B000472B00F07985DDE9141247F480730F93DB
:1049C0001346002BC0F2ED850C9300231D938B46FC
:1049D0000D93069B462B00F04A84452B00F04F8533
:1049E0000899019126A9049123A9039122A9029172
:1049F00002210C9B099800915A4600F081FF069B0A
:104A0000472B054640F01C8617F0010FB9460F9F53
:104A100040F0D984269B5B1B1293069B472B00F02A
:104A20001883069B462B00F05F84229B1093109BFB
:104A3000069A013B412A229300F0AA85F2B2002196
:104A4000002BB8BF109B8DF89020BABFC3F10103B3
:104A50002D222B22092B8DF8912040F363850DF137
:104A60009F04BD4F2246104687FB0321DA17C2EB95
:104A7000A10202EB8201A3EB4101303100F8011CDD
:104A800019466329134600F1FF32ECDC3033D9B20A
:104A9000831E9C4202F8011C40F2CE8513460DF1A4
:104AA000920201E013F8011B02F8011B9C42F9D1AC
:104AB0000DF1A1030DF192021B1A134424AA9B1AB3
:104AC0001A93129B1A9A012B1A440C9240F3728586
:104AD0000C9B169A13440C930C9A002329F48067BC
:104AE00022EAE27247F480770F93069213931093B1
:104AF0001D9B002B40F0DE829DF883200893FFF77A
:104B000077BA0E9B0B9853F8041B0E93C217C1E99A
:104B100000025546FFF724BA199B002B3FF42FA93A
:104B2000199B1B78002B3FF42AA99AF8006047F4E0
:104B30008067FFF79DB80E9B53F8044B0E9301233B
:104B4000FFF7DEBA854B189317F0200949D00E9B6A
:104B5000073323F00703D3F8049053F8084B0E9360
:104B6000F80709D554EA090306D030238DF885608B
:104B700047F002078DF8843027F4806B0223FFF79B
:104B8000BFBABB46FFF723BB754B1893DCE7079909
:104B9000099828AA03F064FD00287FF43BA92A9C09
:104BA0000DF1AC08FFF7A4B90799099828AA03F0FA
:104BB00057FD00287FF42EA92A9C0DF1AC08FFF7C1
:104BC000D1BB062B294628BF062308950D952A46FA
:104BD0000693644D0E940C930F9113911091FFF76F
:104BE00007BA17F0100369D00E9B53F8044B0E93CD
:104BF000B6E70799099828AA03F032FD00287FF448
:104C000009A9DDE929640DF1AC0878E40799099850
:104C100028AA03F025FD00287FF4FCA8DDE929641B
:104C20000DF1AC0878E40BF480630022CDE90CA808
:104C30000696DDF8648054AF16469A460CE00023D1
:104C4000204649460A22FBF7B7FC0A2C79F10003FB
:104C50001BD3044689462F4620460A220023494694
:104C6000FBF7AAFC30327D1E013607F8012CBAF1A1
:104C7000000FE4D098F800309E42E0D1FF2EDED045
:104C80000A2C79F1000380F0F480CDF8648012964C
:104C9000DDE90CA8069EFFF706BB079909981D934E
:104CA00028AA03F0DDFC00287FF4B4A89DF8832037
:104CB0002A9C1D9B0DF1AC08FFF7F1B817F04002DC
:104CC00000F0B6800E9A52F8044B0E929946A4B2A8
:104CD00046E70799099828AA03F0C2FC00287FF448
:104CE00099A82A9C0DF1AC08FFF729BB14463A4657
:104CF0004F46914601332C44072BC8F80090C8F862
:104D00000450CDE929347FF70BA92BE4012BBB46D6
:104D10007FF4B8AA7BE40E9B0B9953F8042B5546FD
:104D200011600E93FFF71CB9089F144601362C44FE
:104D3000072ECDE92964C8F80090C8F804507FF721
:104D400002AC5DE52846CDF820900E94FBF7B8FD47
:104D500003460C90FFF7B4B9676666663CAB000883
:104D600050AB000864AB0008169B1798E218C8E91E
:104D70000003299B2A920133072B299300F34981D1
:104D800008F108080029C0F2FA821299C8F8005008
:104D900001338C18072BCDE92934C8F804107FF7AC
:104DA000BFA8FFF7DFBB102E299BDFF8C09252DDB2
:104DB000484642462146A846B946099C079D4FF001
:104DC000100B074603E00832103E102E3DDD013384
:104DD0001031072BC2E9007BCDE92931F3DD28AA88
:104DE0002946204603F03CFC00287FF413A8DDE9A7
:104DF00029312BAAE8E70E9B1BF4007914BF53F866
:104E0000044B53F8044B0E931CBF9146E4B20123AC
:104E1000FFF776B90E9B17F4007914BF53F8044BD3
:104E200053F8044B0E931CBF9146E4B2FFF765B9EB
:104E30000E9B17F4007914BF53F8044B53F8044B3E
:104E40000E931CBF9146E4B28AE6454690463A4628
:104E50000C464F46914601333444072BCDE92934A3
:104E6000C8F80090C8F8046000F3E68008F108086C
:104E700053E41C9B1B99ED1A1A46284603F070FB5D
:104E800098F801300BB108F10108204649460A2282
:104E900000230026FBF790FBDBE62D228DF8832014
:104EA000FFF796B8129AAE18A6EB0B06D51AAE42CB
:104EB000A8BF2E4664E40E9B0B9953F8042B0E9367
:104EC00011805546FFF74CB844F3C0194B4664B205
:104ED000FFF7B8B830238DF8843058238DF885302B
:104EE000089B632B47F0020400F39B8200230D9381
:104EF0003BADDDE9141247F481730F931346002B89
:104F00002746C0F220820C9326F02003069300234C
:104F10008B461D93612E00F0ED82412E7FF459AD3A
:104F200022AA0C99584603F025FA00224FF07F532D
:104F3000FBF720FE02460B46CDE91023002200239A
:104F4000FCF780F808B101232293494B0C93089B8E
:104F5000CDE912A6CDE91E78DDF830A0DDE91067B5
:104F600003F1FF39AB46109506E00022002309F15A
:104F7000FF39FCF767F8E8B93E4B00223046394666
:104F8000FBF7F8FD0F460646FCF7A4F80446FBF7CE
:104F900089FA0B46024639463046FBF735F91AF8CE
:104FA0000430B9F1FF3FD8464D460BF8013B0646A9
:104FB0000F46DAD1304639462F4BDDF848A0139E14
:104FC000CDF848800022A946DDF87C80109D1E9F08
:104FD000CDE91001FCF75EF8002840F03482DDE9ED
:104FE0001001254B0022FCF72DF810B1E10700F16C
:104FF0002A824B46002B06DB01335B4430220BF840
:10500000012B5B45FBD1ABEB0503B94612930F9F18
:1050100003E50799099828AA03F022FB00287EF4EB
:10502000F9AEDDE9293222990DF1AC08AAE6906DBE
:1050300002F02CF8FEF7C0BE0799099828AA03F0E1
:105040000FFB00287EF4E6AE2A9C0DF1AC08FFF7BA
:1050500064BB229B1093DA1C02DB089A93420DDD9D
:10506000023E26F020030693E1E400BF80AB000877
:1050700050AB0008000030400000E03F109B129A47
:105080009342C0F2568119F0010F00F08782169A00
:1050900013440C9319F4806F03D0109B002B00F382
:1050A00050820C9B23EAE3730693672600230F9339
:1050B00013931DE52D2200238DF883200893FEF71E
:1050C0009ABF129BCDF830A04246DDF84C80109775
:1050D000EB1808935E46199FDDF87090DDF824A068
:1050E000DDF81CB00F9B13952146B8F1000F2ED0B0
:1050F000002B6BD1013F08F1FF381B9BC2E900393F
:10510000299B01334944072B2A91299362DC0832F9
:10511000089B38789B1B8342A8BF0346002B1C4684
:105120000ADD2998013019440728C2E900632A9151
:1051300029905ADC38780832002CACBF051B054694
:10514000002D15DC06440F9BB8F1000FD0D1002BC9
:105150003CD1DDE91235EB189E421997B346DDF8D4
:1051600030A0109F90460C4628BF9B46FFF7DBBA45
:10517000102D29981DDD102404E0103D102D02F1A2
:10518000080216DD0130AC4B10310728C2E90034AB
:10519000CDE92901F1DD28AA5946504603F060FA0D
:1051A00000287EF437AE103D102DDDE929012BAA31
:1051B000E8DC0130A04B556029440728CDE92901DE
:1051C00013602CDC387808320644BCE70F9B013BA7
:1051D0000F9392E728AA5946504603F041FA002857
:1051E0007EF418AE2A992BAA92E728AA594650466F
:1051F00003F036FA00287EF40DAE38782A992BAAEF
:105200009AE70799099828AA03F02AFA00287EF459
:1052100001AE22992A9C0DF1AC08FFF784BB28AAA5
:105220005946504603F01CFA00287EF4F3AD387856
:105230002A992BAA064486E70799099828AA03F019
:105240000FFA00287EF4E6AD2A9C0DF1AC08FFF7BA
:105250005BBA0799099828AA03F002FA00287EF49D
:10526000D9AD229B2A9C0DF1AC08FFF771BA0899C1
:10527000019126A9049123A9039122A90291032156
:105280000C9B099800915A4600F03AFB0378302BAA
:10529000054600F09581229B089AB94613440F9F5A
:1052A000EC180C99584600220023FBF7CBFE10B1F6
:1052B0002346FFF7B0BB269BA342BFF4ACAB302123
:1052C0005A1C26921970269B9C42F9D8FFF7A3BB63
:1052D000089B9DF883200E9406930C9308900F90E2
:1052E00013901090FEF784BE229A1092002A40F389
:1052F0008181089909F001030B4340F05581109B0F
:105300000C93662619F4806F40F01C810C9B23EAF5
:10531000E3730693CAE60799099828AA03F0A0F94F
:1053200000283EF425AEFEF77BBD00230893FEF770
:10533000A1BC129B169A9A18109B0C92002B40F35A
:105340004D816726DEE726F020030693DDE914345D
:105350009B4604F100430C932D231D93DAE5079936
:10536000099828AA03F07CF900287EF453AD229D09
:10537000129B2A9C5D1B0DF1AC08FFF701BA4E424F
:105380001031DFF8B49034DA4146DDF824B0A84695
:105390001024079D03E00831103E102E27DD013355
:1053A0001032072BC1E90094CDE92932F3DD28AA98
:1053B0002946584603F054F900287EF42BADDDE968
:1053C00029322BA9E8E7089BEC186AE7079B5B6E7C
:1053D000DD0707D4079B9B899C0503D4079B986D29
:1053E00001F054FE4FF0FF330B93FEF722BD45460C
:1053F000884601333244072BCDE92932C8F80090A2
:10540000C8F804607FF7A4AA0799099828AA03F0AE
:1054100027F900287EF4FEACDDE929320DF1AC0855
:10542000B3E40998591C01F0A3FE0546002800F0DA
:105430000D810D905DE500BF80AB000830238DF835
:10544000843078234AE5129B26930C9B1BF8012C91
:10545000D97B8A425B4609D1302003F8010C269B98
:105460005A1E269213F8012C9142F6D0392A0BBF0E
:105470000C9A0132927AD2B203F8012CC3E5089952
:105480000C9B09984C1C26A9049123A9039122A9DD
:10549000029102215A460194009100F031FA05462A
:1054A000B9462C440F9FFCE6089B002B08BF012344
:1054B000089347F480730F93159B002BC0F2AE80C6
:1054C000DDF850B01D900C930D90FFF789BA0623BC
:1054D0000893FFF770BA159B604D002BB4BF2D22C7
:1054E0009DF883205E4BB8BF8DF8832027F080079E
:1054F000FEF772BD22AA0C99584602F03BFF00222B
:105500004FF07F53FBF736FB02460B46CDE91023E5
:1055100000220023FBF796FD08B101232293514B93
:105520000C9314E5002962D130228DF892200DF100
:105530009302303302F8013B24ABD31A1A93FFF7DE
:10554000C0BA672619990B78FF2B7BD00024109ADC
:10555000204603E001300131FF2B08D0934206DAE8
:10556000D21A4B78002BF5D10B780134F4E719915E
:10557000109213900F940F9A139B1C9913440C9A3A
:1055800001FB03230C9323EAE3730693FFF7B0BAFE
:1055900006F10F02D2B20121FFF752BA109B0C9311
:1055A00078E500230D93D1E6169BD31819440C918E
:1055B0006626A7E619F0010F3FF48EAAFFF788BA16
:1055C0000C99584600220023FBF73CFD00287FF48D
:1055D00062AE089BC3F1010322935DE6C3F10103B0
:1055E0001A4422EAE2730C92069367265EE50DF1F7
:1055F00092029EE7089A09F0010959EA020304D1D0
:105600000123069366260C9350E5169B01331A443A
:1056100022EAE2730C920693662647E50D9095E622
:105620000E9B9AF80160924653F8042B0E9342EABF
:10563000E2720892FEF71CBB02231A93FFF741BAED
:10564000089C2DE700230F93139394E7079A9389FF
:1056500043F040039381FEF7E3BB00BF34AB000887
:1056600038AB00083CAB0008F0B51F468B89ADF2A3
:105670006C4D23F00203ADF80C304B6E1993CB89BF
:10568000ADF80E30CB6907934B6A09931AAB0093C0
:1056900004934FF48063154606460293059316A8BB
:1056A00000230C46069301F0EBFC2A463B46694674
:1056B0003046FEF76FFA051E07DB6946304601F0FB
:1056C00011F9002818BF4FF0FF35BDF80C305B060C
:1056D00003D5A38943F04003A381169801F0D2FCBF
:1056E00028460DF26C4DF0BD38B5334B1B680546AE
:1056F0000C460BB19A6B12B3B4F90C3018079AB27E
:1057000025D5216900292DD012F0010007D00020F5
:10571000A06060694042A06139B1002038BD9507A2
:1057200058BF6069A0600029F7D1120658BF08462B
:10573000F4D543F04003A3814FF0FF3038BD184645
:1057400001F004F9B4F90C3018079AB2D9D4D10693
:105750002AD5520714D4216943F00803A3819AB2D1
:105760000029D1D102F42070B0F5007FCCD02146C1
:10577000284601F08DFCB4F90C3021699AB2C3E7D8
:10578000216B51B104F14002914204D0284601F04E
:10579000D5F9B4F90C300022226321690022C4E952
:1057A000001223F02403D7E7092243F040032A60C4
:1057B0004FF0FF30A38138BD0C000020024B13B125
:1057C000024800F005B8704700000000716A000848
:1057D000002301461A46184603F072BE2DE9F04F29
:1057E00003690C69A34283B0C0F28680013C01F1D9
:1057F0001405A30000F11408009355F8243058F85C
:10580000242001338A469A4208EB8401814605EB45
:1058100084070191B2FBF3F638D30023AE4640462D
:105820009B465EF8041B02681FFA81FC06FB0C33E2
:10583000090C4FEA134C06FB01CC99B2ABEB01010A
:105840001FFA8CF311FA82F1C3EB124202EB2142F0
:1058500089B241EA0241774540F8041B4FEA1C43F4
:105860004FEA224BDDD2009B58F8033073B9019BFD
:10587000043B984504D307E0984504F1FF3403D274
:1058800053F80429002AF7D0C9F810405146484679
:1058900002F05CFA00282BDB01364046002355F865
:1058A000041BD0F800C08AB29A1A0B0C12FA8CF2C0
:1058B000C3EB1C4303EB224392B242EA0342AF42E2
:1058C00040F8042B4FEA2343E9D258F8242008EB90
:1058D00084036AB9043B984504D307E0984504F172
:1058E000FF3403D253F80429002AF7D0C9F8104036
:1058F000304603B0BDE8F08F002003B0BDE8F08F64
:105900002DE9F04F016C99B090469946CDE9048994
:10591000259D044641B1426C4A60012393408B604F
:1059200001F0B8FF00232364B9F1000AB4BF0123DA
:1059300000232B60764BBCBF2AF0004ACDF814A0A0
:1059400033EA0A0300F0AA80DDE904231046194671
:1059500000220023CDE90A01FBF774FB074670B172
:10596000249A01231360269B002B00F0E4826948EF
:105970001860431E0393039819B0BDE8F08F16AB6F
:10598000019317AB00932046DDE90A2302F0A4FA45
:105990005FEA1A56054640F09780DDE916763E44E8
:1059A00006F23240202840F3B583C0F140000AFAE5
:1059B00000FA06F2124028FA00F04AEA0000FAF76C
:1059C00061FD0123013EA1F1F8710F93524B0022BA
:1059D000FAF71AFC48A3D3E90023FBF7CBF848A356
:1059E000D3E90023FAF712FC804630468946FAF7DD
:1059F00059FD45A3D3E90023FBF7BCF802460B464B
:105A000040464946FAF702FC80468946FBF762FBAE
:105A100000228346002340464946FBF71DFB002831
:105A200040F07C82BBF1160F00F26B823B4B03EB24
:105A3000CB03D3E90023DDE90A01FBF70DFB0028C6
:105A400072D00023BE1B0E93731E0BF1FF3B069317
:105A500000F15E8200230993BBF1000F6BDA099B12
:105A6000CDF81CB0A3EB0B030993CBF100030D930E
:105A7000229B092B4FF0000B66D8052B40F348837F
:105A8000043B22930026229B023B032B00F26886F4
:105A9000DFE813F05C04590450043304249A42F202
:105AA0000F73CAF3130A13605AEA08031AD1269B2C
:105AB000002B00F064861A4B03930833269A039850
:105AC000136019B0BDE8F08FDDE90A12C2F31303C9
:105AD000084643F07F510F97A6F2FF36169F41F418
:105AE000401173E7269B002B40F0EA830D4B039394
:105AF00041E700BFAFF3008061436F63A787D23FE8
:105B0000B3C8608B288AC63FFB799F501344D33FAC
